:100000006F40802E1300000013000000130000005A
:100010001300000013000000130000001300000094
:100020001300000013000000130000001300000084
:08003000130000007300100032
:1000380000000000000000002E4100003E410000CA
:10004800000000002E420000000000000000000038
:1000580030420000324200000000000000000000B2
:10006800344200000000000036420000000000009A
:10007800384200003A4200003C4200003E42000084
:100088004042000042420000F8330000AC34000057
:100098006035000014360000C83600004E420000EB
:1000A80050420000524200005442000056420000F4
:1000B800584200005A4200005C4200005E420000C4
:1000C8006042000062420000644200007C37000089
:1000D80068420000C63900006C4200006E42000011
:1000E800863A00003E3B0000FE3B000076420000DE
:1000F800784200007A4200007C4200007E42000004
:1001080080420000002D0000C42D0000882E000051
:10011800943800008A4200008C4200008E420000A1
:10012800F63E000092420000944200009642000011
:10013800984200009A420000BE3C00009E42000027
:10014800502F0000143000007E3D0000363E0000B5
:10015800A8420000AA420000AC420000AE420000E3
:10016800B0420000B2420000B4420000B6420000B3
:10017800B8420000BA420000BC420000965000009D
:10018800C0420000C242000028330000DA300000FC
:100198009E31000068320000CC420000B63F0000EB
:1001A800D0420000D2420000D44200007640000055
:1001B800D8420000DA420000DC420000DE420000C3
:1001C800E0420000E2420000E4420000E642000093
:1001D8000000000000000000000000000000000017
:1001E8000000000000000000000000000000000007
:0801F8000000000000000000FF
:100200003D432A876373C3029377F700BDEFADE5E3
:10021000937606FF3D8ABA960CC34CC30CC74CC7F5
:100220004107E36BD7FE11E28280B306C3408A0622
:100230009702000096966780A6002307B700A306E2
:10024000B7002306B700A305B7002305B700A30432
:10025000B7002304B700A303B7002303B700A3022A
:10026000B7002302B700A301B7002301B700A30022
:10027000B7002300B700828093F5F50F93968500B1
:10028000D58D93960501D58D61B79396270097027A
:10029000000096968682E78086FA9680C1171D8FA9
:1002A0003E96E374C3F8A5B7011122CE00102326B1
:1002B000A4FE8327C4FE958313F77700B7070020B9
:1002C0000A0793870704BA979C439C470327C4FEF9
:1002D0007D8B85463397E600F98FB337F00093F7AF
:1002E000F70F3E85724405618280797106D622D46B
:1002F0000018232EA4FC232CB4FCB2872328D4FCA2
:10030000A30BF4FC232004FE232204FE232404FE7A
:100310008327C4FD958393F7F70F9D8BA307F4FE06
:100320008327C4FD93F7F70FFD8B2307F4FE834764
:10033000F4FE91E785451145EF40405D91A80347E4
:10034000F4FE85476317F70085452145EF40005CC3
:1003500081A00347F4FE89476317F70085454145AF
:10036000EF40C05A35A00347F4FE8D476318F700ED
:10037000854513050002EF40605919A80347F4FEB4
:1003800091476317F700854513050004EF400058B7
:100390008347E4FE0547B317F700C207C183231064
:1003A000F4FE032784FD85476317F702832704FDC6
:1003B000C207C183A183C207C18389E78D47232276
:1003C000F4FE11A8832704FDC207C183A183C207DD
:1003D000C1832322F4FE832704FDC207C18393F760
:1003E000F70F2324F4FE0347F4FEB70700200A07A3
:1003F00093870704BA979C43130704FEBA853E858A
:10040000EF30507E032784FD85476319F7020347C9
:10041000F4FEB70700200A0793870704BA979443AE
:100420008347E4FE0547B317F700C207C1830347BC
:1004300074FD3A86BE853685EF40601D0100B250DE
:10044000225445618280797122D60018232EA4FCA3
:10045000B7370140938707C02326F4FE231504FE17
:100460000327C4FDA54763ECE7088327C4FD139762
:100470002700B967938707DBBA979C438287B73712
:100480000140938707C02326F4FE95A8B7070040D4
:100490002326F4FEADA0B70700409387074023262C
:1004A000F4FEB1A8B7170040938707802326F4FE17
:1004B000B9A0B7170040938707C02326F4FE81A098
:1004C000B71700402326F4FE1DA8B71700409387F6
:1004D00007402326F4FE25A0B73701409387074045
:1004E0002326F4FE29A8B7570140938707C0232687
:1004F000F4FE31A0B75701402326F4FE0100032784
:10050000C4FD0A079387C189BA9798438947631F37
:10051000F7008327C4FE83D747021397070141835F
:100520008D47B357F7022315F4FE39A08327C4FE85
:1005300083D747022315F4FE8357A4FE3E85325429
:1005400045618280797122D60018232EA4FCB7372A
:100550000140938707C02326F4FE0327C4FDA54767
:1005600063ECE7088327C4FD13972700B9679387D7
:1005700087DDBA979C438287B7370140938707C0CE
:100580002326F4FE95A8B70700402326F4FEADA06D
:10059000B7070040938707402326F4FEB1A8B7179A
:1005A0000040938707802326F4FEB9A0B7170040C8
:1005B000938707C02326F4FE81A0B71700402326A7
:1005C000F4FE1DA8B7170040938707402326F4FECA
:1005D00025A0B7370140938707402326F4FE29A8BA
:1005E000B7570140938707C02326F4FE31A0B757C1
:1005F00001402326F4FE01008327C4FE2392070254
:100600000100325445618280011122CE0010232660
:10061000A4FEAE87A305F4FE0100B9670327C4FE5C
:100620000A07938707E0BA979C4383D70700C2075E
:10063000C18393F70708F5D3B9670327C4FE0A07F8
:10064000938707E0BA979C433E878347B4FEC2076F
:10065000C1832312F70001007244056182800111F9
:1006600006CE22CC00102326A4FE2324B4FE83272A
:1006700084FEB337F00093F7F70F3E8713060005AB
:10068000B967938547AB3A85EF10602039A8832777
:1006900084FE138717002324E4FE8387070093F763
:1006A000F70FBE850325C4FE8537832784FE838725
:1006B0000700F1FF0100F2406244056182800111F0
:1006C00006CE22CC00102326A4FEAE87A305F4FE9E
:1006D000B9670327C4FE0A07938707E0BA979C43CC
:1006E0003E878347B4FE3E86930550523A85EF40DD
:1006F000C05D138701838327C4FEBA9783C70700B1
:1007000081453E85EF2040568347B4FE81CF138755
:1007100001838327C4FEBA9783C707003E85EF2075
:10072000205119A8138701838327C4FEBA9783C772
:1007300007003E85EF2080510100F24062440561D0
:100740008280011122CE00102326A4FE2324B4FEB1
:10075000B9670327C4FE0A07938707E0BA979C434B
:1007600083D70700C207C18393F707028DC7B96714
:100770000327C4FE0A07938707E0BA979C4383D7F1
:100780004700C207C18313F7F70F832784FE238036
:10079000E700854711A081473E857244056182804C
:1007A000797106D622D40018232EA4FC232CB4FC85
:1007B000232AC4FC2328D4FC032744FD832704FDFB
:1007C0003D8F8327C4FDB207F98F93B7170093F7C6
:1007D000F70F3E871306A00AB967938547AB3A85A2
:1007E000EF10E00A832744FD13D78700832704FD19
:1007F000A183B307F74093B7170093F7F70F3E872E
:100800001306B00AB967938547AB3A85EF10200805
:10081000832744FD93F7F70FE146014685453E8562
:10082000E934832704FD93F7F70F9306800401460C
:1008300081453E855D3C85450545EF40200D0327FC
:1008400044FDC167FD17F98F0D67130707386387EC
:10085000E7200D67130707386369F7040567130777
:1008600057166381E716056713075716636FF7007E
:100870001307F022638AE70C130760306381E710E7
:10088000130760126388E70865A6096713078736B0
:10089000638BE7160D67130707126387E71809676D
:1008A0001307A7146380E71461A615671307A73819
:1008B000638EE72615671307A7386362F70211678F
:1008C000130787386380E72015671307871263854E
:1008D000E722116713074712638CE71A91AE196775
:1008E0001307C7386388E72A19671307C73863688F
:1008F000F7001967130767106384E72615AE1D67B5
:100900001307E7106382E72C1D671307E738638737
:10091000E72E39AEB7070140D44FB707014037077C
:1009200000FC7D17758FD8CFB7070140D843B707B4
:1009300001406D9BD8C3B7070140D843B7070140BA
:1009400013674700D8C3EDA4B7070140D44FB707DA
:100950000140370700FC7D17758FD8CFB7070140DE
:10096000D44FB707014037070004558FD8CFB707DA
:100970000140D843B70701406D9BD8C355ACB707BA
:100980000140D44FB7070140370700FC7D17758F32
:10099000D8CFB7070140D44FB7070140370700044D
:1009A000558FD8CFB7070140D843B70701406D9B9B
:1009B000D8C3B7070140D843B707014013674700C2
:1009C000D8C3BDA4B7070140D843B70701405D9B1A
:1009D000D8C3B7070140D843B70701401367870062
:1009E000D8C3B9A4B7070140D843B707014013776C
:1009F000F7FCD8C3B7070140D843B70701401367D6
:100A00000701D8C335A4B7070140D843B707014051
:100A10001377F7FCD8C3B7070140D843B7070140A5
:100A200013670703D8C329A4B7070140D44FB707FA
:100A300001403707FDFF7D17758FD8CFB7070140FD
:100A4000D44F832744FDA18313970701B707030001
:100A50007D8FB7070140558FD8CFD9AAB70701407E
:100A6000D44FB70701403707FDFF7D17758FD8CFEB
:100A7000B7070140D44F832744FDA1831397070193
:100A8000B70703007D8FB7070140558FD8CF4DA220
:100A9000B7070140D44FB70701403707F4FF7D1770
:100AA000758FD8CFB7070140D44F832744FDA1836A
:100AB00013972701B7070C007D8FB7070140558FAB
:100AC000D8CFBDA2B7070140D44FB70701403707C1
:100AD000F4FF7D17758FD8CFB7070140D44F832718
:100AE00044FDA18313972701B7070C007D8FB7073B
:100AF0000140558FD8CF2DAAB7070140D44FB70773
:100B000001403707D0FF7D17758FD8CFB707014059
:100B1000D44F832744FDA18313974701B7073000C3
:100B20007D8FB7070140558FD8CF19A2B707014075
:100B3000D44FB70701403707D0FF7D17758FD8CF47
:100B4000B7070140D44F832744FDA1831397470182
:100B5000B70730007D8FB7070140558FD8CFC9A8A0
:100B6000B7070140D44FB7070140370740FF7D1753
:100B7000758FD8CFB7070140D44F832744FDA18399
:100B800013976701B707C0007D8FB7070140558FE6
:100B9000D8CF79A8B7070140D44FB707014037072E
:100BA00040FF7D17758FD8CFB7070140D44F8327FB
:100BB00044FDA18313976701B707C0007D8FB70776
:100BC0000140558FD8CFADA0B7070140D44FB7072C
:100BD0000140370700FD7D17758FD8CFB70701405B
:100BE000D44F832744FDA18313978701B7070003E0
:100BF0007D8FB7070140558FD8CF1DA8B70701409B
:100C0000D44FB7070140370700FD7D17758FD8CF48
:100C1000B7070140D44F832744FDA1831397870171
:100C2000B70700037D8FB7070140558FD8CF01006C
:100C30008327C4FD91E785451165EF30304D69A8E4
:100C40000327C4FD85476318F70085453705020073
:100C5000EF30305051A00327C4FD89476318F700D7
:100C6000854537050400EF30D04EBDA00327C4FDF5
:100C70008D476318F700854537050800EF30704D44
:100C8000A1A80327C4FD91476318F70085453705E0
:100C90001000EF30104C89A00327C4FD954763185E
:100CA000F700854513050004EF30B04A35A003274F
:100CB000C4FD99476318F700854513050008EF3018
:100CC000504919A80327C4FD9D476317F7008545C0
:100CD00013050010EF30F047232004FE232204FE0A
:100CE000232404FE232604FE832784FD2320F4FE10
:100CF000231204FE231304FE231404FE231604FE11
:100D0000B1472315F4FEB9670327C4FD0A0793878B
:100D100007E0BA979C433E87930704FEBE853A8559
:100D2000EF307051B9670327C4FD0A07938707E0C6
:100D3000BA979C4385453E85EF3030730100B25031
:100D4000225445618280411106C622C4000883A74F
:100D500041840547638BE7006388070C0947638D6F
:100D6000E7000D47638FE702E9A083A7018413879B
:100D7000170023A0E18475A883A7018413871700B7
:100D800023A0E18403A70184A54763F1E70AB7071D
:100D90000020938707049C4B1167D8CB23A00184C4
:100DA00071A003A7818485476314F7081305F00831
:100DB000EFF08FCFAA87ADC31945EFF0CFE8AA8730
:100DC0003E8783A701841D8F9307600963F2E706BE
:100DD0001945EFF02FF783A70184D3F717D0538578
:100DE000F720EF70B01CB96703A687B183A6C7B11F
:100DF000EF602061AA872E883E85C285EF70D00300
:100E0000AA87139707014183B70700202398E72893
:100E1000094723A4E18429A81945EFF0CFE2AA8766
:100E20003E8723A0E18429A0010021A0010011A098
:100E300001000100B240224441018280411106C6F6
:100E400022C4000883A741840947637CF7000D474B
:100E5000639AE7001945EFF0EFEE054723A4E1841C
:100E600011A001000100B240224441018280011121
:100E700006CE22CC0010232204FE83C7D1846381D6
:100E8000071409A8930734FE0546BE851385418CD7
:100E9000EF108015930734FEBE851D45EFF07F8A65
:100EA000AA87EDF3034734FEA947631BF710994760
:100EB0002322F4FE130744FE930784FE85463A86F8
:100EC000BE851385418CEF10C070930784FE138795
:100ED00037000D46B967938507B23A85EF80105603
:100EE000AA879DEB03A7418589476304F70C054753
:100EF00023AAE1841385418CEF106007AA8723227F
:100F0000F4FE930744FE81463E8693850196138541
:100F1000418CEF10006C71A8930784FE1387370093
:100F20000D46B967938547B23A85EF803051AA875D
:100F30009DEB03A701858947630DF706054723A8A5
:100F4000E1841385418CEF108002AA872322F4FEEE
:100F5000930744FE81463E869385018E1385418C1E
:100F6000EF102067B9A0930784FE138737000D4662
:100F7000B967938587B23A85EF80504CAA8795EB85
:100F800003A7818589476306F702054723ACE184FF
:100F90001385418CEF00B07DAA872322F4FE9307CE
:100FA00044FE81463E869385019E1385418CEF1059
:100FB00040621385418CEF00105705472386E1847A
:100FC0000100F240624405618280411122C600089E
:100FD0000100324441018280411122C60008B71746
:100FE00002409843B71702401367170098C3B7171A
:100FF0000240D443B71702403707FFF8758FD8C3B4
:10100000B71702409443B71702403707F7FE7D1722
:10101000758F98C3B71702409443B717024037073C
:10102000FCFF7D17758F98C3B7170240D443B717DD
:101030000240370781FF7D17758FD8C3B71702406D
:1010400037079F0098C701003244410182807971BF
:1010500006D622D40018232EA4FCBD3F232604FE6E
:10106000232404FEB71702409443B7170240416798
:10107000558F98C3B71702409843B7070200F98FFE
:101080002324F4FE8327C4FE85072326F4FE83274A
:1010900084FE91E70327C4FE8567E31DF7FCB717BD
:1010A00002409843B7070200F98F89C78547232478
:1010B000F4FE19A0232404FE032784FE854763124F
:1010C000F71637170240B71702405843D8C33717EF
:1010D0000240B71702405843D8C337170240B7172A
:1010E00002405843D8C3B7170240D443B717024051
:1010F0003707C1FF7D17758FD8C30327C4FDB747D6
:10110000950893870740631BF700B7170240D44345
:10111000B71702404167558FD8C355A80327C4FDB0
:10112000B7172707938707E0631CF700B71702403C
:10113000D443B717024037073900558FD8C341A8A9
:101140000327C4FDB7E7B80593870780631CF70042
:10115000B7170240D443B717024037072900558F0D
:10116000D8C3B5A00327C4FDB7A74A0493870720B7
:10117000631CF700B7170240D443B7170240370784
:101180001D00558FD8C3A1A00327C4FDB777DC028B
:10119000938707C0631CF700B7170240D443B71703
:1011A000024037071100558FD8C315A00327C4FD8F
:1011B000B7376E0193870760631BF700B7170240CC
:1011C000D443B717024037070500558FD8C3B71768
:1011D00002409443B717024037070001558F98C368
:1011E0000100B71702409843B7070002F98FF5DBFB
:1011F000B7170240D843B7170240719BD8C3B7173F
:101200000240D843B717024013672700D8C3010034
:10121000B7170240DC4313F7C700A147E31AF7FEF4
:1012200011A001A0B250225445618280011106CE66
:1012300022CC00102326A4FE0327C4FE23AAE180AB
:10124000613B0325C4FE2135EF10302A0100F24036
:10125000624405618280411122C60008010001003C
:10126000324441018280011106CE22CC0010232697
:1012700004FE232404FE232604FE25A0232404FECA
:1012800039A0D13F832784FE85072324F4FE03275A
:1012900084FEC167E367F7FE8327C4FE8507232624
:1012A000F4FE0327C4FE9307F00FE3F9E7FC010007
:1012B000F240624405618280411122C600080100AB
:1012C000324441018280011106CE22CC0010232637
:1012D000A4FE8325C4FE0945EFF06FB80100F2407B
:1012E000624405618280130101D92326112623243B
:1012F000812623229126801C232EA4D8232CB4D807
:10130000232AC4D82328D4D8231504FE231404FE8A
:10131000231304FE231204FE231104FE032584D9A3
:10132000EF80B010AA87C207C1872313F4FE83D7CA
:1013300001A689C7938701A69C4B829783C7C18565
:1013400093F7F70F638D074A83D701A66387074496
:10135000938701A6D447835724FE1397070141873B
:1013600093170701C1838507C207C183C207C187DD
:101370002311F4FE93170701C1830326C4D9BE8548
:1013800001458296832784D92326F4FE032584D938
:10139000EF80B009AA87C207C1872313F4FE9387A1
:1013A00001A683D727003E87938701A683C76700DE
:1013B000B347F702C207C1872312F4FE0100832757
:1013C000C4FE138717002326E4FE83870700E5FB8E
:1013D000231404FEA1A88327C4FEFD172326F4FED0
:1013E0008327C4FE038707009307F002630AF70010
:1013F0008327C4FE038707009307C005631BF7001C
:10140000835784FEC207C1838507C207C1832314A3
:10141000F4FE835764FEC207C187C207C183FD176C
:10142000C207C183C207C1872313F4FE835784FE1A
:10143000139707014183854763E8E700835764FEFC
:10144000C207C187E3D907F8835764FEC207C18783
:1014500063C207028327C4FE85072326F4FE130711
:1014600004EE0326C4FEB967938507C13A85EF8071
:1014700060771DA8835784FEC207C18381EF1307DD
:1014800004EE0326C4FEB9679385C7C13A85EF8091
:10149000607519A8130704EE0326C4FEB967938587
:1014A00007C13A85EF800074231504FE21AA231496
:1014B00004FE59A0930704EE3E85EF8000772A874B
:1014C000835784FEC207C183BE868357A4FEC2072A
:1014D000C1833E86835744FEC207C187B307F60225
:1014E000B6976367F706835784FEC207C1833E87BA
:1014F0008357A4FEC207C183BE86835744FEC2073A
:10150000C187B387F602BA97035784FE4207418327
:10151000BA86130704FFBA97038707EF930704FF00
:10152000B6972388E7EA835784FEC207C1838507FD
:10153000C207C1832314F4FE835784FEC207C1830C
:101540003E87835744FEC207C187E345F7F611A0E3
:101550000100835784FEC207C183130704FFBA97B3
:10156000238807EA938701A603A8C700938701A6EB
:1015700083C77700139707014183835724FE93960F
:101580000701C18693970601C1838507C207C183FE
:10159000C207C1872311F4FE93970601C183B307E5
:1015A000F702C207C183130704EA3A86BE850145E4
:1015B00002988357A4FEC207C1838507C207C1836F
:1015C0002315F4FE8357A4FEC207C183BE8493078C
:1015D00004EE3E85EF8060652A87835744FEC2078C
:1015E000C187B357F7028507E3E3F4EC130704EE72
:1015F000032644D9B9679385C7C23A85EF80805ED8
:10160000938701A603A8C700938701A683C7770025
:10161000139707014183835724FE93960701C186E0
:1016200093970601C1838507C207C183C207C1879B
:101630002311F4FE93970601C183B307F702C20793
:10164000C183130704EE3A86BE85014502988327BD
:1016500004D96386071A231504FE21AA231404FE65
:1016600059A0032504D9EF80405C2A87835784FE64
:10167000C207C183BE868357A4FEC207C1833E86CC
:10168000835744FEC207C187B307F602B697636863
:10169000F706835784FEC207C1833E878357A4FEA3
:1016A000C207C183BE86835744FEC207C187B38782
:1016B000F602BA973E87832704D9BA97035784FE68
:1016C00042074183BA8603870700930704FFB69752
:1016D0002388E7EA835784FEC207C1838507C207D0
:1016E000C1832314F4FE835784FEC207C1833E875F
:1016F000835744FEC207C187E345F7F611A00100F6
:10170000835784FEC207C183130704FFBA97238857
:1017100007EA938701A603A8C700938701A683C79A
:101720007700139707014183835724FE939607019F
:10173000C18693970601C1838507C207C183C2078B
:10174000C1872311F4FE93970601C183B307F70203
:10175000C207C183130704EA3A86BE850145029891
:101760008357A4FEC207C1838507C207C18323151F
:10177000F4FE8357A4FEC207C183BE84032504D9A7
:10178000EF80A04A2A87835744FEC207C187B35718
:10179000F7028507E3E4F4EC9DA0930704DA13064F
:1017A000001081453E85EFE0BFA5938701A69C47C9
:1017B0000325C4D98297832704D999CF130504DA66
:1017C000032704D9832644D9032684D9B96793858E
:1017D00087C3EF80204129A8130704DA832644D960
:1017E000032684D9B967938547C53A85EF80803F42
:1017F000938701A69847930704DA3E850297010074
:101800008320C12603248126832441261301012736
:101810008280797106D622D40018232EA4FC232CB2
:10182000B4FC232AC4FC232604FEA9A00100B96746
:10183000938707E09C47930500043E85EF300058EE
:10184000AA87F5D7B967938707E09C47BE868327A9
:1018500084FD13871700232CE4FC83870700C2074D
:10186000C183BE853685EF3080528327C4FE85074D
:101870002326F4FE0327C4FE832744FDE348F7FA3A
:10188000832744FD3E85B250225445618280011178
:1018900006CE22CC0010AA872324B4FE2322C4FE45
:1018A000A307F4FE8347F4FEB1E383C7818193F776
:1018B000F70F8DCF83C7D18591C301A083C7D18591
:1018C000850713F7F70FA38EE184EF10603FEFF069
:1018D000BF9E8146032644FE832584FEB967138597
:1018E000C7C6EFF05FA0EFF01F98E5B70100F24028
:1018F000624405618280011122CE00102326A4FEDD
:101900008327C4FE239007008327C4FE7D572391BD
:10191000E7008327C4FE7D572392E7008327C4FE98
:101920007D572383E7008327C4FE7D57A383E70009
:101930008327C4FE23A407008327C4FE23A6070031
:101940008327C4FE23A8070001007244056182803A
:10195000011122CE00102326A4FE8327C4FE03D744
:1019600007002390E1A68327C4FE03D727009387AF
:1019700001A62391E7008327C4FE03D7470093877E
:1019800001A62392E7008327C4FE03C7670093875D
:1019900001A62383E7008327C4FE03C7770093874C
:1019A00001A6A383E7008327C4FE9847938701A677
:1019B00098C78327C4FED847938701A6D8C7832733
:1019C000C4FE984B938701A698CB0547238EE184EC
:1019D0000100724405618280797106D622D4001814
:1019E0009307C4FD3E85013FB71700009387672C1E
:1019F0002322F4FE9307C4FD3E85993F89679386B1
:101A0000B70289671386A702F16793850720094506
:101A1000EFE01FD90100B2502254456182800111CC
:101A200022CE00102326A4FE2324B4FE8327C4FE66
:101A300003C7970083C6A700A206558F83C6B700C9
:101A4000C206558F83C7C700E207D98F3E87832719
:101A500084FE3E978327C4FE9375F70F83C69700D5
:101A6000818A3686AE86D18EA384D70093568700AE
:101A700093F5F60F83C6A700818A3686AE86D18E8F
:101A80002385D7009356070193F5F60F83C6B70059
:101A9000818A3686AE86D18EA385D70013568701FC
:101AA00003C7C700018BBA863287558F2386E700AC
:101AB00055A08327C4FE03C7970083C6A700A206CC
:101AC000558F83C6B700C206558F83C7C700E2078C
:101AD000D98F3E868327C4FE03C7570183C667019B
:101AE000A206558F83C67701C206558F83C787012B
:101AF000E207D98F3307F6408327C4FE9375F70FAB
:101B000083C69700818A3686AE86D18EA384D7009D
:101B10009356870093F5F60F83C6A700818A368611
:101B2000AE86D18E2385D7009356070193F5F60F25
:101B300083C6B700818A3686AE86D18EA385D7004C
:101B40001356870103C7C700018BBA863287558FAA
:101B50002386E7008327C4FE03C7570183C66701B6
:101B6000A206558F83C67701C206558F83C78701AA
:101B7000E207D98F3E868327C4FE03C7970083C63A
:101B8000A700A206558F83C6B700C206558F83C72C
:101B9000C700E207D98FE3FEC7F001007244056178
:101BA0008280011122CE00102326A4FE2324B4FE3D
:101BB0008327C4FE03C7D70083C6E700A206558F5C
:101BC00083C6F700C206558F83C70701E207D98F86
:101BD0003E87832784FE3E978327C4FE9375F70FC5
:101BE00083C6D700818A3686AE86D18EA386D7007B
:101BF0009356870093F5F60F83C6E700818A3686F1
:101C0000AE86D18E2387D7009356070193F5F60F42
:101C100083C6F700818A3686AE86D18EA387D70029
:101C20001356870103C70701018BBA863287558F88
:101C30002388E70055A08327C4FE03C7D70083C6C7
:101C4000E700A206558F83C6F700C206558F83C7EB
:101C50000701E207D98F3E868327C4FE03C75701D9
:101C600083C66701A206558F83C67701C206558FCA
:101C700083C78701E207D98F3307F6408327C4FE65
:101C80009375F70F83C6D700818A3686AE86D18ECC
:101C9000A386D7009356870093F5F60F83C6E70017
:101CA000818A3686AE86D18E2387D7009356070168
:101CB00093F5F60F83C6F700818A3686AE86D18EFD
:101CC000A387D7001356870103C70701018BBA8684
:101CD0003287558F2388E7008327C4FE03C7570147
:101CE00083C66701A206558F83C67701C206558F4A
:101CF00083C78701E207D98F3E868327C4FE03C7C7
:101D0000D70083C6E700A206558F83C6F700C20638
:101D1000558F83C70701E207D98FE3FEC7F00100A3
:101D2000724405618280797106D622D40018232E70
:101D3000A4FC8327C4FDB337F00093F7F70F3E8769
:101D400013065005B967938587C83A8589362326D7
:101D500004FE8327C4FD83C7070093E7170013F72A
:101D6000F70F8327C4FD2380E7008327C4FD03C743
:101D70009700018BA384E70003C7A700018B23858D
:101D8000E70003C7B700018BA385E70003C7C700BF
:101D9000018B2386E7008327C4FD03C7D700018B8F
:101DA000A386E70003C7E700018B2387E70003C78B
:101DB000F700018BA387E70003C70701018B238886
:101DC000E7008327C4FD03C7570183C66701A20646
:101DD000558F83C67701C206558F83C78701E207F7
:101DE000D98F3E878327C4FD9375F70F83C61701EC
:101DF000818A3686AE86D18EA388D7009356870017
:101E000093F5F60F83C62701818A3686AE86D18E7A
:101E10002389D7009356070193F5F60F83C6370140
:101E2000818A3686AE86D18EA389D7001356870164
:101E300003C74701018BBA863287558F238AE70093
:101E40008327C4FD03C7170083C62700A206558F4A
:101E500083C63700C206558F83C74700E207D98F74
:101E60000547638DE70489C709476380E70AEDA04A
:101E70008327C4FD03C7570083C66700A206558F9A
:101E800083C67700C206558F83C78700E207D98FC4
:101E90003E858327C4FD03C7570183C66701A20699
:101EA000558F83C67701C206558F83C78701E20726
:101EB000D98F3E868145EFE0AFB479A88327C4FD72
:101EC00003C7570083C66700A206558F83C67700F5
:101ED000C206558F83C78700E207D98F3E858327C7
:101EE000C4FD03C7570183C66701A206558F83C689
:101EF0007701C206558F83C78701E207D98F86070E
:101F00003E868145EFE0CFAF81A88327C4FD03C79C
:101F1000570083C66700A206558F83C67700C206A6
:101F2000558F83C78700E207D98F3E858327C4FD7D
:101F300003C7570183C66701A206558F83C6770181
:101F4000C206558F83C78701E207D98F8A073E866D
:101F50008145EFE0EFAA01008327C4FD238007003D
:101F60008327C4FE3E85B250225445618280011110
:101F700006CE22CC00102326A4FE8327C4FEB3374E
:101F8000F00093F7F70F3E8713066007B967938554
:101F900087C83A85EFF0BF8F8327C4FE03C7570178
:101FA00083C66701A206558F83C67701C206558F87
:101FB00083C78701E207D98F3E868327C4FE03C704
:101FC000170183C62701A206558F83C63701C206B3
:101FD000558F83C74701E207D98FB307F6403E8587
:101FE000F240624405618280797106D622D40018DD
:101FF000232EA4FC232CB4FC232AC4FC8327C4FD79
:10200000B337F00093F7F70F3E871306000BB9675D
:10201000938587C83A85EFF09F87232604FE232403
:1020200004FE832784FD89E78D472326F4FE59AB00
:102030008327C4FD83C70700958B93F7F70F89C7E4
:1020400091472326F4FEBDAB8327C4FD83C7070059
:1020500093E7470013F7F70F8327C4FD2380E700BA
:102060008327C4FD03C7170183C62701A206558F26
:1020700083C63701C206558F83C74701E207D98F50
:102080003E87832744FD6361F7528327C4FD03C75E
:10209000570183C66701A206558F83C67701C20622
:1020A000558F83C78701E207D98F3E868327C4FDFA
:1020B00003C7970083C6A700A206558F83C6B70043
:1020C000C206558F83C7C700E207D98FB307F64012
:1020D0002324F4FE032744FD832784FE63F3E72EC5
:1020E0008327C4FD03C7170083C62700A206558FA8
:1020F00083C63700C206558F83C74700E207D98FD2
:1021000005476385E70E89C709476386E71C11A960
:102110008327C4FD03C7570083C66700A206558FF7
:1021200083C67700C206558F83C78700E207D98F21
:102130003E868327C4FD03C7970083C6A700A20677
:10214000558F83C6B700C206558F83C7C700E20705
:10215000D98FB297032684FE832584FD3E85EF60E8
:10216000302E832584FE0325C4FDEFF05F8B83278B
:10217000C4FD03C7570083C66700A206558F83C6F8
:102180007700C206558F83C78700E207D98F3E8646
:102190008327C4FD03C7970083C6A700A206558FF7
:1021A00083C6B700C206558F83C7C700E207D98F21
:1021B000B306F600032784FD832784FEB305F700EA
:1021C000032744FD832784FEB307F7403E86368508
:1021D000EF601027032744FD832784FEB307F740F1
:1021E000BE850325C4FDEFF09F8325AE8327C4FD84
:1021F00003C7570083C66700A206558F83C67700C2
:10220000C206558F83C78700E207D98F3E86832792
:10221000C4FD03C7970083C6A700A206558F83C6D7
:10222000B700C206558F83C7C700E207D98F86075C
:102230003307F600832784FE86073E86832584FDC8
:102240003A85EF60F01F832584FE0325C4FDEFF07F
:102250000FFD8327C4FD03C7570083C66700A2068E
:10226000558F83C67700C206558F83C78700E20764
:10227000D98F3E868327C4FD03C7970083C6A70076
:10228000A206558F83C6B700C206558F83C7C70005
:10229000E207D98F8607B306F600832784FE8607F8
:1022A000032784FDB305F700032744FD832784FE3D
:1022B000B307F74086073E863685EF607018032720
:1022C00044FD832784FEB307F740BE850325C4FD84
:1022D000EFF0EFF4B9A48327C4FD03C7570083C60A
:1022E0006700A206558F83C67700C206558F83C745
:1022F0008700E207D98F3E868327C4FD03C7970076
:1023000083C6A700A206558F83C6B700C206558FA5
:1023100083C7C700E207D98F8A073307F6008327F0
:1023200084FE8A073E86832584FD3A85EF6050113E
:10233000832584FE0325C4FDEFF06FEE8327C4FDE3
:1023400003C7570083C66700A206558F83C6770070
:10235000C206558F83C78700E207D98F3E86832741
:10236000C4FD03C7970083C6A700A206558F83C686
:10237000B700C206558F83C7C700E207D98F8A0707
:10238000B306F600832784FE8A07032784FDB3057E
:10239000F700032744FD832784FEB307F7408A072D
:1023A0003E863685EF60D009032744FD832784FEEF
:1023B000B307F740BE850325C4FDEFF04FE60100EB
:1023C0008DA28327C4FD03C7170083C62700A2067A
:1023D000558F83C63700C206558F83C74700E20773
:1023E000D98F05476387E70689C709476387E70CE5
:1023F0000DAA8327C4FD03C7570083C66700A20642
:10240000558F83C67700C206558F83C78700E207C2
:10241000D98F3E868327C4FD03C7970083C6A700D4
:10242000A206558F83C6B700C206558F83C7C70063
:10243000E207D98FB297032644FD832584FD3E85AC
:10244000EF601000832544FD0325C4FDEFF02FDD70
:10245000C9A88327C4FD03C7570083C66700A20627
:10246000558F83C67700C206558F83C78700E20762
:10247000D98F3E868327C4FD03C7970083C6A70074
:10248000A206558F83C6B700C206558F83C7C70003
:10249000E207D98F86073307F600832744FD8607B6
:1024A0003E86832584FD3A85EF608079832544FD4F
:1024B0000325C4FDEFF0AFD6ADA08327C4FD03C74D
:1024C000570083C66700A206558F83C67700C206F1
:1024D000558F83C78700E207D98F3E868327C4FDC7
:1024E00003C7970083C6A700A206558F83C6B7000F
:1024F000C206558F83C7C700E207D98F8A07330703
:10250000F600832744FD8A073E86832584FD3A85AD
:10251000EF600073832544FD0325C4FDEFF02FD049
:1025200001008327C4FD03C7170183C62701A20644
:10253000558F83C63701C206558F83C74701E2070F
:10254000D98F3E87832744FD1D8F8327C4FD937554
:10255000F70F83C61701818A3686AE86D18EA3888F
:10256000D7009356870093F5F60F83C62701818A1B
:102570003686AE86D18E2389D7009356070193F510
:10258000F60F83C63701818A3686AE86D18EA3893F
:10259000D7001356870103C74701018BBA863287DC
:1025A000558F238AE70021A095472326F4FE832731
:1025B000C4FD83C70700ED9B13F7F70F8327C4FD06
:1025C0002380E7008327C4FE3E85B2502254456134
:1025D0008280797106D622D40018232EA4FC232CE5
:1025E000B4FC232AC4FC2328D4FC8327C4FDB337BE
:1025F000F00093F7F70F3E8713061016B96793851F
:1026000087C83A85EFF0AFA8832744FDB337F000C1
:1026100093F7F70F3E8713062016B967938587C88F
:102620003A85EFF0CFA6232604FE232404FE2322BE
:1026300004FE832784FD89E78D472326F4FEA9A1A4
:102640008327C4FD83C707008D8B93F7F70F91CBCA
:10265000832744FD032744FE98C399472326F4FEAD
:1026600021A30325C4FDEFF09F902322A4FE83271E
:1026700044FD9C43032744FE6379F702832744FD0E
:10268000032744FE98C39D472326F4FE832744FE78
:1026900089EF8327C4FD83C70700DD9B13F7F70F7E
:1026A0008327C4FD2380E700C1A18327C4FD83C71E
:1026B000070093E7870013F7F70F8327C4FD2380F4
:1026C000E7008327C4FD03C7570183C66701A2063D
:1026D000558F83C67701C206558F83C78701E207EE
:1026E000D98F3E868327C4FD03C7D70083C6E70082
:1026F000A206558F83C6F700C206558F83C7070110
:10270000E207D98FB307F6402324F4FE832744FD64
:102710009C43032784FE6366F7148327C4FD03C725
:10272000170083C62700A206558F83C63700C2064E
:10273000558F83C74700E207D98F05476384E706B3
:1027400089C70947638FE70A2DA68327C4FD03C7FE
:10275000570083C66700A206558F83C67700C2065E
:10276000558F83C78700E207D98F3E868327C4FD34
:1027700003C7D70083C6E700A206558F83C6F700BC
:10278000C206558F83C70701E207D98F3307F600CA
:10279000832744FD9C433E86BA85032584FDEF6074
:1027A000204AC1AC8327C4FD03C7570083C6670016
:1027B000A206558F83C67700C206558F83C7870050
:1027C000E207D98F3E868327C4FD03C7D70083C69F
:1027D000E700A206558F83C6F700C206558F83C750
:1027E0000701E207D98F86073307F600832744FDE8
:1027F0009C4386073E86BA85032584FDEF604044EE
:102800008DAC8327C4FD03C7570083C66700A206AB
:10281000558F83C67700C206558F83C78700E207AE
:10282000D98F3E868327C4FD03C7D70083C6E70040
:10283000A206558F83C6F700C206558F83C70701CE
:10284000E207D98F8A073307F600832744FD9C43AC
:102850008A073E86BA85032584FDEF60603E01004D
:1028600009AC8327C4FD03C7170083C62700A2064F
:10287000558F83C63700C206558F83C74700E207CE
:10288000D98F05476383E70A89C709476381E7143E
:10289000CDA28327C4FD03C7570083C66700A206E5
:1028A000558F83C67700C206558F83C78700E2071E
:1028B000D98F3E868327C4FD03C7D70083C6E700B0
:1028C000A206558F83C6F700C206558F83C707013E
:1028D000E207D98FB297032684FEBE85032584FDC7
:1028E000EF600036032784FD832784FE3305F7005D
:1028F0008327C4FD03C7570083C66700A206558F10
:1029000083C67700C206558F83C78700E207D98F39
:10291000BE86832744FD9843832784FEB307F74090
:102920003E86B685EF60C031A9A28327C4FD03C7E8
:10293000570083C66700A206558F83C67700C2067C
:10294000558F83C78700E207D98F3E868327C4FD52
:1029500003C7D70083C6E700A206558F83C6F700DA
:10296000C206558F83C70701E207D98F8607330751
:10297000F600832784FE86073E86BA85032584FDFC
:10298000EF60002C832784FE8607032784FD330530
:10299000F7008327C4FD03C7570083C66700A2065C
:1029A000558F83C67700C206558F83C78700E2071D
:1029B000D98FBE86832744FD9843832784FEB307BF
:1029C000F74086073E86B685EF6080275DA08327A7
:1029D000C4FD03C7570083C66700A206558F83C690
:1029E0007700C206558F83C78700E207D98F3E86DE
:1029F0008327C4FD03C7D70083C6E700A206558F0F
:102A000083C6F700C206558F83C70701E207D98F37
:102A10008A073307F600832784FE8A073E86BA8535
:102A2000032584FDEF60C021832784FE8A070327E6
:102A300084FD3305F7008327C4FD03C7570083C611
:102A40006700A206558F83C67700C206558F83C7DD
:102A50008700E207D98FBE86832744FD98438327EA
:102A600084FEB307F7408A073E86B685EF60401DB7
:102A700001008327C4FD83C70700DD9B13F7F70F11
:102A80008327C4FD2380E700832704FDF1EF83271C
:102A9000C4FD03C70700AD476316F7008947232627
:102AA000F4FED9A08327C4FD83C7070093E727005E
:102AB00013F7F70F8327C4FD2380E700832744FD26
:102AC0009C43BE850325C4FDEFF0AF8D8327C4FD75
:102AD00003C7170183C62701A206558F83C6370196
:102AE000C206558F83C74701E207D98F3E878327E8
:102AF00044FD9C433E978327C4FD9375F70F83C61F
:102B00001701818A3686AE86D18EA388D700935668
:102B1000870093F5F60F83C62701818A3686AE8635
:102B2000D18E2389D7009356070193F5F60F83C6FC
:102B30003701818A3686AE86D18EA389D700135697
:102B4000870103C74701018BBA863287558F238AD5
:102B5000E7008327C4FD83C70700F59B13F7F70F32
:102B60008327C4FD2380E7008327C4FE3E85B2503F
:102B7000225445618280411122C6000899679387DB
:102B8000870873900780010032444101828041111F
:102B900022C6000899677390078001003244410102
:102BA0008280011122CE00102326A4FE8327C4FEBA
:102BB000FD8B0547B316F70037E700E08327C4FE17
:102BC0009583938707048A07BA9794C301007244D8
:102BD00005618280011122CE00102326A4FE8327E6
:102BE000C4FEFD8B0547B316F70037E700E08327E7
:102BF000C4FE9583938707068A07BA9794C301009A
:102C0000724405618280011122CE00102326A4FEA9
:102C1000AE87A305F4FE37E700E08327C4FEBA972A
:102C20000347B4FE2380E7400100724405618280BF
:102C3000011106CE22CC00102326A4FE0325C4FEDB
:102C40008D370100F240624405618280011106CE99
:102C500022CC00102326A4FE0325C4FEA53F0100BC
:102C6000F240624405618280011106CE22CC001040
:102C70002326A4FEAE87A305F4FE8347B4FEBE85DB
:102C80000325C4FE49370100F24062440561828099
:102C9000011106CE22CC00102326A4FE8327C4FEF9
:102CA00099C783A701861387F7FF23A0E18683A72F
:102CB000018691E3C9350100F240624405618280DA
:102CC000411106C622C4000883A7018691E3C135DD
:102CD00083A701861387170023A0E18683A70186B7
:102CE0003E85B240224441018280411106C622C481
:102CF00000080145713F0100B24022444101828039
:102D0000357106CF16CD1ACB1EC922C72AC52EC3D0
:102D100032C1B6DEBADCBEDAC2D8C6D6F2D4F6D23A
:102D2000FAD0FECE82E686E48AE28EE012FE16FC3F
:102D30001AFA1EF82AF62EF432F236F03AEE3EEC8B
:102D400042EA46E872E676E47AE27EE00011930514
:102D50005052B747014013850780EF20800AAA87A9
:102D600089CB93055052B747014013850780EF2068
:102D700060190100FA40EA425A43CA433A442A45DC
:102D80009A450A46F6566657D6574658B658265EAE
:102D9000965E065FF64F3660A660166186617272B7
:102DA000E2725273C2733275A275127682767267BE
:102DB000E2675268C268326EA26E126F826F0D6156
:102DC00073002030357106CF16CD1ACB1EC922C72D
:102DD0002AC52EC332C1B6DEBADCBEDAC2D8C6D628
:102DE000F2D4F6D2FAD0FECE82E686E48AE28EE013
:102DF00012FE16FC1AFA1EF82AF62EF432F236F0FB
:102E00003AEE3EEC42EA46E872E676E47AE27EE0AA
:102E1000001193055052B747004013850740EF104B
:102E2000507EAA8789CB93055052B747004013853F
:102E30000740EF20200D0100FA40EA425A43CA43FE
:102E40003A442A459A450A46F6566657D657465892
:102E5000B658265E965E065FF64F3660A66016612F
:102E600086617272E2725273C2733275A275127603
:102E700082767267E2675268C268326EA26E126F23
:102E8000826F0D6173002030357106CF16CD1ACBDD
:102E90001EC922C72AC52EC332C1B6DEBADCBEDACD
:102EA000C2D8C6D6F2D4F6D2FAD0FECE82E686E4F6
:102EB0008AE28EE012FE16FC1AFA1EF82AF62EF4AA
:102EC00032F236F03AEE3EEC42EA46E872E676E45A
:102ED0007AE27EE0001193055052B7570040138507
:102EE0000780EF101072AA8799CBEF30800393050B
:102EF0005052B757004013850780EF20A000010013
:102F0000FA40EA425A43CA433A442A459A450A4695
:102F1000F6566657D6574658B658265E965E065FF2
:102F2000F64F3660A660166186617272E272527365
:102F3000C2733275A275127682767267E267526842
:102F4000C268326EA26E126F826F0D617300203004
:102F5000357106CF16CD1ACB1EC922C72AC52EC37E
:102F600032C1B6DEBADCBEDAC2D8C6D6F2D4F6D2E8
:102F7000FAD0FECE82E686E48AE28EE012FE16FCED
:102F80001AFA1EF82AF62EF432F236F03AEE3EEC39
:102F900042EA46E872E676E47AE27EE000119305C2
:102FA0005052B7570040138507C0EF109065AA87AD
:102FB00089CB93055052B7570040138507C0EF10D7
:102FC00070740100FA40EA425A43CA433A442A451F
:102FD0009A450A46F6566657D6574658B658265E5C
:102FE000965E065FF64F3660A66016618661727265
:102FF000E2725273C2733275A2751276827672676C
:10300000E2675268C268326EA26E126F826F0D6103
:1030100073002030357106CF16CD1ACB1EC922C7DA
:103020002AC52EC332C1B6DEBADCBEDAC2D8C6D6D5
:10303000F2D4F6D2FAD0FECE82E686E48AE28EE0C0
:1030400012FE16FC1AFA1EF82AF62EF432F236F0A8
:103050003AEE3EEC42EA46E872E676E47AE27EE058
:1030600000119305505237550040EF109059AA8730
:1030700081CFB707002083A7472982979305505235
:1030800037550040EF1010680100FA40EA425A43F9
:10309000CA433A442A459A450A46F6566657D657D1
:1030A0004658B658265E965E065FF64F3660A660B6
:1030B000166186617272E2725273C2733275A275C2
:1030C000127682767267E2675268C268326EA26ECA
:1030D000126F826F0D6173002030357106CF16CDEF
:1030E0001ACB1EC922C72AC52EC332C1B6DEBADC2E
:1030F000BEDAC2D8C6D6F2D4F6D2FAD0FECE82E676
:1031000086E48AE28EE012FE16FC1AFA1EF82AF60F
:103110002EF432F236F03AEE3EEC42EA46E872E63F
:1031200076E47AE27EE0001193055052B727004022
:1031300013850780EF10F04CAA8789CB9305505276
:10314000B727004013850780EF10D05B0100FA40DD
:10315000EA425A43CA433A442A459A450A46F65631
:103160006657D6574658B658265E965E065FF64FA7
:103170003660A660166186617272E2725273C27323
:103180003275A275127682767267E2675268C268FB
:10319000326EA26E126F826F0D6173002030357136
:1031A00006CF16CD1ACB1EC922C72AC52EC332C1DF
:1031B000B6DEBADCBEDAC2D8C6D6F2D4F6D2FAD0BF
:1031C000FECE82E686E48AE28EE012FE16FC1AFA51
:1031D0001EF82AF62EF432F236F03AEE3EEC42EACF
:1031E00046E872E676E47AE27EE0001193055052FA
:1031F000B7270040138507C0EF10B040AA8781CFE2
:1032000083A7C180829793055052B727004013854A
:1032100007C0EF10304F0100FA40EA425A43CA4358
:103220003A442A459A450A46F6566657D6574658AE
:10323000B658265E965E065FF64F3660A66016614B
:1032400086617272E2725273C2733275A27512761F
:1032500082767267E2675268C268326EA26E126F3F
:10326000826F0D6173002030357106CF16CD1ACBF9
:103270001EC922C72AC52EC332C1B6DEBADCBEDAE9
:10328000C2D8C6D6F2D4F6D2FAD0FECE82E686E412
:103290008AE28EE012FE16FC1AFA1EF82AF62EF4C6
:1032A00032F236F03AEE3EEC42EA46E872E676E476
:1032B0007AE27EE000119305505237250040EF106E
:1032C0005034AA8789CBEFD09FBA93055052372547
:1032D0000040EF1030430100FA40EA425A43CA432B
:1032E0003A442A459A450A46F6566657D6574658EE
:1032F000B658265E965E065FF64F3660A66016618B
:1033000086617272E2725273C2733275A27512765E
:1033100082767267E2675268C268326EA26E126F7E
:10332000826F0D6173002030357106CF16CD1ACB38
:103330001EC922C72AC52EC332C1B6DEBADCBEDA28
:10334000C2D8C6D6F2D4F6D2FAD0FECE82E686E451
:103350008AE28EE012FE16FC1AFA1EF82AF62EF405
:1033600032F236F03AEE3EEC42EA46E872E676E4B5
:103370007AE27EE00011B707055083C7070193F793
:10338000F70F918B8DC383A781808297B707055074
:1033900083C7070113F7F70FB70705506D9B137726
:1033A000F70F2388E7000100FA40EA425A43CA4374
:1033B0003A442A459A450A46F6566657D65746581D
:1033C000B658265E965E065FF64F3660A6601661BA
:1033D00086617272E2725273C2733275A27512768E
:1033E00082767267E2675268C268326EA26E126FAE
:1033F000826F0D6173002030357106CF16CD1ACB68
:103400001EC922C72AC52EC332C1B6DEBADCBEDA57
:10341000C2D8C6D6F2D4F6D2FAD0FECE82E686E480
:103420008AE28EE012FE16FC1AFA1EF82AF62EF434
:1034300032F236F03AEE3EEC42EA46E872E676E4E4
:103440007AE27EE000110545EF0070722A87854719
:103450006315F7000545EF00F0760100FA40EA42F7
:103460005A43CA433A442A459A450A46F65666578D
:10347000D6574658B658265E965E065FF64F3660BB
:10348000A660166186617272E2725273C2733275FF
:10349000A275127682767267E2675268C268326EEF
:1034A000A26E126F826F0D6173002030357106CFEE
:1034B00016CD1ACB1EC922C72AC52EC332C1B6DE0D
:1034C000BADCBEDAC2D8C6D6F2D4F6D2FAD0FECE74
:1034D00082E686E48AE28EE012FE16FC1AFA1EF8F4
:1034E0002AF62EF432F236F03AEE3EEC42EA46E8A4
:1034F00072E676E47AE27EE000110945EF0030677B
:103500002A8785476315F7000945EF00B06B010076
:10351000FA40EA425A43CA433A442A459A450A467F
:10352000F6566657D6574658B658265E965E065FDC
:10353000F64F3660A660166186617272E27252734F
:10354000C2733275A275127682767267E26752682C
:10355000C268326EA26E126F826F0D6173002030EE
:10356000357106CF16CD1ACB1EC922C72AC52EC368
:1035700032C1B6DEBADCBEDAC2D8C6D6F2D4F6D2D2
:10358000FAD0FECE82E686E48AE28EE012FE16FCD7
:103590001AFA1EF82AF62EF432F236F03AEE3EEC23
:1035A00042EA46E872E676E47AE27EE000111145EE
:1035B000EF00F05B2A8785476315F7001145EF00A0
:1035C00070600100FA40EA425A43CA433A442A452D
:1035D0009A450A46F6566657D6574658B658265E56
:1035E000965E065FF64F3660A6601661866172725F
:1035F000E2725273C2733275A27512768276726766
:10360000E2675268C268326EA26E126F826F0D61FD
:1036100073002030357106CF16CD1ACB1EC922C7D4
:103620002AC52EC332C1B6DEBADCBEDAC2D8C6D6CF
:10363000F2D4F6D2FAD0FECE82E686E48AE28EE0BA
:1036400012FE16FC1AFA1EF82AF62EF432F236F0A2
:103650003AEE3EEC42EA46E872E676E47AE27EE052
:1036600000112145EF00B0502A8785476315F70008
:103670002145EF0030550100FA40EA425A43CA435F
:103680003A442A459A450A46F6566657D65746584A
:10369000B658265E965E065FF64F3660A6601661E7
:1036A00086617272E2725273C2733275A2751276BB
:1036B00082767267E2675268C268326EA26E126FDB
:1036C000826F0D6173002030357106CF16CD1ACB95
:1036D0001EC922C72AC52EC332C1B6DEBADCBEDA85
:1036E000C2D8C6D6F2D4F6D2FAD0FECE82E686E4AE
:1036F0008AE28EE012FE16FC1AFA1EF82AF62EF462
:1037000032F236F03AEE3EEC42EA46E872E676E411
:103710007AE27EE000114145EF0070452A87854737
:103720006315F7004145EF00F0490100FA40EA4215
:103730005A43CA433A442A459A450A46F6566657BA
:10374000D6574658B658265E965E065FF64F3660E8
:10375000A660166186617272E2725273C27332752C
:10376000A275127682767267E2675268C268326E1C
:10377000A26E126F826F0D6173002030357106CF1B
:1037800016CD1ACB1EC922C72AC52EC332C1B6DE3A
:10379000BADCBEDAC2D8C6D6F2D4F6D2FAD0FECEA1
:1037A00082E686E48AE28EE012FE16FC1AFA1EF821
:1037B0002AF62EF432F236F03AEE3EEC42EA46E8D1
:1037C00072E676E47AE27EE0001113050002EF0073
:1037D000103A2A8785476316F70013050002EF00A9
:1037E000703E13050004EF0090382A878547631662
:1037F000F70013050004EF00F03C13050008EF008C
:1038000010372A8785476316F70013050008EF0075
:10381000703B13050010EF0090352A87854763162B
:10382000F70013050010EF00F03913050020EF003A
:1038300010342A8785476316F70013050020EF0030
:1038400070380100FA40EA425A43CA433A442A45D2
:103850009A450A46F6566657D6574658B658265ED3
:10386000965E065FF64F3660A660166186617272DC
:10387000E2725273C2733275A275127682767267E3
:10388000E2675268C268326EA26E126F826F0D617B
:1038900073002030357106CF16CD1ACB1EC922C752
:1038A0002AC52EC332C1B6DEBADCBEDAC2D8C6D64D
:1038B000F2D4F6D2FAD0FECE82E686E48AE28EE038
:1038C00012FE16FC1AFA1EF82AF62EF432F236F020
:1038D0003AEE3EEC42EA46E872E676E47AE27EE0D0
:1038E000001113050040EF0090282A8785476316D2
:1038F000F70013050040EF00F02C85671385078063
:10390000EF00F0262A8785476317F7008567138540
:103910000780EF00302B0565EF0070252A8785476B
:103920006315F7000565EF00F0290965EF00302405
:103930002A8785476318F70083A701818297096565
:10394000EF0050281165EF0090222A878547631702
:10395000F700EFD0AFCE1165EF00D0262165EF0064
:1039600010212A8785476317F700EFD0CFBD216567
:10397000EF0050250100FA40EA425A43CA433A4454
:103980002A459A450A46F6566657D6574658B658B7
:10399000265E965E065FF64F3660A660166186610B
:1039A0007272E2725273C2733275A27512768276A7
:1039B0007267E2675268C268326EA26E126F826FDF
:1039C0000D6173002030357106CF16CD1ACB1EC99C
:1039D00022C72AC52EC332C1B6DEBADCBEDAC2D8CF
:1039E000C6D6F2D4F6D2FAD0FECE82E686E48AE2D9
:1039F0008EE012FE16FC1AFA1EF82AF62EF432F2A7
:103A000036F03AEE3EEC42EA46E872E676E47AE2D6
:103A10007EE000118545B7370140138507C0EF00F0
:103A2000B077AA8781CB8545B7370140138507C09A
:103A3000EF00907D0100FA40EA425A43CA433A44FB
:103A40002A459A450A46F6566657D6574658B658F6
:103A5000265E965E065FF64F3660A660166186614A
:103A60007272E2725273C2733275A27512768276E6
:103A70007267E2675268C268326EA26E126F826F1E
:103A80000D6173002030357106CF16CD1ACB1EC9DB
:103A900022C72AC52EC332C1B6DEBADCBEDAC2D80E
:103AA000C6D6F2D4F6D2FAD0FECE82E686E48AE218
:103AB0008EE012FE16FC1AFA1EF82AF62EF432F2E6
:103AC00036F03AEE3EEC42EA46E872E676E47AE216
:103AD0007EE00011854537050040EF00F06BAA87B6
:103AE00091C7854537050040EF0010720100FA408C
:103AF000EA425A43CA433A442A459A450A46F65688
:103B00006657D6574658B658265E965E065FF64FFD
:103B10003660A660166186617272E2725273C27379
:103B20003275A275127682767267E2675268C26851
:103B3000326EA26E126F826F0D617300203035718C
:103B400006CF16CD1ACB1EC922C72AC52EC332C135
:103B5000B6DEBADCBEDAC2D8C6D6F2D4F6D2FAD015
:103B6000FECE82E686E48AE28EE012FE16FC1AFAA7
:103B70001EF82AF62EF432F236F03AEE3EEC42EA25
:103B800046E872E676E47AE27EE000118545B70702
:103B9000004013850740EF003060AA8781CB854540
:103BA000B707004013850740EF0010660100FA4098
:103BB000EA425A43CA433A442A459A450A46F656C7
:103BC0006657D6574658B658265E965E065FF64F3D
:103BD0003660A660166186617272E2725273C273B9
:103BE0003275A275127682767267E2675268C26891
:103BF000326EA26E126F826F0D61730020303571CC
:103C000006CF16CD1ACB1EC922C72AC52EC332C174
:103C1000B6DEBADCBEDAC2D8C6D6F2D4F6D2FAD054
:103C2000FECE82E686E48AE28EE012FE16FC1AFAE6
:103C30001EF82AF62EF432F236F03AEE3EEC42EA64
:103C400046E872E676E47AE27EE000118545B71731
:103C5000004013850780EF003054AA8781CB85454B
:103C6000B717004013850780EF00105A0100FA4093
:103C7000EA425A43CA433A442A459A450A46F65606
:103C80006657D6574658B658265E965E065FF64F7C
:103C90003660A660166186617272E2725273C273F8
:103CA0003275A275127682767267E2675268C268D0
:103CB000326EA26E126F826F0D617300203035710B
:103CC00006CF16CD1ACB1EC922C72AC52EC332C1B4
:103CD000B6DEBADCBEDAC2D8C6D6F2D4F6D2FAD094
:103CE000FECE82E686E48AE28EE012FE16FC1AFA26
:103CF0001EF82AF62EF432F236F03AEE3EEC42EAA4
:103D000046E872E676E47AE27EE000118545B71770
:103D10000040138507C0EF003048AA8781CB854556
:103D2000B7170040138507C0EF00104E0100FA409E
:103D3000EA425A43CA433A442A459A450A46F65645
:103D40006657D6574658B658265E965E065FF64FBB
:103D50003660A660166186617272E2725273C27337
:103D60003275A275127682767267E2675268C2680F
:103D7000326EA26E126F826F0D617300203035714A
:103D800006CF16CD1ACB1EC922C72AC52EC332C1F3
:103D9000B6DEBADCBEDAC2D8C6D6F2D4F6D2FAD0D3
:103DA000FECE82E686E48AE28EE012FE16FC1AFA65
:103DB0001EF82AF62EF432F236F03AEE3EEC42EAE3
:103DC00046E872E676E47AE27EE000118545371532
:103DD0000040EF00703CAA8791C785453715004029
:103DE000EF0090420100FA40EA425A43CA433A4483
:103DF0002A459A450A46F6566657D6574658B65843
:103E0000265E965E065FF64F3660A6601661866196
:103E10007272E2725273C2733275A2751276827632
:103E20007267E2675268C268326EA26E126F826F6A
:103E30000D6173002030357106CF16CD1ACB1EC927
:103E400022C72AC52EC332C1B6DEBADCBEDAC2D85A
:103E5000C6D6F2D4F6D2FAD0FECE82E686E48AE264
:103E60008EE012FE16FC1AFA1EF82AF62EF432F232
:103E700036F03AEE3EEC42EA46E872E676E47AE262
:103E80007EE000118545B717004013850740EF001D
:103E9000B030AA8781CB8545B7170040138507400E
:103EA000EF0090360100FA40EA425A43CA433A44CE
:103EB0002A459A450A46F6566657D6574658B65882
:103EC000265E965E065FF64F3660A66016618661D6
:103ED0007272E2725273C2733275A2751276827672
:103EE0007267E2675268C268326EA26E126F826FAA
:103EF0000D6173002030357106CF16CD1ACB1EC967
:103F000022C72AC52EC332C1B6DEBADCBEDAC2D899
:103F1000C6D6F2D4F6D2FAD0FECE82E686E48AE2A3
:103F20008EE012FE16FC1AFA1EF82AF62EF432F271
:103F300036F03AEE3EEC42EA46E872E676E47AE2A1
:103F40007EE000118545B737014013850740EF003B
:103F5000B024AA8781CB8545B73701401385074038
:103F6000EF00902A0100FA40EA425A43CA433A4419
:103F70002A459A450A46F6566657D6574658B658C1
:103F8000265E965E065FF64F3660A6601661866115
:103F90007272E2725273C2733275A27512768276B1
:103FA0007267E2675268C268326EA26E126F826FE9
:103FB0000D6173002030357106CF16CD1ACB1EC9A6
:103FC00022C72AC52EC332C1B6DEBADCBEDAC2D8D9
:103FD000C6D6F2D4F6D2FAD0FECE82E686E48AE2E3
:103FE0008EE012FE16FC1AFA1EF82AF62EF432F2B1
:103FF00036F03AEE3EEC42EA46E872E676E47AE2E1
:104000007EE000118545B7570140138507C0EF00DA
:10401000B018AA8781CB8545B7570140138507C0E3
:10402000EF00901E0100FA40EA425A43CA433A4464
:104030002A459A450A46F6566657D6574658B65800
:10404000265E965E065FF64F3660A6601661866154
:104050007272E2725273C2733275A27512768276F0
:104060007267E2675268C268326EA26E126F826F28
:104070000D6173002030357106CF16CD1ACB1EC9E5
:1040800022C72AC52EC332C1B6DEBADCBEDAC2D818
:10409000C6D6F2D4F6D2FAD0FECE82E686E48AE222
:1040A0008EE012FE16FC1AFA1EF82AF62EF432F2F0
:1040B00036F03AEE3EEC42EA46E872E676E47AE220
:1040C0007EE00011854537550140EF00F00CAA87CE
:1040D00091C7854537550140EF0010130100FA40A4
:1040E000EA425A43CA433A442A459A450A46F65692
:1040F0006657D6574658B658265E965E065FF64F08
:104100003660A660166186617272E2725273C27383
:104110003275A275127682767267E2675268C2685B
:10412000326EA26E126F826F0D61730020304111EA
:1041300022C60008010032444101730020304111C1
:1041400022C6000801A0011106CE22CC0010B7172C
:104150002707138507E0EFD06F8DEFD0FF878967C2
:104160009386B70289671386A702F16793850720B4
:104170000945EFC0EFE285450945EFC04FD48545BD
:1041800013057003EFE05FAEB967138587CEEF10BC
:10419000305483C7C18893F7F70FE5DF2386018882
:1041A000938541A7B967138587CFEF1070522326F7
:1041B00004FE1DA0138741A78327C4FEBA9783C7B7
:1041C0000700BE85B967138587D0EF10705083272D
:1041D000C4FE85072326F4FE0327C4FEA547E3DBC0
:1041E000E7FCB967138507D1EF10904E8945B707F3
:1041F000002013854705EF10703B87A78186538504
:10420000F720EF40A05AAA872E883E86C286B9675B
:10421000138547D1EF10D04B83974186BE85B96790
:10422000138547D2EF10D04AADB701A001A001A07D
:1042300001A001A001A001A001A001A001A001A076
:1042400001A001A001A001A001A001A001A001A066
:1042500001A001A001A001A001A001A001A001A056
:1042600001A001A001A001A001A001A001A001A046
:1042700001A001A001A001A001A001A001A001A036
:1042800001A001A001A001A001A001A001A001A026
:1042900001A001A001A001A001A001A001A001A016
:1042A00001A001A001A001A001A001A001A001A006
:1042B00001A001A001A001A001A001A001A001A0F6
:1042C00001A001A001A001A001A001A001A001A0E6
:1042D00001A001A001A001A001A001A001A001A0D6
:1042E00001A001A001A001A097C1FF1F9381817AC5
:1042F00017C100201301019517A500001305051D26
:1043000097C5FF1F938505D41386018463FAC50002
:104310008322050023A0550011059105E3EAC5FE9F
:1043200013850184938541A86377B5002320050098
:104330001105E36DB5FEFD42739002BCFD42739022
:104340004280B76200009382820873A0023097C255
:10435000FFFF9382A2CE93E2320073905230970215
:104360000000938282DE73901234730020307971E2
:1043700022D60018232EA4FC232604FE232404FEA8
:10438000B7070140938707409C430327C4FDF98F7B
:104390002324F4FEB707014093870740D84B8327B7
:1043A000C4FDF98F81CB832784FE89C785472326E7
:1043B000F4FE19A0232604FE8327C4FE3E85325452
:1043C00045618280011122CE00102326A4FEB7078A
:1043D0000140938707400327C4FED8CB01007244F5
:1043E00005618280397122DE80002326A4FC23240B
:1043F000B4FC232604FE232004FE232404FE232EE3
:1044000004FC232204FE232C04FC832784FC9C4709
:10441000BD8B2326F4FE832784FC9C47C18B89CB6C
:10442000832784FCDC430327C4FED98F2326F4FEB4
:10443000832784FC83D7070093F7F70FF1CF8327F7
:10444000C4FC9C432322F4FE232404FE65A8832796
:1044500084FE0547B317F700232EF4FC832784FC62
:1044600083D707003E878327C4FDF98F2320F4FEFE
:10447000032704FE8327C4FD6311F708832784FE06
:104480008A07232EF4FC8327C4FD3D47B317F700AA
:10449000232CF4FC832784FD93C7F7FF032744FEF6
:1044A000F98F2322F4FE8327C4FD0327C4FEB3172C
:1044B000F700032744FED98F2322F4FE832784FCD0
:1044C000984793078002631BF700832784FE054704
:1044D0003317F7008327C4FCD8CB05A0832784FCBF
:1044E000984793078004631AF700832784FE0547E3
:1044F0003317F7008327C4FC98CB832784FE8507F6
:104500002324F4FE032784FE9D47E3F2E7F4832788
:10451000C4FC032744FE98C3832784FC03D7070009
:104520009307F00F63F1E70E8327C4FCDC432322DB
:10453000F4FE232404FE75A8832784FEA107054703
:10454000B317F700232EF4FC832784FC83D70700DE
:104550003E878327C4FDF98F2320F4FE032704FE42
:104560008327C4FD6312F708832784FE8A07232E5E
:10457000F4FC8327C4FD3D47B317F700232CF4FC5C
:10458000832784FD93C7F7FF032744FEF98F232277
:10459000F4FE8327C4FD0327C4FEB317F7000327E7
:1045A00044FED98F2322F4FE832784FC9847930787
:1045B0008002631BF700832784FEA107054733179A
:1045C000F7008327C4FCD8CB832784FC9847930744
:1045D0008004631BF700832784FEA1070547331778
:1045E000F7008327C4FC98CB832784FE8507232408
:1045F000F4FE032784FE9D47E3F0E7F48327C4FC21
:10460000032744FED8C30100725421618280011146
:1046100022CE00102326A4FEAE872322C4FE23153B
:10462000F4FE832744FE99C70357A4FE8327C4FEE4
:1046300098CB31A00357A4FE8327C4FED8CB01003A
:10464000724405618280397122DE80002326A4FC39
:10465000232204FE232604FE232004FE232E04FC32
:10466000232404FEB7170240DC43B18B2322F4FE5F
:10467000032744FE91476303F702032744FEA14743
:104680006306F702832744FE639907148327C4FC5B
:1046900037177A001307072098C389AA8327C4FC19
:1046A00037177A001307072098C389A2B71702406B
:1046B000D843B7073C00F98F2326F4FEB717024012
:1046C000D843C167F98F2320F4FE8327C4FEC98332
:1046D00089072326F4FEB7F7FF1F9387C770984317
:1046E0009167F98F91EB0327C4FEC5476319F7045F
:1046F000C9472326F4FEA1A00327C4FE89476315FA
:10470000F700C9472326F4FE0327C4FEBD476318FC
:10471000F700B5472326F4FE85472324F4FE03273C
:10472000C4FEC1476315F700BD472326F4FE0327E7
:10473000C4FEC5476315F700C1472326F4FE83274F
:1047400004FEA1E3B7470240938707809C43C18BD7
:1047500089CF0327C4FEB7177A0093870720330752
:10476000F7028327C4FC98C399A80327C4FEB71790
:104770003D00938707903307F7028327C4FC98C353
:104780003DA8B7170240D843B7070200F98F89CF79
:104790000327C4FEB7173D00938707903307F7023E
:1047A0008327C4FC98C321A80327C4FEB7177A0047
:1047B000938707203307F7028327C4FC98C3032796
:1047C00084FE85476313F7028327C4FC9C4313D7F9
:1047D00017008327C4FC98C309A88327C4FC371794
:1047E0007A001307072098C311A00100B7170240F1
:1047F000DC4393F7070F2322F4FE832744FE9183C3
:104800002322F4FEB70700201387C706832744FE40
:10481000BA9783C7070093F7F70F232EF4FC83277B
:10482000C4FC98438327C4FD3357F7008327C4FC97
:10483000D8C3B7170240DC4393F707702322F4FE76
:10484000832744FEA1832322F4FEB70700201387A9
:10485000C706832744FEBA9783C7070093F7F70F6D
:10486000232EF4FC8327C4FCD8438327C4FD33578D
:10487000F7008327C4FC98C7B7170240D843916755
:1048800093870780F98F2322F4FE832744FEAD83AC
:104890002322F4FEB70700201387C706832744FEB0
:1048A000BA9783C7070093F7F70F232EF4FC8327EB
:1048B000C4FCD8438327C4FD3357F7008327C4FCC7
:1048C000D8C7B7170240D843B167F98F2322F4FE47
:1048D000832744FEB9832322F4FE1387C1818327F3
:1048E00044FEBA9783C7070093F7F70F232EF4FC13
:1048F0008327C4FCD8478327C4FD3357F702832797
:10490000C4FC98CB0100725421618280011122CE37
:1049100000102326A4FE2324B4FE832784FE99CB13
:10492000B7170240944FB71702400327C4FE558FB4
:1049300098CF21A8B7170240944F8327C4FE13C70E
:10494000F7FFB7170240758F98CF010072440561D9
:104950008280011122CE00102326A4FE2324B4FE5F
:10496000832784FE99CBB7170240D44FB717024074
:104970000327C4FE558FD8CF21A8B7170240D44FC4
:104980008327C4FE13C7F7FFB7170240758FD8CF30
:104990000100724405618280797122D60018232EAD
:1049A000A4FCAE87231DF4FC232604FE231504FE7D
:1049B000231404FE8327C4FD83D70701139707013F
:1049C00041838357A4FDF98F2315F4FE8327C4FD8B
:1049D00083D7C7001397070141838357A4FDF98F3D
:1049E0002314F4FE8357A4FE81CB835784FE89C72A
:1049F00085472326F4FE19A0232604FE8327C4FE40
:104A00003E85325445618280011122CE001023265A
:104A1000A4FEAE872315F4FE8357A4FE93C7F7FFC9
:104A20001397070141838327C4FE2398E700010001
:104A30007244056182805D7186C6A2C48008232EFF
:104A4000A4FA232CB4FA232604FE232404FE2322F2
:104A500004FE232004FE232E04FC8327C4FB232E04
:104A6000F4FC8327C4FB83D70701C207C183232635
:104A7000F4FE0327C4FEB567FD17F98F2326F4FE65
:104A8000832784FB83D767003E878327C4FED98FA3
:104A90002326F4FE8327C4FE13970701418383274F
:104AA000C4FB2398E7008327C4FB83D7C700C20752
:104AB000C1832326F4FE0327C4FEBD679387379F77
:104AC000F98F2326F4FE832784FB03D7470083272F
:104AD00084FB83D78700D98F1397070141838327EE
:104AE00084FB83D7A700D98FC207C1833E87832762
:104AF000C4FED98F2326F4FE8327C4FE1397070133
:104B000041838327C4FB2396E7008327C4FB83D715
:104B10004701C207C1832326F4FE0327C4FEC167F1
:104B20009387F7CFF98F2326F4FE832784FB83D75F
:104B3000C7003E878327C4FED98F2326F4FE832730
:104B4000C4FE1397070141838327C4FB239AE70020
:104B5000930784FC3E85EFF01FAF0327C4FDB747E2
:104B60000140938707806317F700832744FD2324C0
:104B7000F4FE29A0832704FD2324F4FE8327C4FB2D
:104B800083D7C700C207C183C207C18763D20702A8
:104B9000032784FEBA878607BA978E073E97832736
:104BA00084FB9C438607B357F7022322F4FE05A03B
:104BB000032784FEBA878607BA978E073E97832716
:104BC00084FB9C438A07B357F7022322F4FE032792
:104BD00044FE93074006B357F70292072326F4FEDC
:104BE0008327C4FE13D7470093074006B307F70295
:104BF000032744FEB307F7402320F4FE8327C4FBBA
:104C000083D7C700C207C183C207C18763D2070227
:104C1000832704FE8E071387270393074006B357A5
:104C2000F7029D8B0327C4FED98F2326F4FE05A02F
:104C3000832704FE92071387270393074006B35781
:104C4000F702BD8B0327C4FED98F2326F4FE8327EA
:104C5000C4FE1397070141838327C4FB2394E70015
:104C60000100B640264461618280011122CE00100D
:104C70002326A4FE2324B4FE832784FE95C3832722
:104C8000C4FE83D7C7001397070141838967D98F73
:104C90001397070141838327C4FE2396E70015A0DD
:104CA0008327C4FE83D7C700139707014183F97791
:104CB000FD17F98F1397070141838327C4FE2396BD
:104CC000E7000100724405618280797122D60018E4
:104CD000232EA4FCAE87232AC4FC231DF4FC23242A
:104CE00004FE232204FE232004FE232604FE832741
:104CF000C4FD2326F4FE8357A4FD93F7F70F958395
:104D000093F7F70F2324F4FE8357A4FDFD8B232292
:104D1000F4FE832744FE0547B317F7002320F4FE73
:104D2000032784FE85476318F7008327C4FEB10775
:104D30002326F4FE0DA0032784FE89476318F7009D
:104D40008327C4FEC1072326F4FE31A08327C4FEB7
:104D5000D1072326F4FE832744FD99CB8327C4FE85
:104D600094438327C4FE032704FE558F98C321A8CC
:104D70008327C4FE9443832704FE13C7F7FF8327CA
:104D8000C4FE758F98C301003254456182800111C1
:104D900022CE00102326A4FEAE872315F4FE8357EF
:104DA000A4FE93F7F71F1397070141838327C4FEDF
:104DB0002392E7000100724405618280797122D656
:104DC0000018232EA4FCAE87231DF4FC232604FE2A
:104DD0008327C4FD83D707001397070141838357B7
:104DE000A4FDF98FC207C18389C785472326F4FE36
:104DF00019A0232604FE8327C4FE3E853254456154
:104E00008280797122D60018232EA4FCAE87231D40
:104E1000F4FC232204FE232604FE232004FE232484
:104E200004FE8357A4FD93F7F70F958393F7F70FCD
:104E30002320F4FE8357A4FDFD8B2326F4FE832755
:104E4000C4FE0547B317F7002326F4FE032704FE2C
:104E50008547631FF7008327C4FD83D7C700C207B8
:104E6000C1833E878327C4FEF98F2326F4FE3DA825
:104E7000032704FE8947631FF7008327C4FD83D7F8
:104E80000701C207C1833E878327C4FEF98F23260B
:104E9000F4FE29A88327C4FD83D74701C207C18335
:104EA0003E878327C4FEF98F2326F4FE8357A4FD93
:104EB000A183C207C1832322F4FE832744FE054752
:104EC000B317F7002322F4FE8327C4FD83D707001E
:104ED000C207C1833E87832744FEF98F2322F4FE55
:104EE0008327C4FE81CB832744FE89C785472324BB
:104EF000F4FE19A0232404FE832784FE3E85325449
:104F000045618280797122D60018232EA4FCAE87D9
:104F1000231DF4FC231704FE231604FE8357A4FD6F
:104F2000A1832317F4FE8357E4FE0547B317F70068
:104F30002316F4FE8357C4FE93C7F7FF13970701A8
:104F400041838327C4FD2390E7000100325445616B
:104F50008280011122CE0010AA87A307F4FEB707B2
:104F600000500347F4FE42074183239AE702B70744
:104F7000005083C7670313F7F70FB7070050719B03
:104F80001377F70F238BE7020100724405618280DB
:104F9000011122CE0010AA87A307F4FEB707005024
:104FA0000347F4FE42074183239CE702B707005002
:104FB00083C7A70313F7F70FB7070050719B137749
:104FC000F70F238DE7020100724405618280797139
:104FD00006D622D40018AA87A30FF4FCA30704FE68
:104FE00015A803A781878347F4FEBA9703C7070074
:104FF00083A681878347F4FE93870704B6971347F8
:10500000F7FF1377F70F2380E7008347F4FE850748
:10501000A307F4FE0347F4FE8347F4FDE363F7FCC4
:105020008347F4FD3E8535370100B2502254456177
:105030008280797106D622D40018AA87A30FF4FCC7
:10504000A30704FE15A803A7C1878347F4FEBA97F8
:1050500003C7070083A6C1878347F4FE938707042D
:10506000B6971347F7FF1377F70F2380E7008347BF
:10507000F4FE8507A307F4FE0347F4FE8347F4FD1F
:10508000E363F7FC8347F4FD3E8519370100B25016
:10509000225445618280717106D716D51AD31ED16C
:1050A00022CF2ACD2ECB32C936C73AC53EC342C124
:1050B000C6DEF2DCF6DAFAD8FED682EE86EC8AEAB2
:1050C0008EE892E696E49AE29EE02AFE2EFC32FA00
:1050D00036F83AF63EF442F246F072EE76EC7AEAB0
:1050E0007EE80019230F04F4B707005083C7670058
:1050F000A30EF4F48347D4F5898BE38A073CB70702
:10510000005083C7770093F7F70F93F707034147E2
:10511000E384E73A41476346F700E38E07206F00D8
:10512000F03913070002E386E70413070003E3974F
:10513000E738B707005019472389E702B70700503F
:105140001147A389E70283A7418703C7670083C785
:105150007700A207D98F1397070141832395E18830
:1051600083A7418703C717002384E18883A741876A
:1051700083C70700230EF4F4A30F04F4230F04F4F1
:1051800083A7418783C7070093F70706638B07123E
:1051900083C7818893F7F70F93F70702D5C383C7B7
:1051A000818893F7F70F13071002638BE70013074B
:1051B00020026389E708130700026387E708ADA8A8
:1051C0001387418223A0E1889D47A30FF4F483D77E
:1051D000A1881397070141839D4763E9E70083D7BF
:1051E000A188C207C18393F7F70F11A0A147A30FAE
:1051F000F4F403A7418783A701888346F4F5368634
:10520000BE853A85EF30D02383D7A1881397070155
:1052100041838347F4F5C207C183B307F74013976F
:10522000070141832395E18803A701888347F4F5AB
:105230003E9723A0E18811A8FD57230FF4F431A075
:10524000010021A0010011A001000347E4F593072C
:10525000F00F6303F7688347F4F513970701418361
:1052600083D7A188C207C1836379F7008347F4F528
:105270001397070141832395E18883D741881397CA
:10528000070141839D4763E9E70083D74188C2074F
:10529000C18393F7F70F11A0A147A30FF4F483A7DD
:1052A00001880347F4F53A86BE851385C186EF3041
:1052B000301903A701888347F4F53E9723A0E188BE
:1052C00021AD83C7818893F7F70F2D47636BF75E96
:1052D00013972700B9679387C7ECBA979C438287D7
:1052E00083A7418703C7270083C73700A207D98F49
:1052F000C207C183A183C207C1831307200263656C
:10530000F71213972700B9679387C7EFBA979C43A3
:1053100082873967130707E223A0E188C947A30FF3
:10532000F4F439A23967130747E323A0E188930710
:105330003004A30FF4F4EDA883A7418703C7270027
:1053400083C73700A207D98FC207C18393F7F70F2E
:1053500005476386E70205476344F70089CB99A8B0
:1053600009476387E7020D47638DE702A1A0138712
:10537000818323A0E1889147A30FF4F481A03967CA
:105380001307C7E823A0E188B947A30FF4F43DA0B1
:1053900039671307C7E923A0E188B147A30FF4F4E5
:1053A00031A83967130787EA23A0E188D947A30FFB
:1053B000F4F429A0FD57230FF4F4010095A83967F0
:1053C000130787E723A0E188D147A30FF4F48DA04A
:1053D0003967130707EC23A0E188A947A30FF4F46A
:1053E00081A883C7018293F7F70F9DE71306100486
:1053F000B967938567E3B70700201385E707EF30A8
:105400003004370700201307C70723A0E18893075C
:105410003004A30FF4F429A8FD57230FF4F409A8CE
:10542000FD57230FF4F429A0FD57230FF4F40100D6
:105430008347F4F513970701418383D7A188C207F7
:10544000C1836379F7008347F4F51397070141831C
:105450002395E18883D7A1881397070141839D474E
:1054600063E9E70083D7A188C207C18393F7F70FE9
:1054700011A0A147A30FF4F403A7418783A70188D4
:105480008346F4F53686BE853A85EF30607B03A708
:1054900001888347F4F53E9723A0E18835A983A7C7
:1054A000418703C7270083C73700A207D98FC207E8
:1054B000C18393F7F70F1397070141832395E18881
:1054C00021A983A7418703C771881377F70F23802A
:1054D000E70083D7A188139707014183854763F6C7
:1054E000E73E05472395E188CDA683A7418703C7FB
:1054F000270083C73700A207D98FC207C18313F7DC
:10550000F70FA383E188C9AE83A7418783C707004C
:1055100013F7F7018947631FF70C83A7418703C778
:10552000470083C75700A207D98FC207C18393F7EB
:10553000F70F09476388E70409476346F700054703
:105540006387E7085DA013071008638BE704130760
:105550002008639CE708B707005083C7A70393F7A9
:10556000F70FE207E187E19BE207E18793E7270076
:10557000139787016187B70700501377F70F238DC3
:10558000E702ADA8B707005083C7B70313F7F70FBB
:10559000B7070050619B1377F70FA38DE702B9A8F7
:1055A000B707005083C7670393F7F70FE207E18758
:1055B000E19BE207E18793E7270013978701618763
:1055C000B70700501377F70F238BE70205A8B7073B
:1055D000005083C7770313F7F70FB7070050619B9D
:1055E0001377F70FA38BE70211A8FD57230FF4F4ED
:1055F000010029A0FD57230FF4F4F9ACF1AC938717
:10560000C18683C70700FD8BA1E39387C18603C7CB
:10561000270083C73700A207D98F1397070141835B
:105620008547631FF7009307000A93F7070289C7AE
:1056300005472383E1884DA4FD57230FF4F469AC9B
:10564000FD57230FF4F449AC9387C18683C7070045
:1056500013F7F7018947631CF7109387C18603C7C7
:10566000270083C73700A207D98FC207C183E5EFA0
:105670009387C18603C7470083C75700A207D98F06
:10568000C207C18393F7F70F09476387E704094708
:105690006346F7000547638DE708C9A013071008A4
:1056A0006382E70613072008639AE70AB7070050EA
:1056B00083C7A70393F7F70F37070050F19B93F7C2
:1056C000F70F230DF7023707005093E7370093F7E2
:1056D000F70F230DF70245A0B707005083C7B703A4
:1056E00093F7F70F37070050F19B93F7F70FA30DD0
:1056F000F7023707005093E7370093F7F70FA30D32
:10570000F70295A8B707005083C7670393F7F70F11
:1057100037070050F19B93F7F70F230BF70237077A
:10572000005093E7370093F7F70F230BF702A1A080
:10573000B707005083C7770393F7F70F3707005079
:10574000F19B93F7F70FA30BF7023707005093E78E
:10575000370093F7F70FA30BF70231A8FD57230F7C
:10576000F4F4010009A8FD57230FF4F4B5A2FD5786
:10577000230FF4F495A28DA283A74187238007000D
:1057800083D7A188139707014183854763F1E71405
:1057900005472395E18825AA2386018683D741887A
:1057A000139707014183854763F5E7120547239265
:1057B000E18805A2238601869387C186A38007001E
:1057C0009387C18603C7470083C75700A207D98FB5
:1057D000139707014183930710086311F702B70776
:1057E000005083C7670393F7F70F13F737008D4710
:1057F000631DF70A05472386E18645A89387C1867E
:1058000003C7470083C75700A207D98F1397070123
:10581000418385476311F702B707005083C77703B9
:1058200093F7F70F13F737008D476310F708054715
:105830002386E1869DA89387C18603C7470083C757
:105840005700A207D98F13970701418393072008B8
:105850006311F702B707005083C7A70393F7F70F49
:1058600013F737008D476312F70405472386E18657
:105870002DA89387C18603C7470083C75700A20797
:10588000D98F13970701418389476310F702B70740
:10589000005083C7B70393F7F70F13F737008D470F
:1058A0006315F70005472386E18683D74188139760
:1058B00007014183894763F0E70209472392E188A2
:1058C00019A8FD57230FF4F401A8010031A001002D
:1058D00021A0010011A001000347E4F59307F00F98
:1058E000631DF700B70700501D472389E702B7077C
:1058F00000501D47A389E702E9A68307C4F563D5D5
:10590000070483D7A188139707014183A14763E95F
:10591000E70083D7A188C207C18393F7F70F11A0CF
:10592000A147A30FF4F483D7A188139707014183FC
:105930008347F4F5C207C183B307F7401397070104
:1059400041832395E18819A0A30F04F4B707005001
:105950000347F4F5420741832398E702B707005055
:1059600011472389E702B70700501147A389E702CF
:1059700089AEB707005083C7770093F7F70F93F707
:10598000F703130710026385E71213072002638DE4
:10599000E71413070002639EE71883C7818893F713
:1059A000F70F15476380E70A19476394E70E83D71B
:1059B000A1881397070141839D4763E9E70083D7D7
:1059C000A188C207C18393F7F70F11A0A147A30FC6
:1059D000F4F403A7418783A701888346F4F536864C
:1059E000BE853A85EF30C02583D7A188139707017C
:1059F00041838347F4F5C207C183B307F740139788
:105A0000070141832395E18803A701888347F4F5C3
:105A10003E9723A0E188B70700500347F4F54207FB
:105A200041832398E702B707005083C7270313F782
:105A3000F70FB7070050134747001377F70F238975
:105A4000E702B5A0B707005083C7370093F7F70FF9
:105A5000E207E18793F707F813978701618783D7F8
:105A6000A188C207C183E207E187D98F1397870115
:105A70006187B70700501377F70FA381E700B707D7
:105A8000005009472389E702B7070050A38907029E
:105A900039A8B707005023980702B70700500947F5
:105AA0002389E702B7070050A3890702010059A024
:105AB000B707005083C7670313F7F70FB707005006
:105AC000719B1377F70F238BE702B707005083C74B
:105AD000670313F7F70FB707005013474700137713
