:100000006F50303113000000130000001300000097
:100010001300000013000000130000001300000094
:100020001300000013000000130000001300000084
:08003000130000007300100032
:100038000000000000000000C0590000D059000076
:1000480000000000585A00000000000000000000F6
:100058005A5A00005C5A000000000000000000002E
:100068005E5A000000000000605A00000000000016
:10007800625A0000645A0000665A0000685A00007C
:100088006A5A00006C5A0000824C0000364D00008D
:10009800EA4D0000A24E0000564F0000785A0000BA
:1000A8007A5A00007C5A00007E5A0000805A0000EC
:1000B800825A0000845A0000865A0000885A0000BC
:1000C8008A5A00008C5A00008E5A00000A5000001C
:1000D800925A000054520000965A0000985A0000A4
:1000E80014530000CC5300008C540000A05A0000A8
:1000F800A25A0000A45A0000A65A0000A85A0000FC
:10010800AA5A00008A4500004E4600001247000027
:1001180022510000B45A0000B65A0000B85A000034
:1001280088570000BC5A0000BE5A0000C05A0000A0
:10013800C25A0000C45A00004C550000C85A0000BA
:10014800D64700009A4800000C560000C856000028
:10015800D25A0000D45A0000D65A0000D85A0000DB
:10016800DA5A0000DC5A0000DE5A0000E05A0000AB
:10017800E25A0000E45A0000E65A0000F87A00004B
:10018800EA5A0000EC5A0000B24B00006049000037
:10019800244A0000EE4A0000F65A000048580000C1
:1001A800FA5A0000FC5A0000FE5A000008590000E4
:1001B800025B0000045B0000065B0000085B0000B7
:1001C8000A5B00000C5B00000E5B0000105B000087
:1001D8000000000000000000000000000000000017
:1001E8000000000000000000000000000000000007
:0801F8000000000000000000FF
:100200003D432A876373C3029377F700BDEFADE5E3
:10021000937606FF3D8ABA960CC34CC30CC74CC7F5
:100220004107E36BD7FE11E28280B306C3408A0622
:100230009702000096966780A6002307B700A306E2
:10024000B7002306B700A305B7002305B700A30432
:10025000B7002304B700A303B7002303B700A3022A
:10026000B7002302B700A301B7002301B700A30022
:10027000B7002300B700828093F5F50F93968500B1
:10028000D58D93960501D58D61B79396270097027A
:10029000000096968682E78086FA9680C1171D8FA9
:1002A0003E96E374C3F8A5B7011122CE00102326B1
:1002B000A4FE37F500E08328450037F500E093F809
:1002C000E8FF2322150183A841810965130505F480
:1002D00033D5A802AA8601470325C4FEAA87014890
:1002E00037F500E03303F702B308D8029A98338356
:1002F000F60233B6F6029A85B387C8003E860CC96B
:1003000050C9B7F700E09843B7F700E0136707015B
:1003100098C3B7F700E09843B7F700E013671702F8
:1003200098C30100B7F700E0DC4313F717008547D7
:10033000E31AF7FEB7F700E09843B7F700E0799BC0
:1003400098C30100724405618280011122CE001021
:100350002326A4FEB70701409387074098438327CD
:10036000C4FEFD8B8546B397F600BE86B7070140F5
:1003700093870740558F98C30100724405618280BE
:10038000797106D622D40018232EA4FC232CB4FCA9
:1003900085450545EF60C0179306800405468145F5
:1003A0000325C4FD792A8327C4FD958313F7F70F2E
:1003B0008327C4FD93F7F70FFD8B93F7F70FBE85E7
:1003C0003A85EF50705E232004FE232204FE23248E
:1003D00004FE232604FE8327C4FDFD8B0547B317C7
:1003E000F7002320F4FE232204FE832784FD232428
:1003F000F4FE85472326F4FE930704FE3E85EF5066
:10040000A0798327C4FDFD8B89E75945EF40E00AB9
:10041000BDA08327C4FDF98B89E75D45EF40E00966
:10042000B9A88327C4FD13F7F701894763E6E700FE
:100430006145EF408008A1A08327C4FDF18B89E7C7
:100440006545EF40800725A88327C4FD13F7F70112
:10045000914763E6E7006945EF4020060DA083273A
:10046000C4FD13F7F701A54763E7E7001305700222
:10047000EF40A00429A013058003EF400004010011
:10048000B250225445618280011122CE00102326F1
:10049000A4FEAE87A305F4FE8347B4FE85CB832775
:1004A000C4FEBD8B0547B317F70093960701C182C1
:1004B0008327C4FE13D75700B70700200A07938786
:1004C0000704BA979C43368798CB3DA08327C4FE88
:1004D000BD8B0547B317F70093960701C1828327A9
:1004E000C4FE13D75700B70700200A0793870704F5
:1004F000BA979C433687D8CB01007244056182804D
:10050000011122CE00102326A4FE8327C4FE95836A
:1005100013F77700B70700200A0793870704BA97F5
:100520009C439C470327C4FE7D8B85463397E6009A
:10053000F98FB337F00093F7F70F3E8572440561EA
:100540008280797106D622D40018232EA4FC232C95
:10055000B4FCB2872328D4FCA30BF4FC232004FEB4
:10056000232204FE232404FE8327C4FD958393F7EE
:10057000F70F9D8BA307F4FE8327C4FD93F7F70FB6
:10058000FD8B2307F4FE8347F4FE91E78545114573
:10059000EF50107891A80347F4FE85476317F700E2
:1005A00085452145EF50D07681A00347F4FE894769
:1005B0006317F70085454145EF50907535A0034717
:1005C000F4FE8D476318F700854513050002EF50D0
:1005D000307419A80347F4FE91476317F700854567
:1005E00013050004EF50D0728347E4FE0547B317AC
:1005F000F700C207C1832310F4FE032784FD85475B
:100600006317F702832704FDC207C183A183C207D2
:10061000C18389E78D472322F4FE11A8832704FDB7
:10062000C207C183A183C207C1832322F4FE8327AB
:1006300004FDC207C18393F7F70F2324F4FE034799
:10064000F4FEB70700200A0793870704BA979C4374
:10065000130704FEBA853E85EF506072032784FDC0
:1006600085476319F7020347F4FEB70700200A071E
:1006700093870704BA9794438347E4FE0547B3176B
:10068000F700C207C183034774FD3A86BE853685ED
:10069000EF5090110100B2502254456182801D71CB
:1006A00086CEA2CC80102326A4FA2324B4FA854552
:1006B0000325C4FAEF00D02CAA873E871306D00684
:1006C000C567938507DC3A85EF209013832784FA6A
:1006D000B337F00093F7F70F3E871306F006C567B0
:1006E000938507DC3A85EF20B011832784FABD8318
:1006F0002315F4FE8357A4FE85073E87832784FADB
:10070000B3D7E7022314F4FE0325C4FAEF00B02D9B
:10071000B7370140938707C02326F4FE0327C4FAA6
:10072000A54763ECE7088327C4FA13972700C5673A
:100730009387473DBA979C438287B7370140938799
:1007400007C02326F4FE95A8B70700402326F4FE31
:10075000ADA0B7070040938707402326F4FEB1A859
:10076000B7170040938707802326F4FEB9A0B71778
:100770000040938707C02326F4FE81A0B7170040EE
:100780002326F4FE1DA8B7170040938707402326B1
:10079000F4FE25A0B7370140938707402326F4FED7
:1007A00029A8B7570140938707C02326F4FE31A03C
:1007B000B75701402326F4FE0100232E04FC23201A
:1007C00004FE231204FE835784FE2310F4FE835795
:1007D000A4FE231EF4FC231104FE231F04FC2302A9
:1007E00004FE9307C4FDBE850325C4FEEF604000F0
:1007F000054685450325C4FEEF60F00F85450325BA
:10080000C4FEEF605046C56703AE87D9138787D90A
:1008100003234700138787D983288700138787D945
:100820000328C700138787D9084B138787D94C4BF8
:10083000138787D9104F138787D9544F138787D9C8
:100840001853938787D9DC53232AC4FB232C64FADB
:10085000232E14FB232004FD2322A4FC2324B4FC18
:100860002326C4FC2328D4FC232AE4FC232CF4FCF8
:100870008327C4FA93F7F70F8A07130704FFBA9781
:1008800083A747FC8D453E85EF30B0468327C4FAE9
:100890008A07130704FFBA9783A747FC3E85EF300A
:1008A000D04185450325C4FEEF6060790100F64024
:1008B000664425618280797122D60018232EA4FC1B
:1008C000232CB4FC232AC4FC231504FE231404FEA9
:1008D00003A74181832784FDB357F702C183231403
:1008E000F4FE03A74181835784FE8507BE868327D4
:1008F00084FDB387F602B357F7022315F4FEB7372A
:100900000140938707C02326F4FE8327C4FDC183DB
:10091000BD8B2547636EF70613972700C56793873E
:10092000C73FBA979C438287B7370140938707C078
:100930002326F4FEB1A8B70700402326F4FE89A8B9
:10094000B7070040938707402326F4FE91A0B7170E
:100950000040938707802326F4FE1DA8B7170040A8
:10096000938707C02326F4FE25A0B737014093875D
:1009700007402326F4FE29A8B7570140938707C0F4
:100980002326F4FE31A0B75701402326F4FE0100D0
:100990008357A4FEFD171397070141838327C4FEE5
:1009A0002396E7028327C4FE035784FE2394E702BD
:1009B0000357A4FE832744FD3307F7028967938713
:1009C0000771B357F7022313F4FE8327C4FDA183F5
:1009D0008D8B81EB8327C4FE035764FE239AE702C5
:1009E000A9A88327C4FDA18313F73700854763199E
:1009F000F7008327C4FE035764FE239CE70235A853
:100A00008327C4FDA18313F7370089476319F700D3
:100A10008327C4FE035764FE239EE70239A8832779
:100A2000C4FDA18313F737008D476318F7008327B0
:100A3000C4FE035764FE2390E7040100325445616D
:100A400082805D7186C6A2C48008232EA4FA232C5E
:100A5000B4FA232AC4FA8327C4FBC1838D453E859B
:100A60000527AA873E871306D00AC5679385C7E185
:100A70003A85EF20E058032744FB89679387177175
:100A8000B337F70093F7F70F3E871306F00AC567F1
:100A90009385C7E13A85EF20A056232E04FC23203E
:100AA00004FE231204FE232604FC232804FC232A2C
:100AB00004FC232C04FC231504FE8327C4FBC18300
:100AC000BD8B3E85EF0020728327C4FB93F7F70FA1
:100AD00093068031014685453E85A534854505450B
:100AE000EF501023B7370140938707C02326F4FE49
:100AF0008327C4FBC183BD8B2547636EF70613971D
:100B00002700C56793874742BA979C438287B737C8
:100B10000140938707C02326F4FEB1A8B707004021
:100B20002326F4FE89A8B7070040938707402326B1
:100B3000F4FE91A0B7170040938707802326F4FEA8
:100B40001DA8B7170040938707C02326F4FE25A0F1
:100B5000B7370140938707402326F4FE29A8B757EB
:100B60000140938707C02326F4FE31A0B757014008
:100B70002326F4FE01008327C4FB13D7C7008D474B
:100B8000631AF7008545B70716001385070CEF5069
:100B9000204515AA8327C4FB13D7C700C547631A8E
:100BA000F7008545B707180013850710EF5040433D
:100BB00019AA8327C4FB13D7C700C947631AF700D4
:100BC0008545B707180013850720EF506041E5A859
:100BD0008327C4FB13D7C700CD47631AF7008545A9
:100BE000B707180013850730EF50803FE9A8832727
:100BF000C4FB13D7C70093072002631AF70085458B
:100C0000B7171A0013850780EF50803D6DA8832722
:100C1000C4FB13D7C70093073002631AF70085455A
:100C2000B7171A00138507C0EF50803B69A88327C8
:100C3000C4FB13D7C700930710036317F70085455C
:100C40000565EF50E03941A08327C4FB13D7C700E7
:100C500093071007631AF7008545B70700801385CF
:100C60004700EF50E03785A08327C4FB13D7C700A8
:100C700093073008631AF7008545B707138013857B
:100C80000701EF50E03581A08327C4FB13D7C700CD
:100C900093071009631AF7008545B7071580138578
:100CA0000702EF50E03305A08327C4FB13D7C7002A
:100CB000930730096319F7008545B7071580138539
:100CC0000704EF50E03103A74181832784FBB3572A
:100CD000F702C1832315F4FE03A741818357A4FEC5
:100CE0008507BE86832784FBB387F602B357F702D6
:100CF0002314F4FE035784FE832744FB3307F702D3
:100D0000896793870771B357F7022313F4FE83575C
:100D100084FEFD17C207C1832310F4FE8357A4FE8F
:100D2000231EF4FC231104FE231F04FC230204FEF3
:100D30009307C4FDBE850325C4FEEF50702B9307B7
:100D400000072316F4FC85472317F4FC231804FC42
:100D5000835764FE2319F4FC8947231AF4FC89475E
:100D6000231BF4FC231C04FC231D04FC8327C4FB6D
:100D7000A1838D8B9DE39307C4FCBE850325C4FE30
:100D8000EF50F03EA1450325C4FEEF60C03D914504
:100D90000325C4FEEF60E05145A08327C4FBA18377
:100DA00013F7370085476315F7029307C4FCBE8528
:100DB0000325C4FEEF507055A1450325C4FEEF6026
:100DC000403F930500400325C4FEEF604053ADA0B3
:100DD0008327C4FBA18313F7370089476314F70205
:100DE0009307C4FCBE850325C4FEEF503070A145B7
:100DF0000325C4FEEF60804191450325C4FEEF60EA
:100E000060551DA88327C4FBA18313F737008D47C6
:100E10006314F7029307C4FCBE850325C4FEEF608C
:100E2000A00AA1450325C4FEEF60004393050040DE
:100E30000325C4FEEF60C05685450325C4FEEF6060
:100E4000802585450325C4FEEF60601F0100B64084
:100E5000264461618280011122CE00102326A4FE67
:100E6000AE87A305F4FEC5670327C4FE0A07938770
:100E7000C744BA979C433E878347B4FEC207C183E9
:100E80002316F7000100C5670327C4FE0A079387EE
:100E9000C744BA979C4383D78700C207C18393F79F
:100EA0000708F5F301007244056182805D7186C612
:100EB000A2C480082326A4FC2324B4FC2322C4FC5F
:100EC0002320D4FC232EE4FA232CF4FA232A04FB57
:100ED000C5670327C4FC0A079387C744BA979C4396
:100EE0003E85EF50607485450545EF5060620327ED
:100EF00004FC93073012631DF7000327C4FB93071C
:100F000050126317F70085450545EF50600D25A089
:100F1000032704FC89679387A714631EF700032740
:100F2000C4FB89679387C7146317F7008545371596
:100F30002000EF50E00A8327C4FC91E78545056552
:100F4000EF50005D25A00327C4FC85476317F70019
:100F500085451165EF50206011A80327C4FC89471F
:100F60006316F70085452165EF50E05E832704FC9A
:100F700093F7F70F93068031054685453E85EFF0E0
:100F80004FDC8327C4FB93F7F70F930680310546A8
:100F900085453E85EFF0EFDA032784FBC167F9173B
:100FA000630DF700832784FB93F7F70F93068034D4
:100FB000054681453E85EFF0CFD8032744FB9307D4
:100FC000F00F630DF700832744FB93F7F70F9306A9
:100FD0000031014685453E85EFF0AFD6232E04FC57
:100FE000232004FE232204FE232404FE231604FEF1
:100FF000231E04FC93074010231FF4FC231004FE5F
:10100000032784FC85476305F702832784FC81CF8F
:10101000032784FC89476303F702032784FC8D4779
:101020006304F7020DA8231104FE231204FE25A079
:10103000231104FE85472312F4FE31A889472311AA
:10104000F4FE231204FE01A889472311F4FE85470C
:101050002312F4FE0100231704FE03A74181832716
:1010600044FCB357F7022317F4FE03A741818327FB
:1010700044FCB377F70291E78357E4FEFD1723178B
:10108000F4FE0357E4FE9307F00763F7E7009307C6
:1010900080032317F4FE49A80357E4FE9307F003E7
:1010A00063F7E700930700032317F4FEB5A803577F
:1010B000E4FEFD4763F7E700930780022317F4FE81
:1010C000A5A00357E4FEBD4763F7E70093070002BE
:1010D0002317F4FE91A80357E4FE9D4763F6E7004B
:1010E000E1472317F4FE89A00357E4FE8D4763F61A
:1010F000E700C1472317F4FE05A80357E4FE854720
:1011000063F6E700A1472317F4FE39A88357E4FEEE
:1011100081C7231704FE09A813068022C56793859B
:1011200087E70145EF10D06D8357E4FE2314F4FEEA
:10113000930700202313F4FE231504FE231604FE58
:10114000C5670327C4FC0A079387C744BA979C4323
:101150003E879307C4FDBE853A85EF504054C5676E
:101160000327C4FC0A079387C744BA979C43854565
:101170003E85EF5040620100B640264461618280A6
:10118000797122D60018232EA4FC232CB4FC8547A9
:10119000A307F4FE0327C4FD0A079387018BBA97C0
:1011A0009C4399EB0327C4FD0A079387018BBA97E9
:1011B000032784FD98C315A00327C4FD0A0793875E
:1011C000018BBA979C43032784FD6316F70085477C
:1011D000A307F4FE19A0A30704FE8347F4FE3E858F
:1011E000325445618280011106CE22CC00102326A4
:1011F000A4FE8327C4FE81EB8545856713850780A0
:10120000EF5000316DA80327C4FE85476317F70030
:1012100085450545EF5020345DA00327C4FE89476E
:101220006317F70085450945EF50E03249A80327C9
:10123000C4FE8D476317F70085451145EF50A03177
:10124000BDA80327C4FE91476317F70085452145D4
:10125000EF506030ADA00327C4FE95476317F70039
:1012600085454145EF50202F99A80327C4FE994793
:101270006318F700854513050002EF50C02D81A0CB
:101280000327C4FE9D476317F70085450965EF50A6
:10129000202835A00327C4FEA1476318F700854521
:1012A00037050800EF50C02619A80327C4FEA5473C
:1012B0006317F700854537051000EF5060250100E2
:1012C000F240624405618280797122D60018232E93
:1012D000A4FCB7370140938707C02326F4FE2315EB
:1012E00004FE0327C4FDA54763ECE7088327C4FD7C
:1012F00013972700C56793878745BA979C438287D2
:10130000B7370140938707C02326F4FE95A8B70797
:1013100000402326F4FEADA0B707004093870740A6
:101320002326F4FEB1A8B717004093870780232631
:10133000F4FEB9A0B7170040938707C02326F4FE38
:1013400081A0B71700402326F4FE1DA8B717004060
:10135000938707402326F4FE25A0B73701409387E3
:1013600007402326F4FE29A8B7570140938707C0FA
:101370002326F4FE31A0B75701402326F4FE0100D6
:101380000327C4FD0A079387818DBA97984389473D
:10139000631FF7008327C4FE83D747021397070113
:1013A00041838D47B357F7022315F4FE39A08327F5
:1013B000C4FE83D747022315F4FE8357A4FE3E855F
:1013C000325445618280797122D60018232EA4FC04
:1013D000B7370140938707C02326F4FE0327C4FDD7
:1013E000A54763ECE7088327C4FD13972700C5676B
:1013F00093870748BA979C438287B7370140938702
:1014000007C02326F4FE95A8B70700402326F4FE64
:10141000ADA0B7070040938707402326F4FEB1A88C
:10142000B7170040938707802326F4FEB9A0B717AB
:101430000040938707C02326F4FE81A0B717004021
:101440002326F4FE1DA8B7170040938707402326E4
:10145000F4FE25A0B7370140938707402326F4FE0A
:1014600029A8B7570140938707C02326F4FE31A06F
:10147000B75701402326F4FE01008327C4FE2392C0
:1014800007020100325445618280011122CE001012
:101490002326A4FEAE87A305F4FE0100C56703273B
:1014A000C4FE0A079387874ABA979C4383D70700ED
:1014B000C207C18393F70708F5D3C5670327C4FEA6
:1014C0000A079387874ABA979C433E878347B4FEAF
:1014D000C207C1832312F7000100724405618280B4
:1014E000011106CE22CC00102326A4FE2324B4FE34
:1014F000832784FEB337F00093F7F70F3E87130678
:101500000005C567938547ED3A85EF10702F39A820
:10151000832784FE138717002324E4FE83870700B4
:1015200093F7F70FBE850325C4FE8537832784FE16
:1015300083870700F1FF0100F24062440561828069
:10154000011106CE22CC00102326A4FEAE87A305EF
:10155000F4FEC5670327C4FE0A079387874ABA9734
:101560009C433E878347B4FE3E86930550523A859E
:10157000EF60801B138701838327C4FEBA9783C75C
:10158000070081453E85EF20D0768347B4FE81CFAA
:10159000138701838327C4FEBA9783C707003E855C
:1015A000EF20B07119A8138701838327C4FEBA976F
:1015B00083C707003E85EF2010720100F2406244AD
:1015C00005618280011122CE00102326A4FE23246F
:1015D000B4FEC5670327C4FE0A079387874ABA97F4
:1015E0009C4383D70700C207C18393F707028DC7C7
:1015F000C5670327C4FE0A079387874ABA979C43A7
:1016000083D74700C207C18313F7F70F832784FEF0
:101610002380E700854711A081473E85724405611C
:101620008280797106D622D40018232EA4FC232CA4
:10163000B4FC232AC4FC2328D4FC032744FD8327BD
:1016400004FD3D8F8327C4FDB207F98F93B71700C0
:1016500093F7F70F3E871306A00AC567938547EDFA
:101660003A85EF10F019832744FD13D787008327AD
:1016700004FDA183B307F74093B7170093F7F70F63
:101680003E871306B00AC567938547ED3A85EF108C
:101690003017832744FD93F7F70FE1460146854550
:1016A0003E85EFE01FEA832704FD93F7F70F9306CB
:1016B0008004014681453E85EFE0BFE8854505454C
:1016C000EF401065032744FDC167FD17F98F0D67D3
:1016D000130707386387E7200D6713070738636927
:1016E000F7040567130757166381E71605671307A5
:1016F0005716636FF7001307F022638AE70C13078E
:1017000060306381E710130760126388E70865A6FD
:10171000096713078736638BE7160D6713070712F0
:101720006387E71809671307A7146380E71461A6A6
:1017300015671307A738638EE72615671307A738C1
:101740006362F7021167130787386380E720156724
:10175000130787126385E722116713074712638C0B
:10176000E71A91AE19671307C7386388E72A196724
:101770001307C7386368F700196713076710638496
:10178000E72615AE1D671307E7106382E72C1D6778
:101790001307E7386387E72E39AEB7070140D44F08
:1017A000B7070140370700FC7D17758FD8CFB70703
:1017B0000140D843B70701406D9BD8C3B70701402C
:1017C000D843B707014013674700D8C3EDA4B70754
:1017D0000140D44FB7070140370700FC7D17758FD4
:1017E000D8CFB7070140D44FB707014037070004EF
:1017F000558FD8CFB7070140D843B70701406D9B3D
:10180000D8C355ACB7070140D44FB70701403707DD
:1018100000FC7D17758FD8CFB7070140D44FB707AD
:10182000014037070004558FD8CFB7070140D84390
:10183000B70701406D9BD8C3B7070140D843B7072E
:10184000014013674700D8C3BDA4B7070140D84380
:10185000B70701405D9BD8C3B7070140D843B7071E
:10186000014013678700D8C3B9A4B7070140D84324
:10187000B70701401377F7FCD8C3B7070140D84337
:10188000B707014013670701D8C335A4B707014064
:10189000D843B70701401377F7FCD8C3B707014017
:1018A000D843B707014013670703D8C329A4B70774
:1018B0000140D44FB70701403707FDFF7D17758FF3
:1018C000D8CFB7070140D44F832744FDA183139796
:1018D0000701B70703007D8FB7070140558FD8CFA9
:1018E000D9AAB7070140D44FB70701403707FDFF1A
:1018F0007D17758FD8CFB7070140D44F832744FD9C
:10190000A18313970701B70703007D8FB707014035
:10191000558FD8CF4DA2B7070140D44FB70701402C
:101920003707F4FF7D17758FD8CFB7070140D44F25
:10193000832744FDA18313972701B7070C007D8FF0
:10194000B7070140558FD8CFBDA2B7070140D44F8C
:10195000B70701403707F4FF7D17758FD8CFB7075A
:101960000140D44F832744FDA18313972701B70774
:101970000C007D8FB7070140558FD8CF2DAAB70730
:101980000140D44FB70701403707D0FF7D17758F4F
:10199000D8CFB7070140D44F832744FDA1831397C5
:1019A0004701B70730007D8FB7070140558FD8CF6B
:1019B00019A2B7070140D44FB70701403707D0FF3E
:1019C0007D17758FD8CFB7070140D44F832744FDCB
:1019D000A18313974701B70730007D8FB7070140F8
:1019E000558FD8CFC9A8B7070140D44FB7070140DA
:1019F000370740FF7D17758FD8CFB7070140D44F09
:101A0000832744FDA18313976701B707C0007D8F2B
:101A1000B7070140558FD8CF79A8B7070140D44FF9
:101A2000B7070140370740FF7D17758FD8CFB7073D
:101A30000140D44F832744FDA18313976701B70763
:101A4000C0007D8FB7070140558FD8CFADA0B70735
:101A50000140D44FB7070140370700FD7D17758F50
:101A6000D8CFB7070140D44F832744FDA1831397F4
:101A70008701B70700037D8FB7070140558FD8CF87
:101A80001DA8B7070140D44FB7070140370700FD35
:101A90007D17758FD8CFB7070140D44F832744FDFA
:101AA000A18313978701B70700037D8FB707014014
:101AB000558FD8CF01008327C4FD91E78545116577
:101AC000EF40102569A80327C4FD85476318F70078
:101AD000854537050200EF40102851A00327C4FDBB
:101AE00089476318F700854537050400EF40B026A5
:101AF000BDA00327C4FD8D476318F7008545370552
:101B00000800EF405025A1A80327C4FD91476318A2
:101B1000F700854537051000EF40F02389A0032723
:101B2000C4FD95476318F700854513050004EF4091
:101B3000902235A00327C4FD99476318F700854517
:101B400013050008EF40302119A80327C4FD9D4765
:101B50006317F700854513050010EF40D01F2320C1
:101B600004FE232204FE232404FE232604FE8327EE
:101B700084FD2320F4FE231204FE231304FE231409
:101B800004FE231604FEB1472315F4FEC5670327A0
:101B9000C4FD0A079387874ABA979C433E879307F9
:101BA00004FEBE853A85EF50F00EC5670327C4FDDD
:101BB0000A079387874ABA979C4385453E85EF502D
:101BC000B0300100B250225445618280411106C6F6
:101BD00022C4000883A741840547638BE70063881C
:101BE000070C0947638DE7000D47638FE702E9A003
:101BF00083A701841387170023A0E18475A883A716
:101C000001841387170023A0E18403A70184A5475B
:101C100063F1E70AB7070020938707049C4B11671D
:101C2000D8CB23A0018471A003A7818485476314C6
:101C3000F7081305F008EFE0BF8CAA87ADC319457C
:101C4000EFF08FE8AA873E8783A701841D8F930753
:101C5000600963F2E7061945EFF0EFF683A7018408
:101C6000D3F717D05385F720EF905050C56703A6E0
:101C700007F383A647F3EF80D014AA872E883E850A
:101C8000C285EF907037AA87139707014183B70782
:101C900000202398E728094723A4E18429A81945AF
:101CA000EFF08FE2AA873E8723A0E18429A00100FC
:101CB00021A0010011A001000100B2402244410115
:101CC0008280411106C622C4000883A741840947C7
:101CD000637CF7000D47639AE7001945EFF0AFEE1C
:101CE000054723A4E18411A001000100B240224471
:101CF00041018280011106CE22CC0010232204FE75
:101D000083C7D1846381071409A8930734FE05466D
:101D1000BE8513850190EF107024930734FEBE85B5
:101D20001D45EFF03F8AAA87EDF3034734FEA9472C
:101D3000631BF71099472322F4FE130744FE930711
:101D400084FE85463A86BE8513850190EF10B07FEC
:101D5000930784FE138737000D46C567938587F385
:101D60003A85EFB0A00FAA879DEB03A7418589476D
:101D70006304F70C054723AAE18413850190EF1053
:101D80005016AA872322F4FE930744FE81463E861E
:101D90009385C19913850190EF10F07A71A893078C
:101DA00084FE138737000D46C5679385C7F33A85D0
:101DB000EFB0C00AAA879DEB03A701858947630D91
:101DC000F706054723A8E18413850190EF107011F1
:101DD000AA872322F4FE930744FE81463E8693851C
:101DE000C19113850190EF101076B9A0930784FE7E
:101DF000138737000D46C567938507F43A85EFB022
:101E0000E005AA8795EB03A7818589476306F7025A
:101E1000054723ACE18413850190EF10900CAA874D
:101E20002322F4FE930744FE81463E869385C1A19A
:101E300013850190EF10307113850190EF10C0658C
:101E400005472386E1840100F240624405618280F7
:101E5000011106CE22CC0010A30704FEA30704FE46
:101E6000F1A80347F4FEC5670A079387874CBA9722
:101E70009C433E85EFE0CFE8AA873E87854763090C
:101E8000F7048347F4FE939627001387C1A936977A
:101E900018430507939627009387C1A9B69798C35F
:101EA00083A7C1851307803E3357F7028346F4FEAC
:101EB0008A069387C1A9B6979C4363ECE70603475C
:101EC000F4FE0A079387C1AABA97094798C395A059
:101ED0000347F4FE0A079387C1AABA979843894734
:101EE0006309F70283A7C18529473357F702834661
:101EF000F4FE8A069387C1A9B6979C4363EBE7007B
:101F00000347F4FE0A079387C1AABA97054798C307
:101F100009A80347F4FE0A079387C1AABA9723A02A
:101F200007000347F4FE0A079387C1A9BA9723A0C5
:101F300007008347F4FE8507A307F4FE0347F4FE7A
:101F40008D47E3F0E7F20100F240624405618280D0
:101F5000011122CE00102326A4FE0327C4FE0A0787
:101F60009387C1AABA979C433E85724405618280DB
:101F7000797106D622D40018232EA4FC8327C4FD31
:101F8000B337F00093F7F70F3E871306C008C56715
:101F9000938587023A85EF10A006A30704FEA307E6
:101FA00004FE2DA80347F4FEC5670A079387874CF4
:101FB000BA979C4393068004054681453E85EFE031
:101FC0004FD80347F4FE0A079387C1AABA9723A004
:101FD00007008347F4FE8507A307F4FE0347F4FEDA
:101FE0008D47E3F1E7FC0327C4FD23AEE184010044
:101FF000B250225445618280011106CE22CC0010DD
:10200000AA87A307F4FEB707002093870704DC47DD
:102010001307000898CB8347F4FEBE850545EFE023
:102020009FE30100F240624405618280011106CE07
:1020300022CC0010AA87A307F4FEB70700209387DD
:102040000704DC4713070008D8CB8347F4FEBE859E
:102050000545EFE05FE00100F240624405618280E7
:10206000011106CE22CC0010AA872E87A307F4FE0A
:10207000BA872307F4FE8307F4FE93C7F7FF93F7AD
:10208000F70F9D8393F7F70F3E871306C006C567CA
:10209000938587083A85EF00B0768347E4FE93B7CF
:1020A000870093F7F70F3E871306D006C567938521
:1020B00087083A85EF00D0748347E4FE938707FBD7
:1020C00093F7F70F3E859D378347F4FE918393F78F
:1020D000F70F93E7070193F7F70F3E85813F83479B
:1020E000F4FEBD8B93F7F70F3E8589370100F24070
:1020F000624405618280797106D622D40018930764
:10210000C4FD3E85EF0050768547231EF4FC9307FF
:102110000008231FF4FC930700042310F4FE83A798
:1021200041860547638AE70099EF99472301F4FE4A
:102130008547A301F4FE09A8A1472301F4FE8947BE
:10214000A301F4FE11A00100B72700009387C72266
:102150002324F4FEB7270000938747172326F4FEB5
:102160009307C4FD3E85EF00D0750100B2502254A4
:1021700045618280011106CE22CC0010A30704FE27
:10218000230704FEB707002093870704DC47414775
:10219000D8CBA30704FE81A08347F4FE938707FBF7
:1021A00093F7F70F3E855935054549354145BD3D06
:1021B000230704FE01A8014581358347E4FE850716
:1021C0002307F4FE8307E4FEE3D707FE8347F4FE0C
:1021D0008507A307F4FE0347F4FE9D47E3FEE7FAF5
:1021E000B707002093870704DC47414798CB0100DD
:1021F000F240624405618280011122CE0010232644
:10220000A4FE0327C4FE23A0E186010072440561F9
:102210008280011122CE00102326A4FE0327C4FED3
:1022200023A2E1860100724405618280797106D69D
:1022300022D40018AA872E87232CC4FC231FF4FC69
:10224000BA87231EF4FC8357E4FD93B7070893F77E
:10225000F70F3E871306D010C567938587083A8528
:10226000EF00105A8357C4FD93B7870093F7F70F19
:102270003E871306E010C567938587083A85EF000F
:102280003058B707002093870704DC474147D8CB75
:10229000A30604FEA30704FE230704FE69AA83A77E
:1022A000418605476384E70A89C709476384E718BD
:1022B00059A28347E4FE032784FDBA97838707006A
:1022C00093F7F70F8117A306F4FE0357E4FD930776
:1022D000E00763F9E700231F04FC8357C4FD85076B
:1022E000231EF4FC8357E4FD93F7F70F0357C4FD57
:1022F0001377F70FBA853E85A533A30704FE3DA0EB
:102300000347D4FE8346F4FE4966BA878607BA9728
:102310008607130786ACBA97B69783C707003E8532
:10232000E1398347F4FE8507A307F4FE0347F4FE73
:102330009547E3F7E7FC8357E4FD9907231FF4FC77
:102340008347E4FE85072307F4FEF5A08347E4FEF8
:10235000032784FDBA978387070093F7F70F811748
:10236000A306F4FE0357E4FD9307800763F9E70033
:10237000231F04FC8357C4FD8507231EF4FC8357E9
:10238000E4FD93F7F70F0357C4FD1377F70FBA85F2
:102390003E85F931A30704FE25A08346D4FE83477A
:1023A000F4FE456792061307874D3697BA9783C7A1
:1023B00007003E8591318347F4FE8507A307F4FEAD
:1023C0000347F4FE9D47E3FAE7FC8357E4FD13F768
:1023D000F70F8357C4FD93F7F70F850793F7F70FB0
:1023E000BE853A85B539A30704FE2DA08346D4FEE9
:1023F0008347F4FEA107456792061307874D36977A
:10240000BA9783C707003E85C53E8347F4FE85071C
:10241000A307F4FE0347F4FE9D47E3F9E7FC835767
:10242000E4FDA107231FF4FC8347E4FE850723078F
:10243000F4FE11A001008347E4FE032784FDBA9750
:1024400083870700E39D07E4B7070020938707040D
:10245000DC47414798CB0100B2502254456182804D
:10246000397106DE22DC8000AA872324C4FC36876B
:102470002317F4FCAE872316F4FCBA87A303F4FCFD
:102480008357E4FC93B7070893F7F70F3E871306CB
:102490004015C567938587083A85EF0070368357E6
:1024A000C4FC93B7870093F7F70F3E8713065015C8
:1024B000C567938587083A85EF009034834774FC9D
:1024C000B337F00093F7F70F3E8713067015C56713
:1024D000938587083A85EF00B032834774FC93B741
:1024E000B70093F7F70F3E8713068015C5679385EE
:1024F00087083A85EF00D030832784FC2326F4FE3A
:1025000085472324F4FE9307C4FD314681453E856B
:10251000EFD01FCF834774FC85073E879307C4FD28
:102520003A86930500023E85EFD09FCD034774FCA9
:10253000A54763EBE70231A8032784FEBA878A0721
:10254000BA9786072324F4FE834774FCFD17A30380
:10255000F4FC834774FCEDF30327C4FE832784FE59
:10256000B367F7022326F4FE9307C4FD8325C4FE58
:102570003E85EF1090579306C4FD0357C4FC835764
:10258000E4FC3686BA853E8555310100F25062542E
:1025900021618280411106C622C400081308F00F91
:1025A000C167F91705671307F70285669386D60298
:1025B00037A64A041306062081450545EFE01F8F24
:1025C000C1460546854513057002EFD09FF7C14609
:1025D0000546854513057006EFD0BFF6C146054692
:1025E000854513054006EFD0DFF583A701863E85BC
:1025F0002131B707002093870704DC474147D8CB38
:10260000B707002093870704DC4313070008D8CBE3
:1026100013052003EFD05FC9B70700209387070495
:10262000DC431307000898CB1305E00AEFF01FA066
:102630000145EFF0BF9F4145EFF05F9F1305000498
:10264000EFF0DF9E13051008EFF05F9E1305F00713
:10265000EFF0DF9D83A7018691EB1305100AEFF0E1
:10266000FF9C1305800CEFF07F9C09A81305000A5E
:10267000EFF0DF9B1305000CEFF05F9B1305600A82
:10268000EFF0DF9A1305800AEFF05F9A1305F0036D
:10269000EFF0DF991305300DEFF05F990145EFF092
:1026A000FF981305500DEFF07F9813050008EFF029
:1026B000FF971305900DEFF07F971305100FEFF0C4
:1026C000FF961305A00DEFF07F964945EFF01F969A
:1026D0001305B00DEFF09F9513050004EFF01F9563
:1026E00013050002EFF09F940945EFF03F941305A6
:1026F000D008EFF0BF935145EFF05F931305400A08
:10270000EFF0DF921305600AEFF05F921305F00A15
:10271000EFF0DF91B707002093870704DC474147BC
:1027200098CBEFF03FA581450145EFF07F93EFF0A7
:102730009F9C0100B240224441018280411122C687
:1027400000080100324441018280411122C6000884
:10275000B71702409843B71702401367170098C392
:10276000B7170240D443B71702403707FFF8758FF9
:10277000D8C3B71702409443B71702403707F7FE94
:102780007D17758F98C3B71702409443B71702405F
:102790003707FCFF7D17758F98C3B7170240D443E6
:1027A000B7170240370781FF7D17758FD8C3B7175A
:1027B000024037079F0098C70100324441018280E0
:1027C000797106D622D40018232EA4FCBD3F2326FF
:1027D00004FE232404FEB71702409443B7170240B7
:1027E0004167558F98C3B71702409843B707020057
:1027F000F98F2324F4FE8327C4FE85072326F4FEE5
:10280000832784FE91E70327C4FE8567E31DF7FC59
:10281000B71702409843B7070200F98F89C7854769
:102820002324F4FE19A0232404FE032784FE8547F5
:102830006312F71637170240B71702405843D8C340
:1028400037170240B71702405843D8C33717024022
:10285000B71702405843D8C3B7170240D443B7173D
:1028600002403707C1FF7D17758FD8C30327C4FD0A
:10287000B747950893870740631BF700B7170240D7
:10288000D443B71702404167558FD8C355A80327D3
:10289000C4FDB7172707938707E0631CF700B71736
:1028A0000240D443B717024037073900558FD8C3C9
:1028B00041A80327C4FDB7E7B80593870780631CC9
:1028C000F700B7170240D443B71702403707290073
:1028D000558FD8C3B5A00327C4FDB7A74A04938773
:1028E0000720631CF700B7170240D443B717024014
:1028F00037071D00558FD8C3A1A00327C4FDB777A4
:10290000DC02938707C0631CF700B7170240D4436B
:10291000B717024037071100558FD8C315A00327FA
:10292000C4FDB7376E0193870760631BF700B717C5
:102930000240D443B717024037070500558FD8C36C
:10294000B71702409443B717024037070001558F6D
:1029500098C30100B71702409843B7070002F98FE8
:10296000F5DBB7170240D843B7170240719BD8C3B5
:10297000B7170240D843B717024013672700D8C3E0
:102980000100B7170240DC4313F7C700A147E31A61
:10299000F7FE11A001A0B2502254456182800111BE
:1029A00006CE22CC00102326A4FE0327C4FE23AAB1
:1029B000E180613B0325C4FE2135EF10B03B0100EF
:1029C000F240624405618280411122C60008010084
:1029D0000100324441018280011106CE22CC001058
:1029E000232604FE232404FE232604FE25A02324FC
:1029F00004FE39A0D13F832784FE85072324F4FEFB
:102A0000032784FEC167E367F7FE8327C4FE8507BB
:102A10002326F4FE0327C4FE9307F00FE3F9E7FC37
:102A20000100F240624405618280411122C6000823
:102A30000100324441018280011106CE22CC0010F7
:102A40002326A4FE8325C4FE1D45EFE07FA90100D7
:102A5000F240624405618280130101D923261126C8
:102A60002324812623229126801C232EA4D8232CC4
:102A7000B4D8232AC4D82328D4D8231504FE231479
:102A800004FE231304FE231204FE231104FE032577
:102A900084D9EFA0803BAA87C207C1872313F4FE25
:102AA00083D7C1AB89C79387C1AB9C4B829783C740
:102AB000818693F7F70F638D074A83D7C1AB63878E
:102AC00007449387C1ABD447835724FE139707016C
:102AD000418793170701C1838507C207C183C207D6
:102AE000C1872311F4FE93170701C1830326C4D9BC
:102AF000BE8501458296832784D92326F4FE0325CB
:102B000084D9EFA08034AA87C207C1872313F4FEBB
:102B10009387C1AB83D727003E879387C1AB83C719
:102B20006700B347F702C207C1872312F4FE010012
:102B30008327C4FE138717002326E4FE838707003C
:102B4000E5FB231404FEA1A88327C4FEFD1723265A
:102B5000F4FE8327C4FE038707009307F002630A8D
:102B6000F7008327C4FE038707009307C005631B94
:102B7000F700835784FEC207C1838507C207C1835C
:102B80002314F4FE835764FEC207C187C207C183C2
:102B9000FD17C207C183C207C1872313F4FE835701
:102BA00084FE139707014183854763E8E700835755
:102BB00064FEC207C187E3D907F8835764FEC207E2
:102BC000C18763C207028327C4FE85072326F4FE5C
:102BD000130704EE0326C4FEC5679385870F3A8565
:102BE000EFA040221DA8835784FEC207C18381EF56
:102BF000130704EE0326C4FEC567938547103A8584
:102C0000EFA0402019A8130704EE0326C4FEC567F1
:102C10009385870F3A85EFA0E01E231504FE21AAB5
:102C2000231404FE59A0930704EE3E85EFA0E02193
:102C30002A87835784FEC207C183BE868357A4FEBA
:102C4000C207C1833E86835744FEC207C187B307CC
:102C5000F602B6976367F706835784FEC207C183FF
:102C60003E878357A4FEC207C183BE86835744FEB6
:102C7000C207C187B387F602BA97035784FE42079B
:102C80004183BA86130704FFBA97038707EF9307B8
:102C900004FFB6972388E7EA835784FEC207C183FF
:102CA0008507C207C1832314F4FE835784FEC2073D
:102CB000C1833E87835744FEC207C187E345F7F6C9
:102CC00011A00100835784FEC207C183130704FFCC
:102CD000BA97238807EA9387C1AB03A8C7009387F5
:102CE000C1AB83C77700139707014183835724FE45
:102CF00093960701C18693970601C1838507C20792
:102D0000C183C207C1872311F4FE93970601C183D3
:102D1000B307F702C207C183130704EA3A86BE85E8
:102D2000014502988357A4FEC207C1838507C207E5
:102D3000C1832315F4FE8357A4FEC207C183BE845A
:102D4000930704EE3E85EFA040102A87835744FE88
:102D5000C207C187B357F7028507E3E3F4EC130713
:102D600004EE032644D9C567938547113A85EFA041
:102D700060099387C1AB03A8C7009387C1AB83C722
:102D80007700139707014183835724FE9396070129
:102D9000C18693970601C1838507C207C183C20715
:102DA000C1872311F4FE93970601C183B307F7028D
:102DB000C207C183130704EE3A86BE850145029817
:102DC000832704D96386071A231504FE21AA231436
:102DD00004FE59A0032504D9EFA020072A878357B2
:102DE00084FEC207C183BE868357A4FEC207C18387
:102DF0003E86835744FEC207C187B307F602B697E3
:102E00006368F706835784FEC207C1833E878357F2
:102E1000A4FEC207C183BE86835744FEC207C18792
:102E2000B387F602BA973E87832704D9BA97035728
:102E300084FE42074183BA8603870700930704FF95
:102E4000B6972388E7EA835784FEC207C1838507C4
:102E5000C207C1832314F4FE835784FEC207C183D3
:102E60003E87835744FEC207C187E345F7F611A0AA
:102E70000100835784FEC207C183130704FFBA977A
:102E8000238807EA9387C1AB03A8C7009387C1AB28
:102E900083C77700139707014183835724FE9396D6
:102EA0000701C18693970601C1838507C207C183C5
:102EB000C207C1872311F4FE93970601C183B307AC
:102EC000F702C207C183130704EA3A86BE850145AB
:102ED00002988357A4FEC207C1838507C207C18336
:102EE0002315F4FE8357A4FEC207C183BE840325C5
:102EF00004D9EF9090752A87835744FEC207C18793
:102F0000B357F7028507E3E4F4EC9DA0930704DAD6
:102F10001306001081453E85EFD08FAE9387C1AB7D
:102F20009C470325C4D98297832704D999CF1305D9
:102F300004DA032704D9832644D9032684D9C56734
:102F400093850712EF90106C29A8130704DA8326E3
:102F500044D9032684D9C5679385C7133A85EF9072
:102F6000706A9387C1AB9847930704DA3E8502974E
:102F700001008320C12603248126832441261301D6
:102F800001278280797106D622D40018232EA4FC52
:102F9000232CB4FC232AC4FC232604FEA9A0010090
:102FA000C5679387874ADC4F930500043E85EF4051
:102FB000D006AA87F5D7C5679387874ADC4FBE86B8
:102FC000832784FD13871700232CE4FC83870700E5
:102FD000C207C183BE853685EF4050018327C4FEFA
:102FE00085072326F4FE0327C4FE832744FDE34818
:102FF000F7FA832744FD3E85B25022544561828012
:10300000011106CE22CC0010AA872324B4FE23226D
:10301000C4FEA307F4FE8347F4FEB1E383C78181B6
:1030200093F7F70F8DCF83C7918691C301A083C714
:103030009186850713F7F70FA384E186EF10E05020
:10304000EFF0BF9E8146032644FE832584FEC567BC
:1030500013854715EFF05FA0EFF01F98E5B701006B
:10306000F240624405618280011122CE00102326C5
:10307000A4FE8327C4FE239007008327C4FE7D5748
:103080002391E7008327C4FE7D572392E70083271F
:10309000C4FE7D572383E7008327C4FE7D57A383A7
:1030A000E7008327C4FE23A407008327C4FE23A6CA
:1030B00007008327C4FE23A80700010072440561AE
:1030C0008280011122CE00102326A4FE8327C4FE95
:1030D00003D70700239EE1AA8327C4FE03D7270056
:1030E0009387C1AB2391E7008327C4FE03D7470032
:1030F0009387C1AB2392E7008327C4FE03C7670011
:103100009387C1AB2383E7008327C4FE03C77700FF
:103110009387C1ABA383E7008327C4FE98479387B7
:10312000C1AB98C78327C4FED8479387C1ABD8C724
:103130008327C4FE984B9387C1AB98CB0547238464
:10314000E1860100724405618280797106D622D43D
:1031500000189307C4FD3E85013FB73700009387F1
:1031600087A32322F4FE9307C4FD3E85993F9D6704
:103170009386F7389D671386E738F16793850720B4
:103180001D45EFE00FCA0100B25022544561828014
:10319000011122CE00102326A4FE2324B4FE83278F
:1031A000C4FE03C7970083C6A700A206558F83C637
:1031B000B700C206558F83C7C700E207D98F3E8785
:1031C000832784FE3E978327C4FE9375F70F83C63B
:1031D0009700818A3686AE86D18EA384D700935617
:1031E000870093F5F60F83C6A700818A3686AE86E0
:1031F000D18E2385D7009356070193F5F60F83C62A
:10320000B700818A3686AE86D18EA385D700135645
:10321000870103C7C700018BBA863287558F238683
:10322000E70055A08327C4FE03C7970083C6A70005
:10323000A206558F83C6B700C206558F83C7C70045
:10324000E207D98F3E868327C4FE03C7570183C692
:103250006701A206558F83C67701C206558F83C7C3
:103260008701E207D98F3307F6408327C4FE9375A1
:10327000F70F83C69700818A3686AE86D18EA384E7
:10328000D7009356870093F5F60F83C6A700818A6F
:103290003686AE86D18E2385D7009356070193F5E7
:1032A000F60F83C6B700818A3686AE86D18EA38597
:1032B000D7001356870103C7C700018BBA86328730
:1032C000558F2386E7008327C4FE03C7570183C6B3
:1032D0006701A206558F83C67701C206558F83C743
:1032E0008701E207D98F3E868327C4FE03C7970074
:1032F00083C6A700A206558F83C6B700C206558FA6
:1033000083C7C700E207D98FE3FEC7F0010072440C
:1033100005618280011122CE00102326A4FE232401
:10332000B4FE8327C4FE03C7D70083C6E700A20606
:10333000558F83C6F700C206558F83C70701E20782
:10334000D98F3E87832784FE3E978327C4FE9375DB
:10335000F70F83C6D700818A3686AE86D18EA386C4
:10336000D7009356870093F5F60F83C6E700818A4E
:103370003686AE86D18E2387D7009356070193F504
:10338000F60F83C6F700818A3686AE86D18EA38774
:10339000D7001356870103C70701018BBA8632870E
:1033A000558F2388E70055A08327C4FE03C7D700A5
:1033B00083C6E700A206558F83C6F700C206558F65
:1033C00083C70701E207D98F3E868327C4FE03C760
:1033D000570183C66701A206558F83C67701C206CF
:1033E000558F83C78701E207D98F3307F6408327BC
:1033F000C4FE9375F70F83C6D700818A3686AE86E2
:10340000D18EA386D7009356870093F5F60F83C617
:10341000E700818A3686AE86D18E2387D700935601
:10342000070193F5F60F83C6F700818A3686AE86CC
:10343000D18EA387D7001356870103C70701018BDD
:10344000BA863287558F2388E7008327C4FE03C7D7
:10345000570183C66701A206558F83C67701C2064E
:10346000558F83C78701E207D98F3E868327C4FE25
:1034700003C7D70083C6E700A206558F83C6F700AF
:10348000C206558F83C70701E207D98FE3FEC7F055
:103490000100724405618280797106D622D4001839
:1034A000232EA4FC8327C4FDB337F00093F7F70F56
:1034B0003E8713065005C567938507173A85EFF0D9
:1034C0003FB4232604FE8327C4FD83C7070093E788
:1034D000170013F7F70F8327C4FD2380E700832726
:1034E000C4FD03C79700018BA384E70003C7A700AF
:1034F000018B2385E70003C7B700018BA385E70095
:1035000003C7C700018B2386E7008327C4FD03C7D9
:10351000D700018BA386E70003C7E700018B238751
:10352000E70003C7F700018BA387E70003C7070184
:10353000018B2388E7008327C4FD03C7570183C697
:103540006701A206558F83C67701C206558F83C7D0
:103550008701E207D98F3E878327C4FD9375F70F54
:1035600083C61701818A3686AE86D18EA388D7009E
:103570009356870093F5F60F83C62701818A368616
:10358000AE86D18E2389D7009356070193F5F60FA7
:1035900083C63701818A3686AE86D18EA389D7004D
:1035A0001356870103C74701018BBA863287558FAF
:1035B000238AE7008327C4FD03C7170083C62700BB
:1035C000A206558F83C63700C206558F83C74700B2
:1035D000E207D98F0547638DE70489C709476380F0
:1035E000E70AEDA08327C4FD03C7570083C6670021
:1035F000A206558F83C67700C206558F83C7870002
:10360000E207D98F3E858327C4FD03C7570183C6D0
:103610006701A206558F83C67701C206558F83C7FF
:103620008701E207D98F3E868145EFC07FBD79A82B
:103630008327C4FD03C7570083C66700A206558FC2
:1036400083C67700C206558F83C78700E207D98FEC
:103650003E858327C4FD03C7570183C66701A206C1
:10366000558F83C67701C206558F83C78701E2074E
:10367000D98F86073E868145EFC09FB881A88327F2
:10368000C4FD03C7570083C66700A206558F83C6D3
:103690007700C206558F83C78700E207D98F3E8522
:1036A0008327C4FD03C7570183C66701A206558F50
:1036B00083C67701C206558F83C78701E207D98F7A
:1036C0008A073E868145EFC0BFB301008327C4FD52
:1036D000238007008327C4FE3E85B25022544561F3
:1036E0008280011106CE22CC00102326A4FE83275F
:1036F000C4FEB337F00093F7F70F3E871306600759
:10370000C567938507173A85EFF09F8F8327C4FE1F
:1037100003C7570183C66701A206558F83C6770189
:10372000C206558F83C78701E207D98F3E8683275C
:10373000C4FE03C7170183C62701A206558F83C69F
:103740003701C206558F83C74701E207D98FB307F8
:10375000F6403E85F240624405618280797106D66A
:1037600022D40018232EA4FC232CB4FC232AC4FC4E
:103770008327C4FDB337F00093F7F70F3E87130696
:10378000000BC567938507173A85EFF07F872326DF
:1037900004FE232404FE832784FD89E78D47232626
:1037A000F4FE59AB8327C4FD83C70700958B93F7BD
:1037B000F70F89C791472326F4FEBDAB8327C4FDCD
:1037C00083C7070093E7470013F7F70F8327C4FD6C
:1037D0002380E7008327C4FD03C7170183C62701A1
:1037E000A206558F83C63701C206558F83C747018E
:1037F000E207D98F3E87832744FD6361F752832711
:10380000C4FD03C7570183C66701A206558F83C64F
:103810007701C206558F83C78701E207D98F3E869D
:103820008327C4FD03C7970083C6A700A206558F50
:1038300083C6B700C206558F83C7C700E207D98F7A
:10384000B307F6402324F4FE032744FD832784FEB8
:1038500063F3E72E8327C4FD03C7170083C6270041
:10386000A206558F83C63700C206558F83C747000F
:10387000E207D98F05476385E70E89C70947638645
:10388000E71C11A98327C4FD03C7570083C667003F
:10389000A206558F83C67700C206558F83C787005F
:1038A000E207D98F3E868327C4FD03C7970083C6EE
:1038B000A700A206558F83C6B700C206558F83C7DF
:1038C000C700E207D98FB297032684FE832584FDC3
:1038D0003E85EF80E058832584FE0325C4FDEFF08C
:1038E0003F8B8327C4FD03C7570083C66700A2062A
:1038F000558F83C67700C206558F83C78700E207BE
:10390000D98F3E868327C4FD03C7970083C6A700CF
:10391000A206558F83C6B700C206558F83C7C7005E
:10392000E207D98FB306F600032784FD832784FEC0
:10393000B305F700032744FD832784FEB307F74050
:103940003E863685EF80C051032744FD832784FEE1
:10395000B307F740BE850325C4FDEFF07F8325AE96
:103960008327C4FD03C7570083C66700A206558F8F
:1039700083C67700C206558F83C78700E207D98FB9
:103980003E868327C4FD03C7970083C6A700A2060F
:10399000558F83C6B700C206558F83C7C700E2079D
:1039A000D98F86073307F600832784FE86073E8675
:1039B000832584FD3A85EF80A04A832584FE032574
:1039C000C4FDEFF0EFFC8327C4FD03C7570083C697
:1039D0006700A206558F83C67700C206558F83C73E
:1039E0008700E207D98F3E868327C4FD03C797006F
:1039F00083C6A700A206558F83C6B700C206558F9F
:103A000083C7C700E207D98F8607B306F60083276E
:103A100084FE8607032784FDB305F700032744FDD2
:103A2000832784FEB307F74086073E863685EF80FE
:103A30002043032744FD832784FEB307F740BE8558
:103A40000325C4FDEFF0CFF4B9A48327C4FD03C759
:103A5000570083C66700A206558F83C67700C2064B
:103A6000558F83C78700E207D98F3E868327C4FD21
:103A700003C7970083C6A700A206558F83C6B70069
:103A8000C206558F83C7C700E207D98F8A0733075D
:103A9000F600832784FE8A073E86832584FD3A85C7
:103AA000EF80003C832584FE0325C4FDEFF04FEE3C
:103AB0008327C4FD03C7570083C66700A206558F3E
:103AC00083C67700C206558F83C78700E207D98F68
:103AD0003E868327C4FD03C7970083C6A700A206BE
:103AE000558F83C6B700C206558F83C7C700E2074C
:103AF000D98F8A07B306F600832784FE8A07032737
:103B000084FDB305F700032744FD832784FEB30734
:103B1000F7408A073E863685EF808034032744FDD0
:103B2000832784FEB307F740BE850325C4FDEFF06D
:103B30002FE601008DA28327C4FD03C7170083C6AB
:103B40002700A206558F83C63700C206558F83C74C
:103B50004700E207D98F05476387E70689C709470A
:103B60006387E70C0DAA8327C4FD03C7570083C6EC
:103B70006700A206558F83C67700C206558F83C79C
:103B80008700E207D98F3E868327C4FD03C79700CD
:103B900083C6A700A206558F83C6B700C206558FFD
:103BA00083C7C700E207D98FB297032644FD832558
:103BB00084FD3E85EF80C02A832544FD0325C4FD96
:103BC000EFF00FDDC9A88327C4FD03C7570083C6E4
:103BD0006700A206558F83C67700C206558F83C73C
:103BE0008700E207D98F3E868327C4FD03C797006D
:103BF00083C6A700A206558F83C6B700C206558F9D
:103C000083C7C700E207D98F86073307F6008327EB
:103C100044FD86073E86832584FD3A85EF80402457
:103C2000832544FD0325C4FDEFF08FD6ADA0832787
:103C3000C4FD03C7570083C66700A206558F83C61D
:103C40007700C206558F83C78700E207D98F3E866B
:103C50008327C4FD03C7970083C6A700A206558F1C
:103C600083C6B700C206558F83C7C700E207D98F46
:103C70008A073307F600832744FD8A073E8683259B
:103C800084FD3A85EF80C01D832544FD0325C4FDD6
:103C9000EFF00FD001008327C4FD03C7170183C6CF
:103CA0002701A206558F83C63701C206558F83C7E9
:103CB0004701E207D98F3E87832744FD1D8F832765
:103CC000C4FD9375F70F83C61701818A3686AE86C9
:103CD000D18EA388D7009356870093F5F60F83C63D
:103CE0002701818A3686AE86D18E2389D7009356E6
:103CF000070193F5F60F83C63701818A3686AE86B3
:103D0000D18EA389D7001356870103C74701018BC2
:103D1000BA863287558F238AE70021A0954723264C
:103D2000F4FE8327C4FD83C70700ED9B13F7F70F4D
:103D30008327C4FD2380E7008327C4FE3E85B2505D
:103D4000225445618280797106D622D40018232E30
:103D5000A4FC232CB4FC232AC4FC2328D4FC8327F2
:103D6000C4FDB337F00093F7F70F3E871306101624
:103D7000C567938507173A85EFF08FA8832744FD21
:103D8000B337F00093F7F70F3E8713062016C56789
:103D9000938507173A85EFF0AFA6232604FE232468
:103DA00004FE232204FE832784FD89E78D47232612
:103DB000F4FEA9A18327C4FD83C707008D8B93F769
:103DC000F70F91CB832744FD032744FE98C39947FF
:103DD0002326F4FE21A30325C4FDEFF09F902322A8
:103DE000A4FE832744FD9C43032744FE6379F70226
:103DF000832744FD032744FE98C39D472326F4FEF2
:103E0000832744FE89EF8327C4FD83C70700DD9B1A
:103E100013F7F70F8327C4FD2380E700C1A1832791
:103E2000C4FD83C7070093E7870013F7F70F8327C5
:103E3000C4FD2380E7008327C4FD03C7570183C661
:103E40006701A206558F83C67701C206558F83C7C7
:103E50008701E207D98F3E868327C4FD03C7D700B9
:103E600083C6E700A206558F83C6F700C206558FAA
:103E700083C70701E207D98FB307F6402324F4FE76
:103E8000832744FD9C43032784FE6366F71483273E
:103E9000C4FD03C7170083C62700A206558F83C63B
:103EA0003700C206558F83C74700E207D98F054701
:103EB0006384E70689C70947638FE70A2DA683272E
:103EC000C4FD03C7570083C66700A206558F83C68B
:103ED0007700C206558F83C78700E207D98F3E86D9
:103EE0008327C4FD03C7D70083C6E700A206558F0A
:103EF00083C6F700C206558F83C70701E207D98F33
:103F00003307F600832744FD9C433E86BA8503258C
:103F100084FDEF70F074C1AC8327C4FD03C7570064
:103F200083C66700A206558F83C67700C206558FE9
:103F300083C78700E207D98F3E868327C4FD03C766
:103F4000D70083C6E700A206558F83C6F700C206D6
:103F5000558F83C70701E207D98F86073307F6001D
:103F6000832744FD9C4386073E86BA85032584FD4E
:103F7000EF70106F8DAC8327C4FD03C7570083C655
:103F80006700A206558F83C67700C206558F83C788
:103F90008700E207D98F3E868327C4FD03C7D70079
:103FA00083C6E700A206558F83C6F700C206558F69
:103FB00083C70701E207D98F8A073307F6008327F3
:103FC00044FD9C438A073E86BA85032584FDEF7035
:103FD0003069010009AC8327C4FD03C7170083C6FD
:103FE0002700A206558F83C63700C206558F83C7A8
:103FF0004700E207D98F05476383E70A89C7094766
:104000006381E714CDA28327C4FD03C7570083C68D
:104010006700A206558F83C67700C206558F83C7F7
:104020008700E207D98F3E868327C4FD03C7D700E8
:1040300083C6E700A206558F83C6F700C206558FD8
:1040400083C70701E207D98FB297032684FEBE8596
:10405000032584FDEF70D060032784FD832784FE51
:104060003305F7008327C4FD03C7570083C66700E5
:10407000A206558F83C67700C206558F83C7870077
:10408000E207D98FBE86832744FD9843832784FEA9
:10409000B307F7403E86B685EF70905CA9A28327F0
:1040A000C4FD03C7570083C66700A206558F83C6A9
:1040B0007700C206558F83C78700E207D98F3E86F7
:1040C0008327C4FD03C7D70083C6E700A206558F28
:1040D00083C6F700C206558F83C70701E207D98F51
:1040E00086073307F600832784FE86073E86BA8557
:1040F000032584FDEF70D056832784FE86070327AF
:1041000084FD3305F7008327C4FD03C7570083C62A
:104110006700A206558F83C67700C206558F83C7F6
:104120008700E207D98FBE86832744FD9843832703
:1041300084FEB307F74086073E86B685EF7050527F
:104140005DA08327C4FD03C7570083C66700A2068E
:10415000558F83C67700C206558F83C78700E20755
:10416000D98F3E868327C4FD03C7D70083C6E700E7
:10417000A206558F83C6F700C206558F83C7070175
:10418000E207D98F8A073307F600832784FE8A0760
:104190003E86BA85032584FDEF70904C832784FE0C
:1041A0008A07032784FD3305F7008327C4FD03C76F
:1041B000570083C66700A206558F83C67700C206E4
:1041C000558F83C78700E207D98FBE86832744FDBA
:1041D0009843832784FEB307F7408A073E86B68557
:1041E000EF70104801008327C4FD83C70700DD9BE3
:1041F00013F7F70F8327C4FD2380E700832704FD0F
:10420000F1EF8327C4FD03C70700AD476316F7002E
:1042100089472326F4FED9A08327C4FD83C707005E
:1042200093E7270013F7F70F8327C4FD2380E700E8
:10423000832744FD9C43BE850325C4FDEFF08F8D8D
:104240008327C4FD03C7170183C62701A206558F24
:1042500083C63701C206558F83C74701E207D98F4E
:104260003E87832744FD9C433E978327C4FD937577
:10427000F70F83C61701818A3686AE86D18EA38852
:10428000D7009356870093F5F60F83C62701818ADE
:104290003686AE86D18E2389D7009356070193F5D3
:1042A000F60F83C63701818A3686AE86D18EA38902
:1042B000D7001356870103C74701018BBA8632879F
:1042C000558F238AE7008327C4FD83C70700F59B2A
:1042D00013F7F70F8327C4FD2380E7008327C4FE6D
:1042E0003E85B250225445618280397106DE22DC5F
:1042F00080002326A4FC2324B4FC8327C4FCB3370A
:10430000F00093F7F70F3E8713060008C567938503
:10431000071D3A85EFE0DFCEA30704FE232404FE49
:104320008327C4FCE1CB832784FC63D30702832764
:10433000C4FC138717002326E4FC1307D002238054
:10434000E700832784FCB307F0402324F4FCB9A8DA
:10435000832784FCA1EF8327C4FC13070003238079
:10436000E70051A8032784FCA947B367F702232479
:10437000F4FE832784FE13D7F741832784FEB98F89
:10438000998F0347F4FE93061700A307D4FEBA865D
:1043900013F7F70F930704FFB6972384E7FE03276D
:1043A00084FCA947B347F7022324F4FC832784FC49
:1043B000D5FB2DA88347F4FEFD17130704FFBA971A
:1043C00083C787FE9387070393F6F70F8327C4FC01
:1043D000138717002326E4FC139786016187238047
:1043E000E7008347F4FEFD17A307F4FE8347F4FEBE
:1043F000F1F311A001000100F250625421618280AA
:10440000411122C600089967938787087390078037
:104410000100324441018280411122C6000899679F
:10442000739007800100324441018280011122CE45
:1044300000102326A4FE8327C4FEFD8B0547B31678
:10444000F70037E700E08327C4FE958393870704CE
:104450008A07BA9794C301007244056182800111F2
:1044600022CE00102326A4FE8327C4FEFD8B054721
:10447000B316F70037E700E08327C4FE95839387E0
:1044800007068A07BA9794C30100724405618280C7
:10449000011122CE00102326A4FEAE87A305F4FE50
:1044A00037E700E08327C4FEBA970347B4FE2380B2
:1044B000E7400100724405618280011106CE22CCE2
:1044C00000102326A4FE0325C4FE8D370100F24010
:1044D000624405618280011106CE22CC00102326A1
:1044E000A4FE0325C4FEA53F0100F240624405611D
:1044F0008280011106CE22CC00102326A4FEAE87B6
:10450000A305F4FE8347B4FEBE850325C4FE4937E8
:104510000100F240624405618280011106CE22CC86
:1045200000102326A4FE8327C4FE99C783A7C18653
:104530001387F7FF23A6E18683A7C18691E3C935D8
:104540000100F240624405618280411106C622C426
:10455000000883A7C18691E3C13583A7C18613876D
:10456000170023A6E18683A7C1863E85B240224478
:1045700041018280411106C622C400080145713FF5
:104580000100B240224441018280357106CF16CD30
:104590001ACB1EC922C72AC52EC332C1B6DEBADC69
:1045A000BEDAC2D8C6D6F2D4F6D2FAD0FECE82E6B1
:1045B00086E48AE28EE012FE16FC1AFA1EF82AF64B
:1045C0002EF432F236F03AEE3EEC42EA46E872E67B
:1045D00076E47AE27EE0001193055052B74701403D
:1045E00013850780EF30C027AA8789CB93055052E7
:1045F000B747014013850780EF30A0360100FA402D
:10460000EA425A43CA433A442A459A450A46F6566C
:104610006657D6574658B658265E965E065FF64FE2
:104620003660A660166186617272E2725273C2735E
:104630003275A275127682767267E2675268C26836
:10464000326EA26E126F826F0D6173002030357171
:1046500006CF16CD1ACB1EC922C72AC52EC332C11A
:10466000B6DEBADCBEDAC2D8C6D6F2D4F6D2FAD0FA
:10467000FECE82E686E48AE28EE012FE16FC1AFA8C
:104680001EF82AF62EF432F236F03AEE3EEC42EA0A
:1046900046E872E676E47AE27EE000119305505235
:1046A000B747004013850740EF30801BAA8789CBAE
:1046B00093055052B747004013850740EF30602AFA
:1046C0000100FA40EA425A43CA433A442A459A450D
:1046D0000A46F6566657D6574658B658265E965E30
:1046E000065FF64F3660A660166186617272E272EE
:1046F0005273C2733275A275127682767267E26760
:104700005268C268326EA26E126F826F0D617300C2
:104710002030357106CF16CD1ACB1EC922C72AC547
:104720002EC332C1B6DEBADCBEDAC2D8C6D6F2D4E7
:10473000F6D2FAD0FECE82E686E48AE28EE012FE5F
:1047400016FC1AFA1EF82AF62EF432F236F03AEE79
:104750003EEC42EA46E872E676E47AE27EE0001158
:1047600093055052B757004013850780EF30400F34
:10477000AA8789CB93055052B7570040138507800D
:10478000EF30201E0100FA40EA425A43CA433A443D
:104790002A459A450A46F6566657D6574658B65899
:1047A000265E965E065FF64F3660A66016618661ED
:1047B0007272E2725273C2733275A2751276827689
:1047C0007267E2675268C268326EA26E126F826FC1
:1047D0000D6173002030357106CF16CD1ACB1EC97E
:1047E00022C72AC52EC332C1B6DEBADCBEDAC2D8B1
:1047F000C6D6F2D4F6D2FAD0FECE82E686E48AE2BB
:104800008EE012FE16FC1AFA1EF82AF62EF432F288
:1048100036F03AEE3EEC42EA46E872E676E47AE2B8
:104820007EE0001193055052B7570040138507C032
:10483000EF300003AA8789CB93055052B757004049
:10484000138507C0EF30E0110100FA40EA425A43F5
:10485000CA433A442A459A450A46F6566657D657F9
:104860004658B658265E965E065FF64F3660A660DE
:10487000166186617272E2725273C2733275A275EA
:10488000127682767267E2675268C268326EA26EF2
:10489000126F826F0D6173002030357106CF16CD17
:1048A0001ACB1EC922C72AC52EC332C1B6DEBADC56
:1048B000BEDAC2D8C6D6F2D4F6D2FAD0FECE82E69E
:1048C00086E48AE28EE012FE16FC1AFA1EF82AF638
:1048D0002EF432F236F03AEE3EEC42EA46E872E668
:1048E00076E47AE27EE0001193055052375500409D
:1048F000EF201077AA8781CFB707002083A7472929
:1049000082979305505237550040EF3080050100E3
:10491000FA40EA425A43CA433A442A459A450A466B
:10492000F6566657D6574658B658265E965E065FC8
:10493000F64F3660A660166186617272E27252733B
:10494000C2733275A275127682767267E267526818
:10495000C268326EA26E126F826F0D6173002030DA
:10496000357106CF16CD1ACB1EC922C72AC52EC354
:1049700032C1B6DEBADCBEDAC2D8C6D6F2D4F6D2BE
:10498000FAD0FECE82E686E48AE28EE012FE16FCC3
:104990001AFA1EF82AF62EF432F236F03AEE3EEC0F
:1049A00042EA46E872E676E47AE27EE00011930598
:1049B0005052B727004013850780EF20706AAA87FE
:1049C00089CB93055052B727004013850780EF200D
:1049D00050790100FA40EA425A43CA433A442A4510
:1049E0009A450A46F6566657D6574658B658265E32
:1049F000965E065FF64F3660A6601661866172723B
:104A0000E2725273C2733275A27512768276726741
:104A1000E2675268C268326EA26E126F826F0D61D9
:104A200073002030357106CF16CD1ACB1EC922C7B0
:104A30002AC52EC332C1B6DEBADCBEDAC2D8C6D6AB
:104A4000F2D4F6D2FAD0FECE82E686E48AE28EE096
:104A500012FE16FC1AFA1EF82AF62EF432F236F07E
:104A60003AEE3EEC42EA46E872E676E47AE27EE02E
:104A7000001193055052B7270040138507C0EF205F
:104A8000305EAA8781CF83A7C18082979305505259
:104A9000B7270040138507C0EF20B06C0100FA4033
:104AA000EA425A43CA433A442A459A450A46F656C8
:104AB0006657D6574658B658265E965E065FF64F3E
:104AC0003660A660166186617272E2725273C273BA
:104AD0003275A275127682767267E2675268C26892
:104AE000326EA26E126F826F0D61730020303571CD
:104AF00006CF16CD1ACB1EC922C72AC52EC332C176
:104B0000B6DEBADCBEDAC2D8C6D6F2D4F6D2FAD055
:104B1000FECE82E686E48AE28EE012FE16FC1AFAE7
:104B20001EF82AF62EF432F236F03AEE3EEC42EA65
:104B300046E872E676E47AE27EE000119305505290
:104B400037250040EF20D051AA8799CBEFD08F9A1C
:104B5000EF4000399305505237250040EF20706038
:104B60000100FA40EA425A43CA433A442A459A4568
:104B70000A46F6566657D6574658B658265E965E8B
:104B8000065FF64F3660A660166186617272E27249
:104B90005273C2733275A275127682767267E267BB
:104BA0005268C268326EA26E126F826F0D6173001E
:104BB0002030357106CF16CD1ACB1EC922C72AC5A3
:104BC0002EC332C1B6DEBADCBEDAC2D8C6D6F2D443
:104BD000F6D2FAD0FECE82E686E48AE28EE012FEBB
:104BE00016FC1AFA1EF82AF62EF432F236F03AEED5
:104BF0003EEC42EA46E872E676E47AE27EE00011B4
:104C0000B707055083C7070193F7F70F918B8DC343
:104C100083A781808297B707055083C7070113F7E1
:104C2000F70FB70705506D9B1377F70F2388E70041
:104C30000100FA40EA425A43CA433A442A459A4597
:104C40000A46F6566657D6574658B658265E965EBA
:104C5000065FF64F3660A660166186617272E27278
:104C60005273C2733275A275127682767267E267EA
:104C70005268C268326EA26E126F826F0D6173004D
:104C80002030357106CF16CD1ACB1EC922C72AC5D2
:104C90002EC332C1B6DEBADCBEDAC2D8C6D6F2D472
:104CA000F6D2FAD0FECE82E686E48AE28EE012FEEA
:104CB00016FC1AFA1EF82AF62EF432F236F03AEE04
:104CC0003EEC42EA46E872E676E47AE27EE00011E3
:104CD0000545EF1060032A8785476315F7000545F2
:104CE000EF10E0070100FA40EA425A43CA433A444F
:104CF0002A459A450A46F6566657D6574658B65834
:104D0000265E965E065FF64F3660A6601661866187
:104D10007272E2725273C2733275A2751276827623
:104D20007267E2675268C268326EA26E126F826F5B
:104D30000D6173002030357106CF16CD1ACB1EC918
:104D400022C72AC52EC332C1B6DEBADCBEDAC2D84B
:104D5000C6D6F2D4F6D2FAD0FECE82E686E48AE255
:104D60008EE012FE16FC1AFA1EF82AF62EF432F223
:104D700036F03AEE3EEC42EA46E872E676E47AE253
:104D80007EE000110945EF0030782A8785476315DA
:104D9000F7000945EF00B07C0100FA40EA425A43AF
:104DA000CA433A442A459A450A46F6566657D657A4
:104DB0004658B658265E965E065FF64F3660A66089
:104DC000166186617272E2725273C2733275A27595
:104DD000127682767267E2675268C268326EA26E9D
:104DE000126F826F0D6173002030357106CF16CDC2
:104DF0001ACB1EC922C72AC52EC332C1B6DEBADC01
:104E0000BEDAC2D8C6D6F2D4F6D2FAD0FECE82E648
:104E100086E48AE28EE012FE16FC1AFA1EF82AF6E2
:104E20002EF432F236F03AEE3EEC42EA46E872E612
:104E300076E47AE27EE000111145EF00F06C2A87FB
:104E400085476317F7001145EF007071EF30D065AB
:104E50000100FA40EA425A43CA433A442A459A4575
:104E60000A46F6566657D6574658B658265E965E98
:104E7000065FF64F3660A660166186617272E27256
:104E80005273C2733275A275127682767267E267C8
:104E90005268C268326EA26E126F826F0D6173002B
:104EA0002030357106CF16CD1ACB1EC922C72AC5B0
:104EB0002EC332C1B6DEBADCBEDAC2D8C6D6F2D450
:104EC000F6D2FAD0FECE82E686E48AE28EE012FEC8
:104ED00016FC1AFA1EF82AF62EF432F236F03AEEE2
:104EE0003EEC42EA46E872E676E47AE27EE00011C1
:104EF0002145EF0070612A8785476315F70021453A
:104F0000EF00F0650100FA40EA425A43CA433A44CE
:104F10002A459A450A46F6566657D6574658B65811
:104F2000265E965E065FF64F3660A6601661866165
:104F30007272E2725273C2733275A2751276827601
:104F40007267E2675268C268326EA26E126F826F39
:104F50000D6173002030357106CF16CD1ACB1EC9F6
:104F600022C72AC52EC332C1B6DEBADCBEDAC2D829
:104F7000C6D6F2D4F6D2FAD0FECE82E686E48AE233
:104F80008EE012FE16FC1AFA1EF82AF62EF432F201
:104F900036F03AEE3EEC42EA46E872E676E47AE231
:104FA0007EE000114145EF0030562A8785476315A2
:104FB000F7004145EF00B05A0100FA40EA425A4377
:104FC000CA433A442A459A450A46F6566657D65782
:104FD0004658B658265E965E065FF64F3660A66067
:104FE000166186617272E2725273C2733275A27573
:104FF000127682767267E2675268C268326EA26E7B
:10500000126F826F0D6173002030357106CF16CD9F
:105010001ACB1EC922C72AC52EC332C1B6DEBADCDE
:10502000BEDAC2D8C6D6F2D4F6D2FAD0FECE82E626
:1050300086E48AE28EE012FE16FC1AFA1EF82AF6C0
:105040002EF432F236F03AEE3EEC42EA46E872E6F0
:1050500076E47AE27EE0001113050002EF00D04A08
:105060002A8785476316F70013050002EF00304FCB
:1050700013050004EF0050492A8785476316F7009F
:1050800013050004EF00B04D13050008EF00D047F2
:105090002A8785476316F70013050008EF00304C98
:1050A00013050010EF0050462A8785476316F70066
:1050B00013050010EF00B04A13050020EF00D044A4
:1050C0002A8785476316F70013050020EF00304953
:1050D0000100FA40EA425A43CA433A442A459A45F3
:1050E0000A46F6566657D6574658B658265E965E16
:1050F000065FF64F3660A660166186617272E272D4
:105100005273C2733275A275127682767267E26745
:105110005268C268326EA26E126F826F0D617300A8
:105120002030357106CF16CD1ACB1EC922C72AC52D
:105130002EC332C1B6DEBADCBEDAC2D8C6D6F2D4CD
:10514000F6D2FAD0FECE82E686E48AE28EE012FE45
:1051500016FC1AFA1EF82AF62EF432F236F03AEE5F
:105160003EEC42EA46E872E676E47AE27EE000113E
:1051700013050040EF0050392A8785476316F70072
:1051800013050040EF00B03D856713850780EF00F1
:10519000B0372A8785476317F7008567138507802F
:1051A000EF00F03B0565EF0030362A878547631531
:1051B000F7000565EF00B03A0965EF00F0342A8783
:1051C00085476318F70083A7018182970965EF007F
:1051D00010391165EF0050332A8785476317F700B0
:1051E000EFC03FAE1165EF0090372165EF00D03181
:1051F0002A8785476317F700EFC05F9D2165EF00A1
:1052000010360100FA40EA425A43CA433A442A455A
:105210009A450A46F6566657D6574658B658265EF9
:10522000965E065FF64F3660A66016618661727202
:10523000E2725273C2733275A27512768276726709
:10524000E2675268C268326EA26E126F826F0D61A1
:1052500073002030357106CF16CD1ACB1EC922C778
:105260002AC52EC332C1B6DEBADCBEDAC2D8C6D673
:10527000F2D4F6D2FAD0FECE82E686E48AE28EE05E
:1052800012FE16FC1AFA1EF82AF62EF432F236F046
:105290003AEE3EEC42EA46E872E676E47AE27EE0F6
:1052A00000118545B7370140138507C0EF20A014D2
:1052B000AA8781CB8545B7370140138507C0EF200A
:1052C000801A0100FA40EA425A43CA433A442A4546
:1052D0009A450A46F6566657D6574658B658265E39
:1052E000965E065FF64F3660A66016618661727242
:1052F000E2725273C2733275A27512768276726749
:10530000E2675268C268326EA26E126F826F0D61E0
:1053100073002030357106CF16CD1ACB1EC922C7B7
:105320002AC52EC332C1B6DEBADCBEDAC2D8C6D6B2
:10533000F2D4F6D2FAD0FECE82E686E48AE28EE09D
:1053400012FE16FC1AFA1EF82AF62EF432F236F085
:105350003AEE3EEC42EA46E872E676E47AE27EE035
:105360000011854537050040EF20E008AA8791C766
:10537000854537050040EF20000F0100FA40EA4262
:105380005A43CA433A442A459A450A46F65666574E
:10539000D6574658B658265E965E065FF64F36607C
:1053A000A660166186617272E2725273C2733275C0
:1053B000A275127682767267E2675268C268326EB0
:1053C000A26E126F826F0D6173002030357106CFAF
:1053D00016CD1ACB1EC922C72AC52EC332C1B6DECE
:1053E000BADCBEDAC2D8C6D6F2D4F6D2FAD0FECE35
:1053F00082E686E48AE28EE012FE16FC1AFA1EF8B5
:105400002AF62EF432F236F03AEE3EEC42EA46E864
:1054100072E676E47AE27EE000118545B707004047
:1054200013850740EF10307DAA8781CB8545B707EC
:10543000004013850740EF2000030100FA40EA42D4
:105440005A43CA433A442A459A450A46F65666578D
:10545000D6574658B658265E965E065FF64F3660BB
:10546000A660166186617272E2725273C2733275FF
:10547000A275127682767267E2675268C268326EEF
:10548000A26E126F826F0D6173002030357106CFEE
:1054900016CD1ACB1EC922C72AC52EC332C1B6DE0D
:1054A000BADCBEDAC2D8C6D6F2D4F6D2FAD0FECE74
:1054B00082E686E48AE28EE012FE16FC1AFA1EF8F4
:1054C0002AF62EF432F236F03AEE3EEC42EA46E8A4
:1054D00072E676E47AE27EE000118545B717004077
:1054E00013850780EF103071AA8781CB8545B717E8
:1054F000004013850780EF1010770100FA40EA4260
:105500005A43CA433A442A459A450A46F6566657CC
:10551000D6574658B658265E965E065FF64F3660FA
:10552000A660166186617272E2725273C27332753E
:10553000A275127682767267E2675268C268326E2E
:10554000A26E126F826F0D6173002030357106CF2D
:1055500016CD1ACB1EC922C72AC52EC332C1B6DE4C
:10556000BADCBEDAC2D8C6D6F2D4F6D2FAD0FECEB3
:1055700082E686E48AE28EE012FE16FC1AFA1EF833
:105580002AF62EF432F236F03AEE3EEC42EA46E8E3
:1055900072E676E47AE27EE000118545B7170040B6
:1055A000138507C0EF103065AA8781CB8545B717F3
:1055B0000040138507C0EF10106B0100FA40EA426B
:1055C0005A43CA433A442A459A450A46F65666570C
:1055D000D6574658B658265E965E065FF64F36603A
:1055E000A660166186617272E2725273C27332757E
:1055F000A275127682767267E2675268C268326E6E
:10560000A26E126F826F0D6173002030357106CF6C
:1056100016CD1ACB1EC922C72AC52EC332C1B6DE8B
:10562000BADCBEDAC2D8C6D6F2D4F6D2FAD0FECEF2
:1056300082E686E48AE28EE012FE16FC1AFA1EF872
:105640002AF62EF432F236F03AEE3EEC42EA46E822
:1056500072E676E47AE27EE0001185453715004077
:10566000EF107059AA8781CB854537150040EF10A0
:10567000905FEF30F02D0100FA40EA425A43CA43EE
:105680003A442A459A450A46F6566657D65746582A
:10569000B658265E965E065FF64F3660A6601661C7
:1056A00086617272E2725273C2733275A27512769B
:1056B00082767267E2675268C268326EA26E126FBB
:1056C000826F0D6173002030357106CF16CD1ACB75
:1056D0001EC922C72AC52EC332C1B6DEBADCBEDA65
:1056E000C2D8C6D6F2D4F6D2FAD0FECE82E686E48E
:1056F0008AE28EE012FE16FC1AFA1EF82AF62EF442
:1057000032F236F03AEE3EEC42EA46E872E676E4F1
:105710007AE27EE000118545B71700401385074007
:10572000EF10704DAA8781CB8545B71700401385D0
:105730000740EF1050530100FA40EA425A43CA436F
:105740003A442A459A450A46F6566657D657465869
:10575000B658265E965E065FF64F3660A660166106
:1057600086617272E2725273C2733275A2751276DA
:1057700082767267E2675268C268326EA26E126FFA
:10578000826F0D6173002030357106CF16CD1ACBB4
:105790001EC922C72AC52EC332C1B6DEBADCBEDAA4
:1057A000C2D8C6D6F2D4F6D2FAD0FECE82E686E4CD
:1057B0008AE28EE012FE16FC1AFA1EF82AF62EF481
:1057C00032F236F03AEE3EEC42EA46E872E676E431
:1057D0007AE27EE000118545B73701401385074026
:1057E000EF107041AA8781CB8545B73701401385FB
:1057F0000740EF1050470100FA40EA425A43CA43BB
:105800003A442A459A450A46F6566657D6574658A8
:10581000B658265E965E065FF64F3660A660166145
:1058200086617272E2725273C2733275A275127619
:1058300082767267E2675268C268326EA26E126F39
:10584000826F0D6173002030357106CF16CD1ACBF3
:105850001EC922C72AC52EC332C1B6DEBADCBEDAE3
:10586000C2D8C6D6F2D4F6D2FAD0FECE82E686E40C
:105870008AE28EE012FE16FC1AFA1EF82AF62EF4C0
:1058800032F236F03AEE3EEC42EA46E872E676E470
:105890007AE27EE000118545B7570140138507C0C5
:1058A000EF107035AA8781CB8545B7570140138526
:1058B00007C0EF10503B0100FA40EA425A43CA4386
:1058C0003A442A459A450A46F6566657D6574658E8
:1058D000B658265E965E065FF64F3660A660166185
:1058E00086617272E2725273C2733275A275127659
:1058F00082767267E2675268C268326EA26E126F79
:10590000826F0D6173002030357106CF16CD1ACB32
:105910001EC922C72AC52EC332C1B6DEBADCBEDA22
:10592000C2D8C6D6F2D4F6D2FAD0FECE82E686E44B
:105930008AE28EE012FE16FC1AFA1EF82AF62EF4FF
:1059400032F236F03AEE3EEC42EA46E872E676E4AF
:105950007AE27EE00011854537550140EF10B0290D
:10596000AA8791C7854537550140EF10D02F010018
:10597000FA40EA425A43CA433A442A459A450A46FB
:10598000F6566657D6574658B658265E965E065F58
:10599000F64F3660A660166186617272E2725273CB
:1059A000C2733275A275127682767267E2675268A8
:1059B000C268326EA26E126F826F0D61730020306A
:1059C000411122C600080100324441017300203019
:1059D000411122C6000801A0411106C622C40008D8
:1059E000B7172707138507E0EFC07FFBEFD0EFF570
:1059F000EF20D07B81460146B7970000938587B69C
:105A0000138501ADEF30C06481460146B7970000B1
:105A1000938567B7138501AEEF30806389460946E9
:105A2000B7970000938507BD138501AFEF30406243
:105A300085460946B79700009385E7BF138501B0F7
:105A4000EF300061EF30006C81473E85B240224468
:105A50004101828001A001A001A001A001A001A03C
:105A600001A001A001A001A001A001A001A001A02E
:105A700001A001A001A001A001A001A001A001A01E
:105A800001A001A001A001A001A001A001A001A00E
:105A900001A001A001A001A001A001A001A001A0FE
:105AA00001A001A001A001A001A001A001A001A0EE
:105AB00001A001A001A001A001A001A001A001A0DE
:105AC00001A001A001A001A001A001A001A001A0CE
:105AD00001A001A001A001A001A001A001A001A0BE
