:100000006F400060130000001300000013000000A8
:100010001300000013000000130000001300000094
:100020001300000013000000130000001300000084
:08003000130000007300100032
:100038000000000000000000FA4400000A4500002B
:10004800000000004645000000000000000000001D
:10005800484500004A45000000000000000000007C
:100068004C450000000000004E4500000000000064
:100078005045000052450000544500005645000018
:10008800584500005A450000BC3700007038000091
:1000980024390000D83900008C3A00006645000079
:1000A800684500006A4500006C4500006E45000088
:1000B8007045000072450000744500007645000058
:1000C800784500007A4500007C450000403B000070
:1000D800804500008A3D00008445000086450000F8
:1000E8004A3E0000023F0000C23F00008E4500006B
:1000F8009045000092450000944500009645000098
:1001080098450000C4300000883100004C320000DF
:10011800583C0000A2450000A4450000A645000088
:10012800C2420000AA450000AC450000AE450000F0
:10013800B0450000B245000082400000B64500000E
:1001480010330000D433000042410000FE4100009B
:10015800C0450000C2450000C4450000C645000077
:10016800C8450000CA450000CC450000CE45000047
:10017800D0450000D2450000D4450000F4550000E9
:10018800D8450000DA450000EC3600009A3400003B
:100198005E35000028360000E44500008243000078
:1001A800E8450000EA450000EC4500004244000034
:1001B800F0450000F2450000F4450000F645000057
:1001C800F8450000FA450000FC450000FE45000027
:1001D8000000000000000000000000000000000017
:1001E8000000000000000000000000000000000007
:0801F8000000000000000000FF
:100200003D432A876373C3029377F700BDEFADE5E3
:10021000937606FF3D8ABA960CC34CC30CC74CC7F5
:100220004107E36BD7FE11E28280B306C3408A0622
:100230009702000096966780A6002307B700A306E2
:10024000B7002306B700A305B7002305B700A30432
:10025000B7002304B700A303B7002303B700A3022A
:10026000B7002302B700A301B7002301B700A30022
:10027000B7002300B700828093F5F50F93968500B1
:10028000D58D93960501D58D61B79396270097027A
:10029000000096968682E78086FA9680C1171D8FA9
:1002A0003E96E374C3F8A5B7011122CE00102326B1
:1002B000A4FE8327C4FE958313F77700B7070020B9
:1002C0000A0793870704BA979C439C470327C4FEF9
:1002D0007D8B85463397E600F98FB337F00093F7AF
:1002E000F70F3E85724405618280797106D622D46B
:1002F0000018232EA4FC232CB4FCB2872328D4FCA2
:10030000A30BF4FC232004FE232204FE232404FE7A
:100310008327C4FD958393F7F70F9D8BA307F4FE06
:100320008327C4FD93F7F70FFD8B2307F4FE834764
:10033000F4FE91E785451145EF40D00E91A80347A3
:10034000F4FE85476317F70085452145EF40900D82
:1003500081A00347F4FE89476317F70085454145AF
:10036000EF40500C35A00347F4FE8D476318F700AB
:10037000854513050002EF40F00A19A80347F4FE73
:1003800091476317F700854513050004EF40900976
:100390008347E4FE0547B317F700C207C183231064
:1003A000F4FE032784FD85476317F702832704FDC6
:1003B000C207C183A183C207C18389E78D47232276
:1003C000F4FE11A8832704FDC207C183A183C207DD
:1003D000C1832322F4FE832704FDC207C18393F760
:1003E000F70F2324F4FE0347F4FEB70700200A07A3
:1003F00093870704BA979C43130704FEBA853E858A
:10040000EF40C02F032784FD85476319F702034798
:10041000F4FEB70700200A0793870704BA979443AE
:100420008347E4FE0547B317F700C207C1830347BC
:1004300074FD3A86BE853685EF40E04E0100B2502D
:100440002254456182801D7186CEA2CC8010232665
:10045000A4FA2324B4FA85450325C4FAFD2AAA8701
:100460003E871306D006BD679385C7813A85EF1096
:10047000407E832784FAB337F00093F7F70F3E8767
:100480001306F006BD679385C7813A85EF10607C3F
:10049000832784FABD832315F4FE8357A4FE8507C2
:1004A0003E87832784FAB3D7E7022314F4FE03259B
:1004B000C4FA3924B7370140938707C02326F4FED6
:1004C0000327C4FAA54763ECE7088327C4FA139708
:1004D0002700BD67938787CBBA979C438287B7373E
:1004E0000140938707C02326F4FE95A8B707004074
:1004F0002326F4FEADA0B7070040938707402326CC
:10050000F4FEB1A8B7170040938707802326F4FEB6
:10051000B9A0B7170040938707C02326F4FE81A037
:10052000B71700402326F4FE1DA8B7170040938795
:1005300007402326F4FE25A0B737014093870740E4
:100540002326F4FE29A8B7570140938707C0232626
:10055000F4FE31A0B75701402326F4FE0100232EFC
:1005600004FC232004FE231204FE835784FE231080
:10057000F4FE8357A4FE231EF4FC231104FE231F64
:1005800004FC230204FE9307C4FDBE850325C4FEBC
:10059000EF400072054685450325C4FEEF40B00ECE
:1005A00085450325C4FEEF40101CB96703AE477FA5
:1005B0001387477F032347001387477F83288700DC
:1005C0001387477F0328C7001387477F084B13878C
:1005D000477F4C4B1387477F104F1387477F544FFC
:1005E0001387477F18539387477FDC53232AC4FB25
:1005F000232C64FA232E14FB232004FD2322A4FCC5
:100600002324B4FC2326C4FC2328D4FC232AE4FCA2
:10061000232CF4FC8327C4FA93F7F70F8A071307F8
:1006200004FFBA9783A747FC8D453E85EF20102035
:100630008327C4FA8A07130704FFBA9783A747FCE6
:100640003E85EF20301B85450325C4FEEF40207E0C
:100650000100F640664425618280797122D6001837
:10066000232EA4FC232CB4FC8547A307F4FE032708
:10067000C4FD0A079387018ABA979C4399EB032725
:10068000C4FD0A079387018ABA97032784FD98C39C
:1006900015A00327C4FD0A079387018ABA979C43D4
:1006A000032784FD6316F7008547A307F4FE19A00E
:1006B000A30704FE8347F4FE3E85325445618280E1
:1006C000011106CE22CC00102326A4FE8327C4FEEF
:1006D00081EB8545856713850780EF40A0546DA8A1
:1006E0000327C4FE85476317F70085450545EF409E
:1006F000C0575DA00327C4FE89476317F7008545EF
:100700000945EF40805649A80327C4FE8D4763176B
:10071000F70085451145EF404055BDA80327C4FEAD
:1007200091476317F70085452145EF400054ADA080
:100730000327C4FE95476317F70085454145EF4001
:10074000C05299A80327C4FE99476318F70085454E
:1007500013050002EF40605181A00327C4FE9D47AE
:100760006317F70085450965EF40C04B35A00327A7
:10077000C4FEA1476318F700854537050800EF4020
:10078000604A19A80327C4FEA5476317F7008545EB
:1007900037051000EF4000490100F2406244056156
:1007A0008280797122D60018232EA4FCB73701402D
:1007B000938707C02326F4FE231504FE0327C4FDF8
:1007C000A54763ECE7088327C4FD13972700BD679F
:1007D000938707CEBA979C438287B73701409387A8
:1007E00007C02326F4FE95A8B70700402326F4FE91
:1007F000ADA0B7070040938707402326F4FEB1A8B9
:10080000B7170040938707802326F4FEB9A0B717D7
:100810000040938707C02326F4FE81A0B71700404D
:100820002326F4FE1DA8B717004093870740232610
:10083000F4FE25A0B7370140938707402326F4FE36
:1008400029A8B7570140938707C02326F4FE31A09B
:10085000B75701402326F4FE01000327C4FD0A0711
:100860009387818CBA9798438947631FF700832742
:10087000C4FE83D747021397070141838D47B357BF
:10088000F7022315F4FE39A08327C4FE83D747025D
:100890002315F4FE8357A4FE3E85325445618280C1
:1008A000797122D60018232EA4FCB7370140938714
:1008B00007C02326F4FE0327C4FDA54763ECE70821
:1008C0008327C4FD13972700BD67938787D0BA9706
:1008D0009C438287B7370140938707C02326F4FEE5
:1008E00095A8B70700402326F4FEADA0B707004047
:1008F000938707402326F4FEB1A8B71700409387DB
:1009000007802326F4FEB9A0B7170040938707C0DD
:100910002326F4FE81A0B71700402326F4FE1DA86D
:10092000B7170040938707402326F4FE25A0B7376A
:100930000140938707402326F4FE29A8B7570140BA
:10094000938707C02326F4FE31A0B7570140232622
:10095000F4FE01008327C4FE2392070201003254F3
:1009600045618280011122CE00102326A4FEAE87AD
:10097000A305F4FE0100BD670327C4FE0A079387A1
:1009800007D3BA979C4383D70700C207C18393F765
:100990000708F5D3BD670327C4FE0A07938707D36B
:1009A000BA979C433E878347B4FEC207C183231294
:1009B000F7000100724405618280011106CE22CC4D
:1009C00000102326A4FE2324B4FE2322C4FE832782
:1009D00084FEB337F00093F7F70F3E871306100439
:1009E000BD679385878A3A85EF10A02629A88327BB
:1009F00084FE138717002324E4FE83C70700BE8507
:100A00000325C4FE8537832744FE1387F7FF23227F
:100A1000E4FEF1FF0100F2406244056182800111B1
:100A200006CE22CC00102326A4FE2324B4FE832766
:100A300084FEB337F00093F7F70F3E8713060005E7
:100A4000BD679385878A3A85EF10A02039A8832750
:100A500084FE138717002324E4FE8387070093F79F
:100A6000F70FBE850325C4FEF53D832784FE8387EB
:100A70000700F1FF0100F24062440561828001112C
:100A800006CE22CC00102326A4FEAE87A305F4FEDA
:100A9000BD670327C4FE0A07938707D3BA979C4311
:100AA0003E878347B4FE3E86930550523A85EF4019
:100AB000A077138701838327C4FEBA9783C70700F3
:100AC00081453E85EF2080568347B4FE81CF138752
:100AD00001838327C4FEBA9783C707003E85EF20B2
:100AE000605119A8138701838327C4FEBA9783C76F
:100AF00007003E85EF20C0510100F24062440561CD
:100B00008280011122CE00102326A4FE2324B4FEED
:100B1000BD670327C4FE0A07938707D3BA979C4390
:100B200083D70700C207C18393F707028DC7BD674C
:100B30000327C4FE0A07938707D3BA979C4383D73A
:100B40004700C207C18313F7F70F832784FE238072
:100B5000E700854711A081473E8572440561828088
:100B6000797106D622D40018232EA4FC232CB4FCC1
:100B7000232AC4FC2328D4FC032744FD832704FD37
:100B80003D8F8327C4FDB207F98F93B7170093F702
:100B9000F70F3E871306A00ABD679385878A3A85BB
:100BA000EF10200B832744FD13D78700832704FD14
:100BB000A183B307F74093B7170093F7F70F3E876A
:100BC0001306B00ABD679385878A3A85EF106008DF
:100BD000832744FD93F7F70FE146014685453E859F
:100BE000EFF0AFF0832704FD93F7F70F930680042F
:100BF000014681453E85EFF04FEF85450545EF40C5
:100C00006002032744FDC167FD17F98F0D671307C5
:100C100007386387E7200D67130707386369F70410
:100C20000567130757166381E716056713075716FD
:100C3000636FF7001307F022638AE70C1307603035
:100C40006381E710130760126388E70865A60967E8
:100C500013078736638BE7160D6713070712638741
:100C6000E71809671307A7146380E71461A61567DF
:100C70001307A738638EE72615671307A738636243
:100C8000F7021167130787386380E720156713079A
:100C900087126385E722116713074712638CE71AEF
:100CA00091AE19671307C7386388E72A19671307D6
:100CB000C7386368F7001967130767106384E7266E
:100CC00015AE1D671307E7106382E72C1D67130736
:100CD000E7386387E72E39AEB7070140D44FB7072F
:100CE0000140370700FC7D17758FD8CFB70701404B
:100CF000D843B70701406D9BD8C3B7070140D8431D
:100D0000B707014013674700D8C3EDA4B7070140F8
:100D1000D44FB7070140370700FC7D17758FD8CF38
:100D2000B7070140D44FB707014037070004558F7C
:100D3000D8CFB7070140D843B70701406D9BD8C350
:100D400055ACB7070140D44FB7070140370700FC47
:100D50007D17758FD8CFB7070140D44FB707014033
:100D600037070004558FD8CFB7070140D843B707DE
:100D700001406D9BD8C3B7070140D843B707014076
:100D800013674700D8C3BDA4B7070140D843B707CE
:100D900001405D9BD8C3B7070140D843B707014066
:100DA00013678700D8C3B9A4B7070140D843B70772
:100DB00001401377F7FCD8C3B7070140D843B70702
:100DC000014013670701D8C335A4B7070140D843D2
:100DD000B70701401377F7FCD8C3B7070140D843E2
:100DE000B707014013670703D8C329A4B707014019
:100DF000D44FB70701403707FDFF7D17758FD8CF58
:100E0000B7070140D44F832744FDA18313970701FF
:100E1000B70703007D8FB7070140558FD8CFD9AAF8
:100E2000B7070140D44FB70701403707FDFF7D17D3
:100E3000758FD8CFB7070140D44F832744FDA183D6
:100E400013970701B70703007D8FB7070140558F40
:100E5000D8CF4DA2B7070140D44FB707014037079D
:100E6000F4FF7D17758FD8CFB7070140D44F832784
:100E700044FDA18313972701B7070C007D8FB707A7
:100E80000140558FD8CFBDA2B7070140D44FB70757
:100E900001403707F4FF7D17758FD8CFB7070140A2
:100EA000D44F832744FDA18313972701B7070C0074
:100EB0007D8FB7070140558FD8CF2DAAB7070140C6
:100EC000D44FB70701403707D0FF7D17758FD8CFB4
:100ED000B7070140D44F832744FDA18313974701EF
:100EE000B70730007D8FB7070140558FD8CF19A2C3
:100EF000B7070140D44FB70701403707D0FF7D1730
:100F0000758FD8CFB7070140D44F832744FDA18305
:100F100013974701B70730007D8FB7070140558F02
:100F2000D8CFC9A8B7070140D44FB707014037074A
:100F300040FF7D17758FD8CFB7070140D44F832767
:100F400044FDA18313976701B707C0007D8FB707E2
:100F50000140558FD8CF79A8B7070140D44FB707C4
:100F60000140370740FF7D17758FD8CFB707014085
:100F7000D44F832744FDA18313976701B707C000AF
:100F80007D8FB7070140558FD8CFADA0B70701407F
:100F9000D44FB7070140370700FD7D17758FD8CFB5
:100FA000B7070140D44F832744FDA18313978701DE
:100FB000B70700037D8FB7070140558FD8CF1DA815
:100FC000B7070140D44FB7070140370700FD7D1731
:100FD000758FD8CFB7070140D44F832744FDA18335
:100FE00013978701B70700037D8FB7070140558F1F
:100FF000D8CF01008327C4FD91E785451165EF3007
:10100000704269A80327C4FD85476318F70085452A
:1010100037050200EF30704551A00327C4FD894712
:101020006318F700854537050400EF301044BDA074
:101030000327C4FD8D476318F70085453705080071
:10104000EF30B042A1A80327C4FD91476318F70011
:10105000854537051000EF30504189A00327C4FDB6
:1010600095476318F700854513050004EF30F03FFE
:1010700035A00327C4FD99476318F700854513057C
:101080000008EF30903E19A80327C4FD9D47631761
:10109000F700854513050010EF30303D232004FE96
:1010A000232204FE232404FE232604FE832784FD3A
:1010B0002320F4FE231204FE231304FE231404FE53
:1010C000231604FEB1472315F4FEBD670327C4FDB4
:1010D0000A07938707D3BA979C433E87930704FE7A
:1010E000BE853A85EF30106BBD670327C4FD0A0744
:1010F000938707D3BA979C4385453E85EF40C00C44
:101100000100B250225445618280411106C622C4BA
:10111000000883A741840547638BE7006388070CB9
:101120000947638DE7000D47638FE702E9A083A7B6
:1011300001841387170023A0E18475A883A7018485
:101140001387170023A0E18403A70184A54763F157
:10115000E70AB7070020938707049C4B1167D8CB99
:1011600023A0018471A003A7818485476314F70835
:101170001305F008EFF04F93AA87ADC31945EFF0C0
:101180004FE2AA873E8783A701841D8F93076009DA
:1011900063F2E7061945EFF0AFF083A70184D3F7B8
:1011A00017D05385F720EF800022BD6703A68793F1
:1011B00083A6C793EF609066AA872E883E85C28576
:1011C000EF802009AA87139707014183B707002002
:1011D0002398E728094723A4E18429A81945EFF0BB
:1011E0004FDCAA873E8723A0E18429A0010021A02B
:1011F000010011A001000100B2402244410182809F
:10120000411106C622C4000883A741840947637CB4
:10121000F7000D47639AE7001945EFF06FE80547BF
:1012200023A4E18411A001000100B2402244410145
:101230008280011106CE22CC0010232204FE83C737
:10124000D1846381071409A8930734FE0546BE853F
:101250001385018FEF108015930734FEBE851D4561
:10126000EFF03F8AAA87EDF3034734FEA947631BDB
:10127000F71099472322F4FE130744FE930784FED8
:1012800085463A86BE851385018FEF10C07093079F
:1012900084FE138737000D46BD67938507943A8512
:1012A000EF906061AA879DEB03A74185894763049E
:1012B000F70C054723AAE1841385018FEF1060071F
:1012C000AA872322F4FE930744FE81463E86938537
:1012D000C1981385018FEF10006C71A8930784FEED
:1012E000138737000D46BD67938547943A85EF9085
:1012F000805CAA879DEB03A701858947630DF706EC
:10130000054723A8E1841385018FEF108002AA8787
:101310002322F4FE930744FE81463E869385C190C6
:101320001385018FEF102067B9A0930784FE138700
:1013300037000D46BD67938587943A85EF90A05797
:10134000AA8795EB03A7818589476306F7020547BE
:1013500023ACE1841385018FEF00B07DAA8723229F
:10136000F4FE930744FE81463E869385C1A0138513
:10137000018FEF1040621385018FEF001057054772
:101380002386E1840100F2406244056182804111BC
:1013900022C600080100324441018280411122C668
:1013A0000008B71702409843B717024013671700A9
:1013B00098C3B7170240D443B71702403707FFF866
:1013C000758FD8C3B71702409443B7170240370749
:1013D000F7FE7D17758F98C3B71702409443B71770
:1013E00002403707FCFF7D17758F98C3B71702407F
:1013F000D443B7170240370781FF7D17758FD8C3D5
:10140000B717024037079F0098C7010032444101D7
:101410008280797106D622D40018232EA4FCBD3F09
:10142000232604FE232404FEB71702409443B71773
:1014300002404167558F98C3B71702409843B707DA
:101440000200F98F2324F4FE8327C4FE8507232698
:10145000F4FE832784FE91E70327C4FE8567E31D1E
:10146000F7FCB71702409843B7070200F98F89C706
:1014700085472324F4FE19A0232404FE032784FEB9
:1014800085476312F71637170240B71702405843D3
:10149000D8C337170240B71702405843D8C337178D
:1014A0000240B71702405843D8C3B7170240D4438D
:1014B000B71702403707C1FF7D17758FD8C30327C1
:1014C000C4FDB747950893870740631BF700B7171C
:1014D0000240D443B71702404167558FD8C355A87F
:1014E0000327C4FDB7172707938707E0631CF7009E
:1014F000B7170240D443B717024037073900558F5A
:10150000D8C341A80327C4FDB7E7B8059387078070
:10151000631CF700B7170240D443B71702403707E0
:101520002900558FD8C3B5A00327C4FDB7A74A0427
:1015300093870720631CF700B7170240D443B717FF
:10154000024037071D00558FD8C3A1A00327C4FD53
:10155000B777DC02938707C0631CF700B717024018
:10156000D443B717024037071100558FD8C315A0D1
:101570000327C4FDB7376E0193870760631BF7002D
:10158000B7170240D443B717024037070500558FFD
:10159000D8C3B71702409443B7170240370700017A
:1015A000558F98C30100B71702409843B707000250
:1015B000F98FF5DBB7170240D843B7170240719B8C
:1015C000D8C3B7170240D843B717024013672700A4
:1015D000D8C30100B7170240DC4313F7C700A14787
:1015E000E31AF7FE11A001A0B25022544561828097
:1015F000011106CE22CC00102326A4FE0327C4FE30
:1016000023AAE180613B0325C4FE2135EF10302A77
:101610000100F240624405618280411122C6000847
:1016200001000100324441018280011106CE22CC2A
:101630000010232604FE232404FE232604FE25A0F6
:10164000232404FE39A0D13F832784FE8507232469
:10165000F4FE032784FEC167E367F7FE8327C4FE19
:1016600085072326F4FE0327C4FE9307F00FE3F952
:10167000E7FC0100F240624405618280411122C60C
:1016800000080100324441018280011106CE22CCC3
:1016900000102326A4FE8325C4FE1D45EFF02FB8BD
:1016A0000100F240624405618280130101D92326C2
:1016B00011262324812623229126801C232EA4D8A0
:1016C000232CB4D8232AC4D82328D4D8231504FE25
:1016D000231404FE231304FE231204FE231104FE2C
:1016E000032584D9EF90001CAA87C207C187231362
:1016F000F4FE83D7C1A889C79387C1A89C4B829762
:1017000083C7C18593F7F70F638D074A83D7C1A8B5
:10171000638707449387C1A8D447835724FE139750
:101720000701418793170701C1838507C207C1835A
:10173000C207C1872311F4FE93170701C183032653
:10174000C4D9BE8501458296832784D92326F4FE19
:10175000032584D9EF900015AA87C207C1872313F8
:10176000F4FE9387C1A883D727003E879387C1A83B
:1017700083C76700B347F702C207C1872312F4FE8D
:1017800001008327C4FE138717002326E4FE838706
:101790000700E5FB231404FEA1A88327C4FEFD1760
:1017A0002326F4FE8327C4FE038707009307F00275
:1017B000630AF7008327C4FE038707009307C00569
:1017C000631BF700835784FEC207C1838507C207E6
:1017D000C1832314F4FE835764FEC207C187C20786
:1017E000C183FD17C207C183C207C1872313F4FE5B
:1017F000835784FE139707014183854763E8E70019
:10180000835764FEC207C187E3D907F8835764FE94
:10181000C207C18763C207028327C4FE8507232648
:10182000F4FE130704EE0326C4FEBD67938507A3E9
:101830003A85EF90C0021DA8835784FEC207C1837A
:1018400081EF130704EE0326C4FEBD679385C7A38B
:101850003A85EF90C00019A8130704EE0326C4FED2
:10186000BD67938507A33A85EF80707F231504FE3B
:1018700021AA231404FE59A0930704EE3E85EF909D
:1018800060022A87835784FEC207C183BE868357BE
:10189000A4FEC207C1833E86835744FEC207C187A8
:1018A000B307F602B6976367F706835784FEC2074D
:1018B000C1833E878357A4FEC207C183BE86835778
:1018C00044FEC207C187B387F602BA97035784FE66
:1018D00042074183BA86130704FFBA97038707EFCD
:1018E000930704FFB6972388E7EA835784FEC2076D
:1018F000C1838507C207C1832314F4FE835784FE86
:10190000C207C1833E87835744FEC207C187E345B0
:10191000F7F611A00100835784FEC207C1831307A5
:1019200004FFBA97238807EA9387C1A803A8C700D2
:101930009387C1A883C77700139707014183835713
:1019400024FE93960701C18693970601C1838507FC
:10195000C207C183C207C1872311F4FE9397060112
:10196000C183B307F702C207C183130704EA3A86AB
:10197000BE85014502988357A4FEC207C18385072F
:10198000C207C1832315F4FE8357A4FEC207C18397
:10199000BE84930704EE3E85EF80D0702A8783577C
:1019A00044FEC207C187B357F7028507E3E3F4ECAF
:1019B000130704EE032644D9BD679385C7A43A856F
:1019C000EF80F0699387C1A803A8C7009387C1A8D7
:1019D00083C77700139707014183835724FE9396AB
:1019E0000701C18693970601C1838507C207C1839A
:1019F000C207C1872311F4FE93970601C183B30781
:101A0000F702C207C183130704EE3A86BE8501457B
:101A10000298832704D96386071A231504FE21AA96
:101A2000231404FE59A0032504D9EF80B0672A8748
:101A3000835784FEC207C183BE868357A4FEC207B4
:101A4000C1833E86835744FEC207C187B307F602AF
:101A5000B6976368F706835784FEC207C1833E8743
:101A60008357A4FEC207C183BE86835744FEC207C4
:101A7000C187B387F602BA973E87832704D9BA97FE
:101A8000035784FE42074183BA8603870700930702
:101A900004FFB6972388E7EA835784FEC207C18311
:101AA0008507C207C1832314F4FE835784FEC2074F
:101AB000C1833E87835744FEC207C187E345F7F6DB
:101AC00011A00100835784FEC207C183130704FFDE
:101AD000BA97238807EA9387C1A803A8C70093870A
:101AE000C1A883C77700139707014183835724FE5A
:101AF00093960701C18693970601C1838507C207A4
:101B0000C183C207C1872311F4FE93970601C183E5
:101B1000B307F702C207C183130704EA3A86BE85FA
:101B2000014502988357A4FEC207C1838507C207F7
:101B3000C1832315F4FE8357A4FEC207C183BE846C
:101B4000032504D9EF8010562A87835744FEC20725
:101B5000C187B357F7028507E3E4F4EC9DA0930730
:101B600004DA1306001081453E85EFE06FE99387A4
:101B7000C1A89C470325C4D98297832704D999CF4C
:101B8000130504DA032704D9832644D9032684D90C
:101B9000BD67938587A5EF80904C29A8130704DAC9
:101BA000832644D9032684D9BD67938547A73A8500
:101BB000EF80F04A9387C1A89847930704DA3E85DF
:101BC000029701008320C126032481268324412615
:101BD000130101278280797106D622D40018232EA2
:101BE000A4FC232CB4FC232AC4FC232604FEA9A0B5
:101BF0000100BD67938707D3DC4F930500043E8542
:101C0000EF30A071AA87F5D7BD67938707D3DC4F64
:101C1000BE86832784FD13871700232CE4FC83876B
:101C20000700C207C183BE853685EF30206C83274D
:101C3000C4FE85072326F4FE0327C4FE832744FD44
:101C4000E348F7FA832744FD3E85B25022544561AC
:101C50008280011106CE22CC0010AA872324B4FE74
:101C60002322C4FEA307F4FE8347F4FEB1E383C737
:101C7000818193F7F70F8DCF83C7D18591C301A0E1
:101C800083C7D185850713F7F70FA38EE184EF1083
:101C9000603FEFF0BF9E8146032644FE832584FE0D
:101CA000BD671385C7A8EFF05FA0EFF01F98E5B7F9
:101CB0000100F240624405618280011122CE0010D1
:101CC0002326A4FE8327C4FE239007008327C4FE97
:101CD0007D572391E7008327C4FE7D572392E700B9
:101CE0008327C4FE7D572383E7008327C4FE7D57E7
:101CF000A383E7008327C4FE23A407008327C4FE31
:101D000023A607008327C4FE23A80700010072440E
:101D100005618280011122CE00102326A4FE8327B4
:101D2000C4FE03D707002396E1A88327C4FE03D788
:101D300027009387C1A82391E7008327C4FE03D718
:101D400047009387C1A82392E7008327C4FE03C7F7
:101D500067009387C1A82383E7008327C4FE03C7D6
:101D600077009387C1A8A383E7008327C4FE984721
:101D70009387C1A898C78327C4FED8479387C1A873
:101D8000D8C78327C4FE984B9387C1A898CB054733
:101D9000238EE1840100724405618280797106D648
:101DA00022D400189307C4FD3E85013FB7170000F9
:101DB0009387A7682322F4FE9307C4FD3E85993FCD
:101DC0009D679386F7389D671386E738F16793859B
:101DD00007201D45EFE0DFD80100B25022544561D5
:101DE0008280011122CE00102326A4FE2324B4FEFB
:101DF0008327C4FE03C7970083C6A700A206558F9A
:101E000083C6B700C206558F83C7C700E207D98FC4
:101E10003E87832784FE3E978327C4FE9375F70F82
:101E200083C69700818A3686AE86D18EA384D7007A
:101E30009356870093F5F60F83C6A700818A3686EE
:101E4000AE86D18E2385D7009356070193F5F60F02
:101E500083C6B700818A3686AE86D18EA385D70029
:101E60001356870103C7C700018BBA863287558F87
:101E70002386E70055A08327C4FE03C7970083C6C7
:101E8000A700A206558F83C6B700C206558F83C729
:101E9000C700E207D98F3E868327C4FE03C75701D8
:101EA00083C66701A206558F83C67701C206558F88
:101EB00083C78701E207D98F3307F6408327C4FE23
:101EC0009375F70F83C69700818A3686AE86D18ECA
:101ED000A384D7009356870093F5F60F83C6A70017
:101EE000818A3686AE86D18E2385D7009356070128
:101EF00093F5F60F83C6B700818A3686AE86D18EFB
:101F0000A385D7001356870103C7C700018BBA8684
:101F10003287558F2386E7008327C4FE03C7570106
:101F200083C66701A206558F83C67701C206558F07
:101F300083C78701E207D98F3E868327C4FE03C784
:101F4000970083C6A700A206558F83C6B700C206B6
:101F5000558F83C7C700E207D98FE3FEC7F00100A2
:101F6000724405618280011122CE00102326A4FE56
:101F70002324B4FE8327C4FE03C7D70083C6E7002B
:101F8000A206558F83C6F700C206558F83C7070187
:101F9000E207D98F3E87832784FE3E978327C4FEBE
:101FA0009375F70F83C6D700818A3686AE86D18EA9
:101FB000A386D7009356870093F5F60F83C6E700F4
:101FC000818A3686AE86D18E2387D7009356070145
:101FD00093F5F60F83C6F700818A3686AE86D18EDA
:101FE000A387D7001356870103C70701018BBA8661
:101FF0003287558F2388E70055A08327C4FE03C787
:10200000D70083C6E700A206558F83C6F700C20635
:10201000558F83C70701E207D98F3E868327C4FE09
:1020200003C7570183C66701A206558F83C6770190
:10203000C206558F83C78701E207D98F3307F64061
:102040008327C4FE9375F70F83C6D700818A36862F
:10205000AE86D18EA386D7009356870093F5F60FF0
:1020600083C6E700818A3686AE86D18E2387D70065
:102070009356070193F5F60F83C6F700818A3686DB
:10208000AE86D18EA387D7001356870103C70701F9
:10209000018BBA863287558F2388E7008327C4FED9
:1020A00003C7570183C66701A206558F83C6770110
:1020B000C206558F83C78701E207D98F3E868327E3
:1020C000C4FE03C7D70083C6E700A206558F83C6A8
:1020D000F700C206558F83C70701E207D98FE3FED9
:1020E000C7F00100724405618280797106D622D45E
:1020F0000018232EA4FC8327C4FDB337F00093F708
:10210000F70F3E8713065005BD67938587AA3A856A
:102110008936232604FE8327C4FD83C7070093E77F
:10212000170013F7F70F8327C4FD2380E7008327E9
:10213000C4FD03C79700018BA384E70003C7A70072
:10214000018B2385E70003C7B700018BA385E70058
:1021500003C7C700018B2386E7008327C4FD03C79D
:10216000D700018BA386E70003C7E700018B238715
:10217000E70003C7F700018BA387E70003C7070148
:10218000018B2388E7008327C4FD03C7570183C65B
:102190006701A206558F83C67701C206558F83C794
:1021A0008701E207D98F3E878327C4FD9375F70F18
:1021B00083C61701818A3686AE86D18EA388D70062
:1021C0009356870093F5F60F83C62701818A3686DA
:1021D000AE86D18E2389D7009356070193F5F60F6B
:1021E00083C63701818A3686AE86D18EA389D70011
:1021F0001356870103C74701018BBA863287558F73
:10220000238AE7008327C4FD03C7170083C627007E
:10221000A206558F83C63700C206558F83C7470075
:10222000E207D98F0547638DE70489C709476380B3
:10223000E70AEDA08327C4FD03C7570083C66700E4
:10224000A206558F83C67700C206558F83C78700C5
:10225000E207D98F3E858327C4FD03C7570183C694
:102260006701A206558F83C67701C206558F83C7C3
:102270008701E207D98F3E868145EFD07FF879A8A4
:102280008327C4FD03C7570083C66700A206558F86
:1022900083C67700C206558F83C78700E207D98FB0
:1022A0003E858327C4FD03C7570183C66701A20685
:1022B000558F83C67701C206558F83C78701E20712
:1022C000D98F86073E868145EFD09FF381A883276B
:1022D000C4FD03C7570083C66700A206558F83C697
:1022E0007700C206558F83C78700E207D98F3E85E6
:1022F0008327C4FD03C7570183C66701A206558F14
:1023000083C67701C206558F83C78701E207D98F3D
:102310008A073E868145EFD0BFEE01008327C4FDCA
:10232000238007008327C4FE3E85B25022544561B6
:102330008280011106CE22CC00102326A4FE832722
:10234000C4FEB337F00093F7F70F3E87130660071C
:10235000BD67938587AA3A85EFF0BF8F8327C4FEB8
:1023600003C7570183C66701A206558F83C677014D
:10237000C206558F83C78701E207D98F3E86832720
:10238000C4FE03C7170183C62701A206558F83C663
:102390003701C206558F83C74701E207D98FB307BC
:1023A000F6403E85F240624405618280797106D62E
:1023B00022D40018232EA4FC232CB4FC232AC4FC12
:1023C0008327C4FDB337F00093F7F70F3E8713065A
:1023D000000BBD67938587AA3A85EFF09F87232678
:1023E00004FE232404FE832784FD89E78D472326EA
:1023F000F4FE59AB8327C4FD83C70700958B93F781
:10240000F70F89C791472326F4FEBDAB8327C4FD90
:1024100083C7070093E7470013F7F70F8327C4FD2F
:102420002380E7008327C4FD03C7170183C6270164
:10243000A206558F83C63701C206558F83C7470151
:10244000E207D98F3E87832744FD6361F7528327D4
:10245000C4FD03C7570183C66701A206558F83C613
:102460007701C206558F83C78701E207D98F3E8661
:102470008327C4FD03C7970083C6A700A206558F14
:1024800083C6B700C206558F83C7C700E207D98F3E
:10249000B307F6402324F4FE032744FD832784FE7C
:1024A00063F3E72E8327C4FD03C7170083C6270005
:1024B000A206558F83C63700C206558F83C74700D3
:1024C000E207D98F05476385E70E89C70947638609
:1024D000E71C11A98327C4FD03C7570083C6670003
:1024E000A206558F83C67700C206558F83C7870023
:1024F000E207D98F3E868327C4FD03C7970083C6B2
:10250000A700A206558F83C6B700C206558F83C7A2
:10251000C700E207D98FB297032684FE832584FD86
:102520003E85EF708039832584FE0325C4FDEFF0DE
:102530005F8B8327C4FD03C7570083C66700A206CD
:10254000558F83C67700C206558F83C78700E20781
:10255000D98F3E868327C4FD03C7970083C6A70093
:10256000A206558F83C6B700C206558F83C7C70022
:10257000E207D98FB306F600032784FD832784FE84
:10258000B305F700032744FD832784FEB307F74014
:102590003E863685EF706032032744FD832784FE34
:1025A000B307F740BE850325C4FDEFF09F8325AE3A
:1025B0008327C4FD03C7570083C66700A206558F53
:1025C00083C67700C206558F83C78700E207D98F7D
:1025D0003E868327C4FD03C7970083C6A700A206D3
:1025E000558F83C6B700C206558F83C7C700E20761
:1025F000D98F86073307F600832784FE86073E8639
:10260000832584FD3A85EF70402B832584FE0325C6
:10261000C4FDEFF00FFD8327C4FD03C7570083C639
:102620006700A206558F83C67700C206558F83C701
:102630008700E207D98F3E868327C4FD03C7970032
:1026400083C6A700A206558F83C6B700C206558F62
:1026500083C7C700E207D98F8607B306F600832732
:1026600084FE8607032784FDB305F700032744FD96
:10267000832784FEB307F74086073E863685EF70D2
:10268000C023032744FD832784FEB307F740BE859C
:102690000325C4FDEFF0EFF4B9A48327C4FD03C7FD
:1026A000570083C66700A206558F83C67700C2060F
:1026B000558F83C78700E207D98F3E868327C4FDE5
:1026C00003C7970083C6A700A206558F83C6B7002D
:1026D000C206558F83C7C700E207D98F8A07330721
:1026E000F600832784FE8A073E86832584FD3A858B
:1026F000EF70A01C832584FE0325C4FDEFF06FEE70
:102700008327C4FD03C7570083C66700A206558F01
:1027100083C67700C206558F83C78700E207D98F2B
:102720003E868327C4FD03C7970083C6A700A20681
:10273000558F83C6B700C206558F83C7C700E2070F
:10274000D98F8A07B306F600832784FE8A070327FA
:1027500084FDB305F700032744FD832784FEB307F8
:10276000F7408A073E863685EF702015032744FD23
:10277000832784FEB307F740BE850325C4FDEFF031
:102780004FE601008DA28327C4FD03C7170083C64F
:102790002700A206558F83C63700C206558F83C710
:1027A0004700E207D98F05476387E70689C70947CE
:1027B0006387E70C0DAA8327C4FD03C7570083C6B0
:1027C0006700A206558F83C67700C206558F83C760
:1027D0008700E207D98F3E868327C4FD03C7970091
:1027E00083C6A700A206558F83C6B700C206558FC1
:1027F00083C7C700E207D98FB297032644FD83251C
:1028000084FD3E85EF70600B832544FD0325C4FDE8
:10281000EFF02FDDC9A88327C4FD03C7570083C687
:102820006700A206558F83C67700C206558F83C7FF
:102830008700E207D98F3E868327C4FD03C7970030
:1028400083C6A700A206558F83C6B700C206558F60
:1028500083C7C700E207D98F86073307F6008327AF
:1028600044FD86073E86832584FD3A85EF70E004AB
:10287000832544FD0325C4FDEFF0AFD6ADA083272B
:10288000C4FD03C7570083C66700A206558F83C6E1
:102890007700C206558F83C78700E207D98F3E862F
:1028A0008327C4FD03C7970083C6A700A206558FE0
:1028B00083C6B700C206558F83C7C700E207D98F0A
:1028C0008A073307F600832744FD8A073E8683255F
:1028D00084FD3A85EF60707E832544FD0325C4FDA9
:1028E000EFF02FD001008327C4FD03C7170183C673
:1028F0002701A206558F83C63701C206558F83C7AD
:102900004701E207D98F3E87832744FD1D8F832728
:10291000C4FD9375F70F83C61701818A3686AE868C
:10292000D18EA388D7009356870093F5F60F83C600
:102930002701818A3686AE86D18E2389D7009356A9
:10294000070193F5F60F83C63701818A3686AE8676
:10295000D18EA389D7001356870103C74701018B86
:10296000BA863287558F238AE70021A09547232610
:10297000F4FE8327C4FD83C70700ED9B13F7F70F11
:102980008327C4FD2380E7008327C4FE3E85B25021
:10299000225445618280797106D622D40018232EF4
:1029A000A4FC232CB4FC232AC4FC2328D4FC8327B6
:1029B000C4FDB337F00093F7F70F3E8713061016E8
:1029C000BD67938587AA3A85EFF0AFA8832744FDBA
:1029D000B337F00093F7F70F3E8713062016BD6755
:1029E000938587AA3A85EFF0CFA6232604FE2324F9
:1029F00004FE232204FE832784FD89E78D472326D6
:102A0000F4FEA9A18327C4FD83C707008D8B93F72C
:102A1000F70F91CB832744FD032744FE98C39947C2
:102A20002326F4FE21A30325C4FDEFF09F9023226B
:102A3000A4FE832744FD9C43032744FE6379F702E9
:102A4000832744FD032744FE98C39D472326F4FEB5
:102A5000832744FE89EF8327C4FD83C70700DD9BDE
:102A600013F7F70F8327C4FD2380E700C1A1832755
:102A7000C4FD83C7070093E7870013F7F70F832789
:102A8000C4FD2380E7008327C4FD03C7570183C625
:102A90006701A206558F83C67701C206558F83C78B
:102AA0008701E207D98F3E868327C4FD03C7D7007D
:102AB00083C6E700A206558F83C6F700C206558F6E
:102AC00083C70701E207D98FB307F6402324F4FE3A
:102AD000832744FD9C43032784FE6366F714832702
:102AE000C4FD03C7170083C62700A206558F83C6FF
:102AF0003700C206558F83C74700E207D98F0547C5
:102B00006384E70689C70947638FE70A2DA68327F1
:102B1000C4FD03C7570083C66700A206558F83C64E
:102B20007700C206558F83C78700E207D98F3E869C
:102B30008327C4FD03C7D70083C6E700A206558FCD
:102B400083C6F700C206558F83C70701E207D98FF6
:102B50003307F600832744FD9C433E86BA85032550
:102B600084FDEF609055C1AC8327C4FD03C75700B7
:102B700083C66700A206558F83C67700C206558FAD
:102B800083C78700E207D98F3E868327C4FD03C72A
:102B9000D70083C6E700A206558F83C6F700C2069A
:102BA000558F83C70701E207D98F86073307F600E1
:102BB000832744FD9C4386073E86BA85032584FD12
:102BC000EF60B04F8DAC8327C4FD03C7570083C6A9
:102BD0006700A206558F83C67700C206558F83C74C
:102BE0008700E207D98F3E868327C4FD03C7D7003D
:102BF00083C6E700A206558F83C6F700C206558F2D
:102C000083C70701E207D98F8A073307F6008327B6
:102C100044FD9C438A073E86BA85032584FDEF6008
:102C2000D049010009AC8327C4FD03C7170083C640
:102C30002700A206558F83C63700C206558F83C76B
:102C40004700E207D98F05476383E70A89C7094729
:102C50006381E714CDA28327C4FD03C7570083C651
:102C60006700A206558F83C67700C206558F83C7BB
:102C70008700E207D98F3E868327C4FD03C7D700AC
:102C800083C6E700A206558F83C6F700C206558F9C
:102C900083C70701E207D98FB297032684FEBE855A
:102CA000032584FDEF607041032784FD832784FEA4
:102CB0003305F7008327C4FD03C7570083C66700A9
:102CC000A206558F83C67700C206558F83C787003B
:102CD000E207D98FBE86832744FD9843832784FE6D
:102CE000B307F7403E86B685EF60303DA9A2832743
:102CF000C4FD03C7570083C66700A206558F83C66D
:102D00007700C206558F83C78700E207D98F3E86BA
:102D10008327C4FD03C7D70083C6E700A206558FEB
:102D200083C6F700C206558F83C70701E207D98F14
:102D300086073307F600832784FE86073E86BA851A
:102D4000032584FDEF607037832784FE8607032701
:102D500084FD3305F7008327C4FD03C7570083C6EE
:102D60006700A206558F83C67700C206558F83C7BA
:102D70008700E207D98FBE86832744FD98438327C7
:102D800084FEB307F74086073E86B685EF60F032D3
:102D90005DA08327C4FD03C7570083C66700A20652
:102DA000558F83C67700C206558F83C78700E20719
:102DB000D98F3E868327C4FD03C7D70083C6E700AB
:102DC000A206558F83C6F700C206558F83C7070139
:102DD000E207D98F8A073307F600832784FE8A0724
:102DE0003E86BA85032584FDEF60302D832784FE5F
:102DF0008A07032784FD3305F7008327C4FD03C733
:102E0000570083C66700A206558F83C67700C206A7
:102E1000558F83C78700E207D98FBE86832744FD7D
:102E20009843832784FEB307F7408A073E86B6851A
:102E3000EF60B02801008327C4FD83C70700DD9B36
:102E400013F7F70F8327C4FD2380E700832704FDD2
:102E5000F1EF8327C4FD03C70700AD476316F700F2
:102E600089472326F4FED9A08327C4FD83C7070022
:102E700093E7270013F7F70F8327C4FD2380E700AC
:102E8000832744FD9C43BE850325C4FDEFF0AF8D31
:102E90008327C4FD03C7170183C62701A206558FE8
:102EA00083C63701C206558F83C74701E207D98F12
:102EB0003E87832744FD9C433E978327C4FD93753B
:102EC000F70F83C61701818A3686AE86D18EA38816
:102ED000D7009356870093F5F60F83C62701818AA2
:102EE0003686AE86D18E2389D7009356070193F597
:102EF000F60F83C63701818A3686AE86D18EA389C6
:102F0000D7001356870103C74701018BBA86328762
:102F1000558F238AE7008327C4FD83C70700F59BED
:102F200013F7F70F8327C4FD2380E7008327C4FE30
:102F30003E85B250225445618280411122C600086C
:102F40009967938787087390078001003244410195
:102F50008280411122C600089967739007800100A2
:102F6000324441018280011122CE00102326A4FEAA
:102F70008327C4FEFD8B0547B316F70037E700E053
:102F80008327C4FE9583938707048A07BA9794C35F
:102F90000100724405618280011122CE00102326B7
:102FA000A4FE8327C4FEFD8B0547B316F70037E761
:102FB00000E08327C4FE9583938707068A07BA97A4
:102FC00094C30100724405618280011122CE001079
:102FD0002326A4FEAE87A305F4FE37E700E083278F
:102FE000C4FEBA970347B4FE2380E7400100724451
:102FF00005618280011106CE22CC00102326A4FE9A
:103000000325C4FE8D370100F240624405618280D1
:10301000011106CE22CC00102326A4FE0325C4FEF7
:10302000A53F0100F240624405618280011106CE95
:1030300022CC00102326A4FEAE87A305F4FE83470E
:10304000B4FEBE850325C4FE49370100F240624448
:1030500005618280011106CE22CC00102326A4FE39
:103060008327C4FE99C783A701861387F7FF23A090
:10307000E18683A7018691E3C9350100F2406244ED
:1030800005618280411106C622C4000883A701861B
:1030900091E3C13583A701861387170023A0E1863A
:1030A00083A701863E85B2402244410182804111BE
:1030B00006C622C400080145713F0100B240224407
:1030C00041018280357106CF16CD1ACB1EC922C7A9
:1030D0002AC52EC332C1B6DEBADCBEDAC2D8C6D625
:1030E000F2D4F6D2FAD0FECE82E686E48AE28EE010
:1030F00012FE16FC1AFA1EF82AF62EF432F236F0F8
:103100003AEE3EEC42EA46E872E676E47AE27EE0A7
:10311000001193055052B747014013850780EF20F7
:103120002024AA8789CB93055052B74701401385C5
:103130000780EF2000330100FA40EA425A43CA43B5
:103140003A442A459A450A46F6566657D65746588F
:10315000B658265E965E065FF64F3660A66016612C
:1031600086617272E2725273C2733275A275127600
:1031700082767267E2675268C268326EA26E126F20
:10318000826F0D6173002030357106CF16CD1ACBDA
:103190001EC922C72AC52EC332C1B6DEBADCBEDACA
:1031A000C2D8C6D6F2D4F6D2FAD0FECE82E686E4F3
:1031B0008AE28EE012FE16FC1AFA1EF82AF62EF4A7
:1031C00032F236F03AEE3EEC42EA46E872E676E457
:1031D0007AE27EE0001193055052B7470040138514
:1031E0000740EF20E017AA8789CB93055052B747D5
:1031F000004013850740EF20C0260100FA40EA4254
:103200005A43CA433A442A459A450A46F6566657EF
:10321000D6574658B658265E965E065FF64F36601D
:10322000A660166186617272E2725273C273327561
:10323000A275127682767267E2675268C268326E51
:10324000A26E126F826F0D6173002030357106CF50
:1032500016CD1ACB1EC922C72AC52EC332C1B6DE6F
:10326000BADCBEDAC2D8C6D6F2D4F6D2FAD0FECED6
:1032700082E686E48AE28EE012FE16FC1AFA1EF856
:103280002AF62EF432F236F03AEE3EEC42EA46E806
:1032900072E676E47AE27EE0001193055052B75769
:1032A000004013850780EF20A00BAA8789CB9305E8
:1032B0005052B757004013850780EF20801A010055
:1032C000FA40EA425A43CA433A442A459A450A46D2
:1032D000F6566657D6574658B658265E965E065F2F
:1032E000F64F3660A660166186617272E2725273A2
:1032F000C2733275A275127682767267E26752687F
:10330000C268326EA26E126F826F0D617300203040
:10331000357106CF16CD1ACB1EC922C72AC52EC3BA
:1033200032C1B6DEBADCBEDAC2D8C6D6F2D4F6D224
:10333000FAD0FECE82E686E48AE28EE012FE16FC29
:103340001AFA1EF82AF62EF432F236F03AEE3EEC75
:1033500042EA46E872E676E47AE27EE000119305FE
:103360005052B7570040138507C0EF10707FAA87EF
:1033700089CB93055052B7570040138507C0EF2003
:10338000400E0100FA40EA425A43CA433A442A45F1
:103390009A450A46F6566657D6574658B658265E98
:1033A000965E065FF64F3660A660166186617272A1
:1033B000E2725273C2733275A275127682767267A8
:1033C000E2675268C268326EA26E126F826F0D6140
:1033D00073002030357106CF16CD1ACB1EC922C717
:1033E0002AC52EC332C1B6DEBADCBEDAC2D8C6D612
:1033F000F2D4F6D2FAD0FECE82E686E48AE28EE0FD
:1034000012FE16FC1AFA1EF82AF62EF432F236F0E4
:103410003AEE3EEC42EA46E872E676E47AE27EE094
:1034200000119305505237550040EF107073AA8772
:1034300081CFB707002083A7472982979305505271
:1034400037550040EF20E0010100FA40EA425A43BC
:10345000CA433A442A459A450A46F6566657D6570D
:103460004658B658265E965E065FF64F3660A660F2
:10347000166186617272E2725273C2733275A275FE
:10348000127682767267E2675268C268326EA26E06
:10349000126F826F0D6173002030357106CF16CD2B
:1034A0001ACB1EC922C72AC52EC332C1B6DEBADC6A
:1034B000BEDAC2D8C6D6F2D4F6D2FAD0FECE82E6B2
:1034C00086E48AE28EE012FE16FC1AFA1EF82AF64C
:1034D0002EF432F236F03AEE3EEC42EA46E872E67C
:1034E00076E47AE27EE0001193055052B72700405F
:1034F00013850780EF10D066AA8789CB93055052B9
:10350000B727004013850780EF10B0750100FA401F
:10351000EA425A43CA433A442A459A450A46F6566D
:103520006657D6574658B658265E965E065FF64FE3
:103530003660A660166186617272E2725273C2735F
:103540003275A275127682767267E2675268C26837
:10355000326EA26E126F826F0D6173002030357172
:1035600006CF16CD1ACB1EC922C72AC52EC332C11B
:10357000B6DEBADCBEDAC2D8C6D6F2D4F6D2FAD0FB
:10358000FECE82E686E48AE28EE012FE16FC1AFA8D
:103590001EF82AF62EF432F236F03AEE3EEC42EA0B
:1035A00046E872E676E47AE27EE000119305505236
:1035B000B7270040138507C0EF10905AAA8781CF24
:1035C00083A7C180829793055052B7270040138587
:1035D00007C0EF1010690100FA40EA425A43CA439B
:1035E0003A442A459A450A46F6566657D6574658EB
:1035F000B658265E965E065FF64F3660A660166188
:1036000086617272E2725273C2733275A27512765B
:1036100082767267E2675268C268326EA26E126F7B
:10362000826F0D6173002030357106CF16CD1ACB35
:103630001EC922C72AC52EC332C1B6DEBADCBEDA25
:10364000C2D8C6D6F2D4F6D2FAD0FECE82E686E44E
:103650008AE28EE012FE16FC1AFA1EF82AF62EF402
:1036600032F236F03AEE3EEC42EA46E872E676E4B2
:103670007AE27EE000119305505237250040EF10AA
:10368000304EAA8799CBEF30E014EFD09FBA930564
:10369000505237250040EF10D05C0100FA40EA425A
:1036A0005A43CA433A442A459A450A46F65666574B
:1036B000D6574658B658265E965E065FF64F366079
:1036C000A660166186617272E2725273C2733275BD
:1036D000A275127682767267E2675268C268326EAD
:1036E000A26E126F826F0D6173002030357106CFAC
:1036F00016CD1ACB1EC922C72AC52EC332C1B6DECB
:10370000BADCBEDAC2D8C6D6F2D4F6D2FAD0FECE31
:1037100082E686E48AE28EE012FE16FC1AFA1EF8B1
:103720002AF62EF432F236F03AEE3EEC42EA46E861
:1037300072E676E47AE27EE00011B707055083C7AF
:10374000070193F7F70F918B8DC383A78180829731
:10375000B707055083C7070113F7F70FB7070550E1
:103760006D9B1377F70F2388E7000100FA40EA42C8
:103770005A43CA433A442A459A450A46F65666577A
:10378000D6574658B658265E965E065FF64F3660A8
:10379000A660166186617272E2725273C2733275EC
:1037A000A275127682767267E2675268C268326EDC
:1037B000A26E126F826F0D6173002030357106CFDB
:1037C00016CD1ACB1EC922C72AC52EC332C1B6DEFA
:1037D000BADCBEDAC2D8C6D6F2D4F6D2FAD0FECE61
:1037E00082E686E48AE28EE012FE16FC1AFA1EF8E1
:1037F0002AF62EF432F236F03AEE3EEC42EA46E891
:1038000072E676E47AE27EE000110545EF00B067EB
:103810002A8785476315F7000545EF00306C0100E6
:10382000FA40EA425A43CA433A442A459A450A466C
:10383000F6566657D6574658B658265E965E065FC9
:10384000F64F3660A660166186617272E27252733C
:10385000C2733275A275127682767267E267526819
:10386000C268326EA26E126F826F0D6173002030DB
:10387000357106CF16CD1ACB1EC922C72AC52EC355
:1038800032C1B6DEBADCBEDAC2D8C6D6F2D4F6D2BF
:10389000FAD0FECE82E686E48AE28EE012FE16FCC4
:1038A0001AFA1EF82AF62EF432F236F03AEE3EEC10
:1038B00042EA46E872E676E47AE27EE000110945E3
:1038C000EF00705C2A8785476315F7000945EF0014
:1038D000F0600100FA40EA425A43CA433A442A459A
:1038E0009A450A46F6566657D6574658B658265E43
:1038F000965E065FF64F3660A6601661866172724C
:10390000E2725273C2733275A27512768276726752
:10391000E2675268C268326EA26E126F826F0D61EA
:1039200073002030357106CF16CD1ACB1EC922C7C1
:103930002AC52EC332C1B6DEBADCBEDAC2D8C6D6BC
:10394000F2D4F6D2FAD0FECE82E686E48AE28EE0A7
:1039500012FE16FC1AFA1EF82AF62EF432F236F08F
:103960003AEE3EEC42EA46E872E676E47AE27EE03F
:1039700000111145EF0030512A8785476315F70084
:103980001145EF00B0550100FA40EA425A43CA43DC
:103990003A442A459A450A46F6566657D657465837
:1039A000B658265E965E065FF64F3660A6601661D4
:1039B00086617272E2725273C2733275A2751276A8
:1039C00082767267E2675268C268326EA26E126FC8
:1039D000826F0D6173002030357106CF16CD1ACB82
:1039E0001EC922C72AC52EC332C1B6DEBADCBEDA72
:1039F000C2D8C6D6F2D4F6D2FAD0FECE82E686E49B
:103A00008AE28EE012FE16FC1AFA1EF82AF62EF44E
:103A100032F236F03AEE3EEC42EA46E872E676E4FE
:103A20007AE27EE000112145EF00F0452A878547C4
:103A30006315F7002145EF00704A0100FA40EA42A1
:103A40005A43CA433A442A459A450A46F6566657A7
:103A5000D6574658B658265E965E065FF64F3660D5
:103A6000A660166186617272E2725273C273327519
:103A7000A275127682767267E2675268C268326E09
:103A8000A26E126F826F0D6173002030357106CF08
:103A900016CD1ACB1EC922C72AC52EC332C1B6DE27
:103AA000BADCBEDAC2D8C6D6F2D4F6D2FAD0FECE8E
:103AB00082E686E48AE28EE012FE16FC1AFA1EF80E
:103AC0002AF62EF432F236F03AEE3EEC42EA46E8BE
:103AD00072E676E47AE27EE000114145EF00B03A0A
:103AE0002A8785476315F7004145EF00303F010005
:103AF000FA40EA425A43CA433A442A459A450A469A
:103B0000F6566657D6574658B658265E965E065FF6
:103B1000F64F3660A660166186617272E272527369
:103B2000C2733275A275127682767267E267526846
:103B3000C268326EA26E126F826F0D617300203008
:103B4000357106CF16CD1ACB1EC922C72AC52EC382
:103B500032C1B6DEBADCBEDAC2D8C6D6F2D4F6D2EC
:103B6000FAD0FECE82E686E48AE28EE012FE16FCF1
:103B70001AFA1EF82AF62EF432F236F03AEE3EEC3D
:103B800042EA46E872E676E47AE27EE00011130546
:103B90000002EF00502F2A8785476316F7001305B0
:103BA0000002EF00B03313050004EF00D02D2A8788
:103BB00085476316F70013050004EF003032130544
:103BC0000008EF00502C2A8785476316F70013057D
:103BD0000008EF00B03013050010EF00D02A2A874C
:103BE00085476316F70013050010EF00302F13050B
:103BF0000020EF0050292A8785476316F700130538
:103C00000020EF00B02D0100FA40EA425A43CA43B7
:103C10003A442A459A450A46F6566657D6574658B4
:103C2000B658265E965E065FF64F3660A660166151
:103C300086617272E2725273C2733275A275127625
:103C400082767267E2675268C268326EA26E126F45
:103C5000826F0D6173002030357106CF16CD1ACBFF
:103C60001EC922C72AC52EC332C1B6DEBADCBEDAEF
:103C7000C2D8C6D6F2D4F6D2FAD0FECE82E686E418
:103C80008AE28EE012FE16FC1AFA1EF82AF62EF4CC
:103C900032F236F03AEE3EEC42EA46E872E676E47C
:103CA0007AE27EE0001113050040EF00D01D2A8764
:103CB00085476316F70013050040EF003022856743
:103CC00013850780EF00301C2A8785476317F700AC
:103CD000856713850780EF0070200565EF00B01A37
:103CE0002A8785476315F7000565EF00301F0965D2
:103CF000EF0070192A8785476318F70083A70181B1
:103D000082970965EF00901D1165EF00D0172A8793
:103D100085476317F700EFD0AFCE1165EF00101C99
:103D20002165EF0050162A8785476317F700EFD00B
:103D3000CFBD2165EF00901A0100FA40EA425A43D4
:103D4000CA433A442A459A450A46F6566657D65714
:103D50004658B658265E965E065FF64F3660A660F9
:103D6000166186617272E2725273C2733275A27505
:103D7000127682767267E2675268C268326EA26E0D
:103D8000126F826F0D6173002030357106CF16CD32
:103D90001ACB1EC922C72AC52EC332C1B6DEBADC71
:103DA000BEDAC2D8C6D6F2D4F6D2FAD0FECE82E6B9
:103DB00086E48AE28EE012FE16FC1AFA1EF82AF653
:103DC0002EF432F236F03AEE3EEC42EA46E872E683
:103DD00076E47AE27EE000118545B737014013852D
:103DE00007C0EF104011AA8781CB8545B737014046
:103DF000138507C0EF1020170100FA40EA425A432A
:103E0000CA433A442A459A450A46F6566657D65753
:103E10004658B658265E965E065FF64F3660A66038
:103E2000166186617272E2725273C2733275A27544
:103E3000127682767267E2675268C268326EA26E4C
:103E4000126F826F0D6173002030357106CF16CD71
:103E50001ACB1EC922C72AC52EC332C1B6DEBADCB0
:103E6000BEDAC2D8C6D6F2D4F6D2FAD0FECE82E6F8
:103E700086E48AE28EE012FE16FC1AFA1EF82AF692
:103E80002EF432F236F03AEE3EEC42EA46E872E6C2
:103E900076E47AE27EE00011854537050040EF10B8
:103EA0008005AA8791C7854537050040EF10A00B14
:103EB0000100FA40EA425A43CA433A442A459A4525
:103EC0000A46F6566657D6574658B658265E965E48
:103ED000065FF64F3660A660166186617272E27206
:103EE0005273C2733275A275127682767267E26778
:103EF0005268C268326EA26E126F826F0D617300DB
:103F00002030357106CF16CD1ACB1EC922C72AC55F
:103F10002EC332C1B6DEBADCBEDAC2D8C6D6F2D4FF
:103F2000F6D2FAD0FECE82E686E48AE28EE012FE77
:103F300016FC1AFA1EF82AF62EF432F236F03AEE91
:103F40003EEC42EA46E872E676E47AE27EE0001170
:103F50008545B707004013850740EF00D079AA8751
:103F600081CB8545B707004013850740EF00B07F40
:103F70000100FA40EA425A43CA433A442A459A4564
:103F80000A46F6566657D6574658B658265E965E87
:103F9000065FF64F3660A660166186617272E27245
:103FA0005273C2733275A275127682767267E267B7
:103FB0005268C268326EA26E126F826F0D6173001A
:103FC0002030357106CF16CD1ACB1EC922C72AC59F
:103FD0002EC332C1B6DEBADCBEDAC2D8C6D6F2D43F
:103FE000F6D2FAD0FECE82E686E48AE28EE012FEB7
:103FF00016FC1AFA1EF82AF62EF432F236F03AEED1
:104000003EEC42EA46E872E676E47AE27EE00011AF
:104010008545B717004013850780EF00D06DAA874C
:1040200081CB8545B717004013850780EF00B0733B
:104030000100FA40EA425A43CA433A442A459A45A3
:104040000A46F6566657D6574658B658265E965EC6
:10405000065FF64F3660A660166186617272E27284
:104060005273C2733275A275127682767267E267F6
:104070005268C268326EA26E126F826F0D61730059
:104080002030357106CF16CD1ACB1EC922C72AC5DE
:104090002EC332C1B6DEBADCBEDAC2D8C6D6F2D47E
:1040A000F6D2FAD0FECE82E686E48AE28EE012FEF6
:1040B00016FC1AFA1EF82AF62EF432F236F03AEE10
:1040C0003EEC42EA46E872E676E47AE27EE00011EF
:1040D0008545B7170040138507C0EF00D061AA8758
:1040E00081CB8545B7170040138507C0EF00B06747
:1040F0000100FA40EA425A43CA433A442A459A45E3
:104100000A46F6566657D6574658B658265E965E05
:10411000065FF64F3660A660166186617272E272C3
:104120005273C2733275A275127682767267E26735
:104130005268C268326EA26E126F826F0D61730098
:104140002030357106CF16CD1ACB1EC922C72AC51D
:104150002EC332C1B6DEBADCBEDAC2D8C6D6F2D4BD
:10416000F6D2FAD0FECE82E686E48AE28EE012FE35
:1041700016FC1AFA1EF82AF62EF432F236F03AEE4F
:104180003EEC42EA46E872E676E47AE27EE000112E
:10419000854537150040EF001056AA8781CB85452D
:1041A00037150040EF00305CEF20D0090100FA40E5
:1041B000EA425A43CA433A442A459A450A46F656C1
:1041C0006657D6574658B658265E965E065FF64F37
:1041D0003660A660166186617272E2725273C273B3
:1041E0003275A275127682767267E2675268C2688B
:1041F000326EA26E126F826F0D61730020303571C6
:1042000006CF16CD1ACB1EC922C72AC52EC332C16E
:10421000B6DEBADCBEDAC2D8C6D6F2D4F6D2FAD04E
:10422000FECE82E686E48AE28EE012FE16FC1AFAE0
:104230001EF82AF62EF432F236F03AEE3EEC42EA5E
:1042400046E872E676E47AE27EE000118545B7172B
:10425000004013850740EF00104AAA8791CB85459F
:10426000B717004013850740EF00F04FEF20A03351
:104270000100FA40EA425A43CA433A442A459A4561
:104280000A46F6566657D6574658B658265E965E84
:10429000065FF64F3660A660166186617272E27242
:1042A0005273C2733275A275127682767267E267B4
:1042B0005268C268326EA26E126F826F0D61730017
:1042C0002030357106CF16CD1ACB1EC922C72AC59C
:1042D0002EC332C1B6DEBADCBEDAC2D8C6D6F2D43C
:1042E000F6D2FAD0FECE82E686E48AE28EE012FEB4
:1042F00016FC1AFA1EF82AF62EF432F236F03AEECE
:104300003EEC42EA46E872E676E47AE27EE00011AC
:104310008545B737014013850740EF00D03DAA8798
:1043200081CB8545B737014013850740EF00B04387
:104330000100FA40EA425A43CA433A442A459A45A0
:104340000A46F6566657D6574658B658265E965EC3
:10435000065FF64F3660A660166186617272E27281
:104360005273C2733275A275127682767267E267F3
:104370005268C268326EA26E126F826F0D61730056
:104380002030357106CF16CD1ACB1EC922C72AC5DB
:104390002EC332C1B6DEBADCBEDAC2D8C6D6F2D47B
:1043A000F6D2FAD0FECE82E686E48AE28EE012FEF3
:1043B00016FC1AFA1EF82AF62EF432F236F03AEE0D
:1043C0003EEC42EA46E872E676E47AE27EE00011EC
:1043D0008545B7570140138507C0EF00D031AA8744
:1043E00081CB8545B7570140138507C0EF00B03733
:1043F0000100FA40EA425A43CA433A442A459A45E0
:104400000A46F6566657D6574658B658265E965E02
:10441000065FF64F3660A660166186617272E272C0
:104420005273C2733275A275127682767267E26732
:104430005268C268326EA26E126F826F0D61730095
:104440002030357106CF16CD1ACB1EC922C72AC51A
:104450002EC332C1B6DEBADCBEDAC2D8C6D6F2D4BA
:10446000F6D2FAD0FECE82E686E48AE28EE012FE32
:1044700016FC1AFA1EF82AF62EF432F236F03AEE4C
:104480003EEC42EA46E872E676E47AE27EE000112B
:10449000854537550140EF001026AA8791C785450D
:1044A00037550140EF00302C0100FA40EA425A43F0
:1044B000CA433A442A459A450A46F6566657D6579D
:1044C0004658B658265E965E065FF64F3660A66082
:1044D000166186617272E2725273C2733275A2758E
:1044E000127682767267E2675268C268326EA26E96
:1044F000126F826F0D6173002030411122C60008D7
:1045000001003244410173002030411122C60008ED
:1045100001A0411106C622C40008B717270713855A
:1045200007E0EFD0EF8CEFD07F87EF10307BEF10FC
:104530009077EF20604C81473E85B2402244410194
:10454000828001A001A001A001A001A001A001A002
:1045500001A001A001A001A001A001A001A001A053
:1045600001A001A001A001A001A001A001A001A043
:1045700001A001A001A001A001A001A001A001A033
:1045800001A001A001A001A001A001A001A001A023
:1045900001A001A001A001A001A001A001A001A013
:1045A00001A001A001A001A001A001A001A001A003
:1045B00001A001A001A001A001A001A001A001A0F3
:1045C00001A001A001A001A001A001A001A001A0E3
:1045D00001A001A001A001A001A001A001A001A0D3
:1045E00001A001A001A001A001A001A001A001A0C3
:1045F00001A001A001A001A001A001A001A001A0B3
:1046000097C1FF1F9381014917B1002013018163F6
:1046100017B50000130585E397C5FF1F938585A295
:104620001386018463FAC5008322050023A0550088
:1046300011059105E3EAC5FE13850184938501B256
:104640006377B500232005001105E36DB5FEFD423B
:10465000739002BCFD4273904280B7620000938267
:10466000820873A0023097C2FFFF9382229D93E2DB
:10467000320073905230970200009382C2E9739027
:10468000123473002030797122D60018232EA4FC36
:10469000232604FE232404FEB70701409387074026
:1046A0009C430327C4FDF98F2324F4FEB707014080
:1046B00093870740D84B8327C4FDF98F81CB83278D
:1046C00084FE89C785472326F4FE19A0232604FE0D
:1046D0008327C4FE3E85325445618280011122CE7B
:1046E00000102326A4FEB707014093870740032745
:1046F000C4FED8CB0100724405618280397122DE8C
:1047000080002326A4FC2324B4FC232604FE2320BB
:1047100004FE232404FE232E04FC232204FE232C67
:1047200004FC832784FC9C47BD8B2326F4FE83274F
:1047300084FC9C47C18B89CB832784FCDC43032703
:10474000C4FED98F2326F4FE832784FC83D7070079
:1047500093F7F70FF1CF8327C4FC9C432322F4FE89
:10476000232404FE65A8832784FE0547B317F700BA
:10477000232EF4FC832784FC83D707003E878327FE
:10478000C4FDF98F2320F4FE032704FE8327C4FD14
:104790006311F708832784FE8A07232EF4FC8327FE
:1047A000C4FD3D47B317F700232CF4FC832784FD99
:1047B00093C7F7FF032744FEF98F2322F4FE8327D4
:1047C000C4FD0327C4FEB317F700032744FED98FA7
:1047D0002322F4FE832784FC984793078002631BFF
:1047E000F700832784FE05473317F7008327C4FCAF
:1047F000D8CB05A0832784FC984793078004631ACD
:10480000F700832784FE05473317F7008327C4FC8E
:1048100098CB832784FE85072324F4FE032784FE98
:104820009D47E3F2E7F48327C4FC032744FE98C3C3
:10483000832784FC03D707009307F00F63F1E70E8B
:104840008327C4FCDC432322F4FE232404FE75A842
:10485000832784FEA1070547B317F700232EF4FC36
:10486000832784FC83D707003E878327C4FDF98F05
:104870002320F4FE032704FE8327C4FD6312F708F8
:10488000832784FE8A07232EF4FC8327C4FD3D473B
:10489000B317F700232CF4FC832784FD93C7F7FF9D
:1048A000032744FEF98F2322F4FE8327C4FD032748
:1048B000C4FEB317F700032744FED98F2322F4FE6A
:1048C000832784FC984793078002631BF7008327A4
:1048D00084FEA10705473317F7008327C4FCD8CB14
:1048E000832784FC984793078004631BF700832782
:1048F00084FEA10705473317F7008327C4FC98CB34
:10490000832784FE85072324F4FE032784FE9D4726
:10491000E3F0E7F48327C4FC032744FED8C3010077
:10492000725421618280011122CE00102326A4FE40
:10493000AE872322C4FE2315F4FE832744FE99C7C5
:104940000357A4FE8327C4FE98CB31A00357A4FECF
:104950008327C4FED8CB010072440561828039717F
:1049600022DE80002326A4FC232204FE232604FE4C
:10497000232004FE232E04FC232404FEB717024048
:10498000DC43B18B2322F4FE032744FE91476303EB
:10499000F702032744FEA1476306F702832744FE7C
:1049A000639907148327C4FC37177A00130707207D
:1049B00098C389AA8327C4FC37177A0013070720F6
:1049C00098C389A2B7170240D843B7073C00F98FB4
:1049D0002326F4FEB7170240D843C167F98F23207E
:1049E000F4FE8327C4FEC98389072326F4FEB7F7A4
:1049F000FF1F9387C77098439167F98F91EB032747
:104A0000C4FEC5476319F704C9472326F4FEA1A0D5
:104A10000327C4FE89476315F700C9472326F4FE20
:104A20000327C4FEBD476318F700B5472326F4FEED
:104A300085472324F4FE0327C4FEC1476315F7000E
:104A4000BD472326F4FE0327C4FEC5476315F700C0
:104A5000C1472326F4FE832704FEA1E3B7470240A3
:104A6000938707809C43C18B89CF0327C4FEB71768
:104A70007A00938707203307F7028327C4FC98C383
:104A800099A80327C4FEB7173D0093870790330703
:104A9000F7028327C4FC98C33DA8B7170240D84348
:104AA000B7070200F98F89CF0327C4FEB7173D006F
:104AB000938707903307F7028327C4FC98C321A884
:104AC0000327C4FEB7177A00938707203307F7023E
:104AD0008327C4FC98C3032784FE85476313F7022A
:104AE0008327C4FC9C4313D717008327C4FC98C3B7
:104AF00009A88327C4FC37177A001307072098C337
:104B000011A00100B7170240DC4393F7070F2322DF
:104B1000F4FE832744FE91832322F4FEB70700208E
:104B200013874705832744FEBA9783C7070093F787
:104B3000F70F232EF4FC8327C4FC98438327C4FD7E
:104B40003357F7008327C4FCD8C3B7170240DC43B0
:104B500093F707702322F4FE832744FEA1832322C8
:104B6000F4FEB707002013874705832744FEBA9752
:104B700083C7070093F7F70F232EF4FC8327C4FCA9
:104B8000D8438327C4FD3357F7008327C4FC98C755
:104B9000B7170240D843916793870780F98F232284
:104BA000F4FE832744FEAD832322F4FEB7070020E2
:104BB00013874705832744FEBA9783C7070093F7F7
:104BC000F70F232EF4FC8327C4FCD8438327C4FDAE
:104BD0003357F7008327C4FCD8C7B7170240D84320
:104BE000B167F98F2322F4FE832744FEB983232281
:104BF000F4FE1387C181832744FEBA9783C7070059
:104C000093F7F70F232EF4FC8327C4FCD8478327A0
:104C1000C4FD3357F7028327C4FC98CB01007254BC
:104C200021618280011122CE00102326A4FE2324BC
:104C3000B4FE832784FE99CBB7170240944FB71771
:104C400002400327C4FE558F98CF21A8B717024012
:104C5000944F8327C4FE13C7F7FFB7170240758F21
:104C600098CF0100724405618280011122CE0010AC
:104C70002326A4FE2324B4FE832784FE99CBB717F2
:104C80000240D44FB71702400327C4FE558FD8CF38
:104C900021A8B7170240D44F8327C4FE13C7F7FFDC
:104CA000B7170240758FD8CF01007244056182802A
:104CB000797122D60018232EA4FC232CB4FC2317D0
:104CC00004FE8327C4FD83D707002317F4FE0327C0
:104CD000C4FDB7370140938707C06306F706032773
:104CE000C4FDB70700406300F7060327C4FDB707FC
:104CF0000040938707406308F7040327C4FDB717F4
:104D00000040938707806300F7040327C4FDB717AB
:104D10000040938707C06308F7020327C4FDB73735
:104D20000140938707406300F7020327C4FDB7578C
:104D30000140938707C06308F7000327C4FDB757F6
:104D400001406311F7028357E4FE93F7F7F8231746
:104D5000F4FE832784FD03D727008357E4FED98F11
:104D60002317F4FE0327C4FDB71700406309F702B9
:104D70000327C4FDB7170040938707406301F7027C
:104D80008357E4FE93F7F7CF2317F4FE832784FDC0
:104D900003D767008357E4FED98F2317F4FE8327D8
:104DA000C4FD0357E4FE2390E700832784FD03D767
:104DB00047008327C4FD2396E702832784FD03D79A
:104DC00007008327C4FD2394E7020327C4FDB737F8
:104DD0000140938707C06308F7020327C4FDB73774
:104DE0000140938707406300F7020327C4FDB757CC
:104DF0000140938707C06308F7000327C4FDB75736
:104E00000140631DF700832784FD83C78700139744
:104E1000070141838327C4FD2398E7028327C4FD4C
:104E20000547239AE7000100325445618280011151
:104E300022CE00102326A4FE2324B4FE832784FE62
:104E40008DC38327C4FE83D70700C207C18393E7BE
:104E500017001397070141838327C4FE2390E700BF
:104E600039A88327C4FE83D70700C207C183F99BF3
:104E70001397070141838327C4FE2390E7000100B5
:104E8000724405618280011122CE00102326A4FE07
:104E9000AE872322C4FE2315F4FE832744FE9DC360
:104EA0008327C4FE83D7C700139707014183835725
:104EB000A4FED98F1397070141838327C4FE23964D
:104EC000E70035A08327C4FE83D7C70013970701E7
:104ED00041838357A4FE93C7F7FFC207C183F98FAD
:104EE0001397070141838327C4FE2396E70001003F
:104EF000724405618280797122D60018232EA4FCA9
:104F0000AE87231DF4FC232604FE231504FE231480
:104F100004FE8327C4FD83D707011397070141834C
:104F20008357A4FDF98F2315F4FE8327C4FD83D78F
:104F3000C7001397070141838357A4FDF98F2314FA
:104F4000F4FE8357A4FE81CB835784FE89C785472F
:104F50002326F4FE19A0232604FE8327C4FE3E85E3
:104F6000325445618280011122CE00102326A4FE16
:104F7000AE872315F4FE8357A4FE93C7F7FF13975C
:104F8000070141838327C4FE2398E7000100724490
:104F9000056182805D7186C6A2C48008232EA4FAB2
:104FA000232CB4FA232604FE232404FE232204FE29
:104FB000232004FE232E04FC8327C4FB232EF4FCB1
:104FC0008327C4FB83D70701C207C1832326F4FECE
:104FD0000327C4FEB567FD17F98F2326F4FE832748
:104FE00084FB83D767003E878327C4FED98F23269F
:104FF000F4FE8327C4FE1397070141838327C4FB74
:105000002398E7008327C4FB83D7C700C207C18367
:105010002326F4FE0327C4FEBD679387379FF98FCD
:105020002326F4FE832784FB03D74700832784FBD2
:1050300083D78700D98F139707014183832784FB88
:1050400083D7A700D98FC207C1833E878327C4FEB9
:10505000D98F2326F4FE8327C4FE139707014183CB
:105060008327C4FB2396E7008327C4FB83D747012C
:10507000C207C1832326F4FE0327C4FEC1679387BA
:10508000F7CFF98F2326F4FE832784FB83D7C7004D
:105090003E878327C4FED98F2326F4FE8327C4FED0
:1050A0001397070141838327C4FB239AE7009307E3
:1050B00084FC3E85EFF0BF8A0327C4FDB74701405B
:1050C000938707806317F700832744FD2324F4FEAA
:1050D00029A0832704FD2324F4FE8327C4FB83D760
:1050E000C700C207C183C207C18763D20702032773
:1050F00084FEBA878607BA978E073E97832784FB7C
:105100009C438607B357F7022322F4FE05A003272A
:1051100084FEBA878607BA978E073E97832784FB5B
:105120009C438A07B357F7022322F4FE032744FE69
:1051300093074006B357F70292072326F4FE83270E
:10514000C4FE13D7470093074006B307F7020327AF
:1051500044FEB307F7402320F4FE8327C4FB83D724
:10516000C700C207C183C207C18763D20702832772
:1051700004FE8E071387270393074006B357F702F1
:105180009D8B0327C4FED98F2326F4FE05A0832719
:1051900004FE92071387270393074006B357F702CD
:1051A000BD8B0327C4FED98F2326F4FE8327C4FEBC
:1051B0001397070141838327C4FB2394E700010071
:1051C000B640264461618280011122CE0010232660
:1051D000A4FE2324B4FE832784FE95C38327C4FE44
:1051E00083D7C7001397070141838967D98F139726
:1051F000070141838327C4FE2396E70015A0832778
:10520000C4FE83D7C700139707014183F977FD17C1
:10521000F98F1397070141838327C4FE2396E70084
:105220000100724405618280797122D60018232E14
:10523000A4FCAE87232AC4FC231DF4FC232404FE13
:10524000232204FE232004FE232604FE8327C4FD1C
:105250002326F4FE8357A4FD93F7F70F958393F766
:10526000F70F2324F4FE8357A4FDFD8B2322F4FEC5
:10527000832744FE0547B317F7002320F4FE0327D6
:1052800084FE85476318F7008327C4FEB1072326F1
:10529000F4FE0DA0032784FE89476318F7008327D7
:1052A000C4FEC1072326F4FE31A08327C4FED10724
:1052B0002326F4FE832744FD99CB8327C4FE944321
:1052C0008327C4FE032704FE558F98C321A8832794
:1052D000C4FE9443832704FE13C7F7FF8327C4FE4D
:1052E000758F98C30100325445618280011122CE2E
:1052F00000102326A4FEAE872315F4FE8357A4FED8
:1053000093F7F71F1397070141838327C4FE239266
:10531000E7000100724405618280797122D600188D
:10532000232EA4FCAE87231DF4FC232604FE832732
:10533000C4FD83D707001397070141838357A4FD5A
:10534000F98FC207C18389C785472326F4FE19A0B8
:10535000232604FE8327C4FE3E85325445618280A5
:10536000797122D60018232EA4FCAE87231DF4FCED
:10537000232204FE232604FE232004FE232404FE0D
:105380008357A4FD93F7F70F958393F7F70F232027
:10539000F4FE8357A4FDFD8B2326F4FE8327C4FE71
:1053A0000547B317F7002326F4FE032704FE8547BD
:1053B000631FF7008327C4FD83D7C700C207C183DB
:1053C0003E878327C4FEF98F2326F4FE3DA80327DA
:1053D00004FE8947631FF7008327C4FD83D70701B5
:1053E000C207C1833E878327C4FEF98F2326F4FEBC
:1053F00029A88327C4FD83D74701C207C1833E87FD
:105400008327C4FEF98F2326F4FE8357A4FDA183CE
:10541000C207C1832322F4FE832744FE0547B31746
:10542000F7002322F4FE8327C4FD83D70700C207B9
:10543000C1833E87832744FEF98F2322F4FE83270E
:10544000C4FE81CB832744FE89C785472324F4FE0D
:1054500019A0232404FE832784FE3E85325445612F
:105460008280797122D60018232EA4FCAE87231DDA
:10547000F4FC231704FE231604FE8357A4FDA18326
:105480002317F4FE8357E4FE0547B317F7002316EE
:10549000F4FE8357C4FE93C7F7FF139707014183B8
:1054A0008327C4FD2390E7000100325445618280C8
:1054B000011122CE0010AA87A307F4FEB7070050FF
:1054C0000347F4FE42074183239AE702B7070050DF
:1054D00083C7670313F7F70FB7070050719B137764
:1054E000F70F238BE70201007244056182800111EE
:1054F00022CE0010AA87A307F4FEB7070050034787
:10550000F4FE42074183239CE702B707005083C79C
:10551000A70313F7F70FB7070050719B1377F70F27
:10552000238DE7020100724405618280797106D6FD
:1055300022D40018AA87A30FF4FCA30704FE15A821
:1055400003A701878347F4FEBA9703C7070083A622
:1055500001878347F4FE93870704B6971347F7FF45
:105560001377F70F2380E7008347F4FE8507A3072F
:10557000F4FE0347F4FE8347F4FDE363F7FC83473F
:10558000F4FD3E8535370100B250225445618280DA
:10559000797106D622D40018AA87A30FF4FCA307BA
:1055A00004FE15A803A741878347F4FEBA9703C7F3
:1055B000070083A641878347F4FE93870704B697C5
:1055C0001347F7FF1377F70F2380E7008347F4FEB5
:1055D0008507A307F4FE0347F4FE8347F4FDE36366
:1055E000F7FC8347F4FD3E8519370100B250225481
:1055F00045618280717106D716D51AD31ED122CF8C
:105600002ACD2ECB32C936C73AC53EC342C1C6DE0B
:10561000F2DCF6DAFAD8FED682EE86EC8AEA8EE87A
:1056200092E696E49AE29EE02AFE2EFC32FA36F8E2
:105630003AF63EF442F246F072EE76EC7AEA7EE812
:105640000019230F04F4B707005083C76700A30EA7
:10565000F4F48347D4F5898BE38A073CB7070050FD
:1056600083C7770093F7F70F93F707034147E38466
:10567000E73A41476346F700E38E07206F00F039B1
:1056800013070002E386E70413070003E397E738F4
:10569000B707005019472389E702B70700501147A1
:1056A000A389E70283A7C18603C7670083C7770082
:1056B000A207D98F1397070141832391E18883A71C
:1056C000C18603C717002380E18883A7C18683C7EB
:1056D0000700230EF4F4A30F04F4230F04F483A7AC
:1056E000C18683C7070093F70706638B071283C73A
:1056F000018893F7F70F93F70702D5C383C7018893
:1057000093F7F70F13071002638BE70013072002CC
:105710006389E708130700026387E708ADA81387CA
:10572000418223ACE1869D47A30FF4F483D72188FF
:105730001397070141839D4763E9E70083D72188D9
:10574000C207C18393F7F70F11A0A147A30FF4F489
:1057500003A7C18683A781878346F4F53686BE8575
:105760003A85EF40801583D721881397070141833D
:105770008347F4F5C207C183B307F74013970701C6
:1057800041832391E18803A781878347F4F53E97FE
:1057900023ACE18611A8FD57230FF4F431A00100DA
:1057A00021A0010011A001000347E4F59307F00FC9
:1057B0006303F7688347F4F513970701418383D7A1
:1057C0002188C207C1836379F7008347F4F51397F3
:1057D000070141832391E18883D7C187139707018C
:1057E00041839D4763E9E70083D7C187C207C1832F
:1057F00093F7F70F11A0A147A30FF4F483A78187B4
:105800000347F4F53A86BE8513854186EF40E00AEA
:1058100003A781878347F4F53E9723ACE18621AD4A
:1058200083C7018893F7F70F2D47636BF75E1397D4
:105830002700BD679387C7DFBA979C43828783A7FA
:10584000C18603C7270083C73700A207D98FC207C5
:10585000C183A183C207C183130720026365F712C6
:1058600013972700BD679387C7E2BA979C43828747
:105870003D67130707D523ACE186C947A30FF4F4AE
:1058800039A23D67130747D623ACE186930730045E
:10589000A30FF4F4EDA883A7C18603C7270083C72D
:1058A0003700A207D98FC207C18393F7F70F0547C7
:1058B0006386E70205476344F70089CB99A8094747
:1058C0006387E7020D47638DE702A1A013878183F9
:1058D00023ACE1869147A30FF4F481A03D67130741
:1058E000C7DB23ACE186B947A30FF4F43DA03D67C5
:1058F0001307C7DC23ACE186B147A30FF4F431A84A
:105900003D67130787DD23ACE186D947A30FF4F485
:1059100029A0FD57230FF4F4010095A83D67130754
:1059200087DA23ACE186D147A30FF4F48DA03D675D
:10593000130707DF23ACE186A947A30FF4F481A87E
:1059400083C7018293F7F70F9DE713061004BD6725
:10595000938567D6B707002013856706EF30F0758B
:10596000370700201307470623ACE186930730046E
:10597000A30FF4F429A8FD57230FF4F409A8FD5749
:10598000230FF4F429A0FD57230FF4F401008347FB
:10599000F4F513970701418383D72188C207C18398
:1059A0006379F7008347F4F5139707014183239147
:1059B000E18883D721881397070141839D4763E9D5
:1059C000E70083D72188C207C18393F7F70F11A09F
:1059D000A147A30FF4F403A7C18683A78187834659
:1059E000F4F53686BE853A85EF30306D03A78187A2
:1059F0008347F4F53E9723ACE18635A983A7C1869A
:105A000003C7270083C73700A207D98FC207C18306
:105A100093F7F70F1397070141832391E18821A999
:105A200083A7C18603C7F1871377F70F2380E700A9
:105A300083D72188139707014183854763F6E73EA3
:105A400005472391E188CDA683A7C18603C7270018
:105A500083C73700A207D98FC207C18313F7F70F97
:105A6000A38FE186C9AE83A7C18683C7070013F75A
:105A7000F7018947631FF70C83A7C18603C7470057
:105A800083C75700A207D98FC207C18393F7F70FC7
:105A900009476388E70409476346F70005476387BA
:105AA000E7085DA013071008638BE70413072008BD
:105AB000639CE708B707005083C7A70393F7F70F66
:105AC000E207E187E19BE207E18793E7270013976D
:105AD00087016187B70700501377F70F238DE7021F
